:1000000005308A00482D0000FF00030E8301A10087
:100010000A08A0008A010408A2007708A300780853
:10002000A4007908A5007A08A60003170D08031399
:10003000A70003170F080313A80003170C080313E6
:10004000A90003170E080313AA00831383128B1E43
:100050002B280B194C28220884002308F7002408B9
:10006000F8002508F9002608FA00270803178D0074
:100070000313280803178F000313290803178C00A4
:1000800003132A0803178E00031320088A00210E89
:100090008300FF0E7F0E09008A110A12522A83166E
:1000A000061686160617861783120615831606117E
:1000B0000000831206148316061000008312DB0171
:1000C0008316061600308312061A0130DB048316ED
:1000D000861600308312861A0130F7000310F70DE0
:1000E0007708DB048316061700308312061B0130E5
:1000F000F700F70DF70DFC30F7057708DB048316E2
:10010000861700308312861B0130F700F70DF70DBC
:10011000F70DF830F7057708DB045B08F80078087E
:10012000DA000610831606100000831206148316E8
:1001300006109A289B2800008312DB0183160616FE
:1001400000308312061A0130DB0483168616003055
:100150008312861A0130F7000310F70D7708DB04CD
:100160008316061700308312061B0130F700F70DC7
:10017000F70DFC30F7057708DB048316861700308F
:100180008312861B0130F700F70DF70DF70DF830DD
:10019000F7057708DB045B08F8007808D90006103B
:1001A00083160610061286120613861383125A0E41
:1001B000F700F030F70577085904F80008005A18DE
:1001C000E3280612E4280616831606128312DA18AC
:1001D000EB288612EC2886168316861283125A198B
:1001E000F3280613F4280617831606138312DA1968
:1001F000FB288613FC2886178316861300008312BB
:100200000614831606100230F700F70B052908299B
:10021000000083120610831606108312080083164E
:10022000061086100611831286108316861083121C
:100230004F207808D900D91B1829D708031D222977
:100240008610232986148316861000008312061157
:1002500083160611000083120610831606108312FF
:10026000580ED9000F30D9055908DA00DF20580898
:100270000F39D900DA00DF200800540B4029432948
:100280004030D5004429D50101305302D507550827
:100290008038D600D7015608D8000F210800533007
:1002A000840083130008031962290630F800F7015F
:1002B000F70B5829F80B57297B30F700F70B5E290D
:1002C000800B552908005208073A031971290B3A87
:1002D00003197629063A03197E29023A031984295B
:1002E00089290130D300D4003D218E29D701013066
:1002F000D8000F210230D3004F218E290130D300C6
:100300000230D4003D218E29D7011030D8000F21B2
:100310008E290130D7005208D8000F2108000B08A1
:10032000CA008B13831603178C170C1400000000EF
:1003300083120313CA1B8B170318C62903170C0853
:100340007F390313CA0003170D080313CB000317EB
:100350000F080313CC004A08D20063214B0803178F
:100360008D0003134C0803178F0003130B08CD00F7
:100370008B13831603178C170C14000000008312D4
:100380000313CD1B8B17C90BC629E52903170C0DC9
:100390000E0D7F390313CA0003170D080313CB009A
:1003A00003170F080313CC004A08D20063214B083F
:1003B00003178D0003134C0803178F008D0A0319D0
:1003C0008F0A03100313C90B8F2908005008F80186
:1003D0004F020318EE294F08F700FA29F7010830F9
:1003E000D100CF0DF70D500877020318F700F80D74
:1003F000D10BF129080020304A1E3030CB004908CB
:10040000F700C91F0B2AF709F70A7708C9002D3032
:10041000CB00CA174A144908CF006430D000E62147
:100420007708C90030307807CC004908CF000A307F
:10043000D000E62130307707CE0030307807CD008D
:100440004B08F70030304C0203192A2ACA14CA1B81
:100450004A153E2A4B08CC002030CB0030304D02EC
:100460000319362A4A14CA1BCA143E2A031D4A1409
:10047000031D3E2A4C08CD002030CC004A19452AE5
:10048000CA18482A4A184B2A4E2A4B08D200632120
:100490004C08D20063214D08D20063214E08D200DF
:1004A00063210800B9080319572AB903A32C9F1424
:1004B0009F18582A83161E088312B1001E08B20026
:1004C0003208CA003108C9008E30F7004A08F80027
:1004D0004908F900FA01F808031D782A7908F8009C
:1004E000F9010830F702F808031D782AF701802A7D
:1004F0000310F81B7F2AF90DF80DF703782AF8137B
:100500007A08CC007908CB007808CA007708C900BF
:10051000D001CF017A30CE008730CD0049080319D1
:10052000FE2AD1004D080319FE2AD10703189F2A7D
:100530007F30D102031CFE2A0319FE2AA32A813030
:10054000D1070318FE2A5108F700F801F901FA0152
:100550004A08D500D5174B08D4004C08D3001830F2
:10056000D100D201531CCC2A5008FA07031CBE2A22
:10057000F90A031DBE2AF80A0319D2174F08F90712
:10058000031CC52AF80A0319D2174E08CB00CB1753
:100590004B08F8070318D217D20DF80CF90CFA0C17
:1005A000D50CD40CD30C0310D10BB12A0130F707B2
:1005B0000318FE2AF81BE32AD50DFA0DF90DF80DE4
:1005C000F7030319FE2AD51FF42AFA0A031DF42A99
:1005D000F90A031DF42AF80A031DF42AF80CF90C91
:1005E000FA0CF70A0319FE2A4A08D2004E08D2066E
:1005F000D21FFC2AF817022BF813022BF701F8017F
:10060000F901FA017A08CC007908CB007808CA0011
:100610007708C9004C08D0004B08CF004A08CE002C
:100620004908CD00D401D301D2018930D1004D0851
:100630000319DC2BD90051080319DC2BD902031C48
:10064000262B7F30D9070318DC2B2C2B8130D902C5
:10065000031CDC2B0319DC2B5908F700F801F90106
:10066000FA01D8014E08D700D7174F08D600500816
:10067000D5001930D9005408D50203184F2B01308A
:10068000D60203184F2BD70203184F2BD80203189A
:100690004F2BD80AD70AD60A5408D507812B5308FE
:1006A000D60203186A2B0130D70203186A2BD8022E
:1006B00003186A2BD80AD70A5308D6075408D50757
:1006C000031C812BD60A031D812BD70A031D812B06
:1006D000D80A812B52088038D7020318802B0130AA
:1006E000D8020318802BD80A52088038D70753083D
:1006F000D607031C5E2BD70A031D5E2BD80A5E2B80
:100700007A14D90B842B8F2B0310D50DD60DD70D52
:10071000D80D0310FA0DF90DF80DDA0D3B2B5A1C0C
:10072000972B0310F80CF90CFA0CDA0C9A2BF70340
:100730000319DC2BDA1BC32B0310D50DD60DD70DF7
:10074000D80D5408D5020318AF2B0130D602031878
:10075000AF2BD7020318AF2BD802031CD22B5308A0
:10076000D6020318BA2B0130D7020318BA2BD802CD
:10077000031CD22B52088038D7020318C32B013038
:10078000D802031CD22BFA0A031DD22BF90A031D2F
:10079000D22BF80A031DD22BF70A0319DC2BF80C15
:1007A000F90CFA0C4E08D9005208D906D91FDA2BD9
:1007B000F817E02BF813E02BF701F801F901FA0123
:1007C0007A08B6007908B5007808B4007708B30055
:1007D0003608CC003508CB003408CA003308C900FD
:1007E0008E30F7004908F7024A08F9004B08F80074
:1007F000F917F7080319072C0310F908031D032C38
:10080000F8080319072CF90CF80CF70BFC2BCA1F7E
:100810000E2CF809F909F80A0319F90AB201780847
:10082000B100A83003178D0004308F0003100D3085
:100830000313C9008F21023084003208CA00310836
:10084000C900D1010408D0005110831B51144A0E75
:10085000F038CC00CC07E23ECD00323ECF004A0853
:100860000F39CD07CD07CF07E93ECE00CE07CE0723
:10087000490E0F39CE07CF07CE0DCF0DCF09CF0DC3
:1008800049080F39CF07CC0D0730CB000A30CF070E
:10089000CE03031C472CCE07CD03031C4B2CCD07E6
:1008A000CC03031C4F2CCC07CB03031C532C4B3025
:1008B0008400831307305005501384074F3004021F
:1008C000031950170008F700031D6E2C501B6E2CE7
:1008D000501A802CD0196E2C2030712CD01550124B
:1008E0003030F707CA010408C9004A10831B4A14B4
:1008F0007708D20063214908840083134A188317BC
:10090000840A501F5E2CB03003178D0004308F0016
:10091000031406300313C9008F213B08C9001830A7
:10092000CA00FB21B43003178D0004308F0003147C
:1009300006300313C9008F213C08C9001830CA00D3
:10094000FB210730B90081010B118A110A122B28F3
:100950000C2AE536F032F230F43AF230BA1233367D
:100960007505D436613CBA126410D4366937BA12B0
:1009700064008C24EE33F232F3320A00D4326D3844
:100980006539AE26693720142010A01400018C248C
:10099000EE33F232F3320A00D4326D386539AE26C6
:1009A000613C20142010A01400018A110A12D02DDD
:1009B0003D0B002DB8013808633C031CFF2C2C10A4
:1009C0002C088316870083120714AB018B1BAB170F
:1009D0008B130230D3004F21AB1B8B172C102C082C
:1009E0008316870083120710AB018B1BAB178B1389
:1009F0001230D3004F21AB1B8B17B80ADB2C472DCD
:100A0000BD08031D472DB8013808633C031C472D62
:100A10002C102C0883168700831207140230BE00A6
:100A2000F930BF000330BF02031C202D3F3084008B
:100A3000831300080319202D1E2D1E2D800B1D2D44
:100A4000BE0B102D2C102C08831687008312071064
:100A5000AB018B1BAB178B131330D3004F21AB1B98
:100A60008B170230BE00F930BF000330BF02031CF9
:100A7000432D3F308400831300080319432D412D7B
:100A8000412D800B402DBE0B332DB80A042D0800DC
:100A900003081F398300FF30AC000730B900503025
:100AA000BB002830BC00831603170908C039890031
:100AB00003131F129F12003003178800831287014F
:100AC0008801890183130313AD012E10AF01B0011A
:100AD0002830BE000C30BF000130C0000630C1001D
:100AE0000610831606108312861083168610831252
:100AF00006118316061106128612061386130610B7
:100B0000861006118312AB018B1BAB178B130F30B2
:100B1000D3004F21AB1B8B170130BD003D08033CB8
:100B2000031CA62DAB018B1BAB178B130330DA0014
:100B3000DF20AB1B8B17AB018B1BAB178B13053067
:100B4000D3004F21AB1B8B17BD0A8E2DAB018B1B26
:100B5000AB178B130230DA00DF20AB1B8B17AB0116
:100B60008B1BAB178B130530D3004F21AB1B8B179F
:100B7000BD013D08033C031CCF2D3E303D078400E2
:100B800083130008C200AB018B1BAB178B13D7017B
:100B90004208D8000F21AB1B8B17BD0AB92DD52CED
:100BA000831603170908C039890003131F129F1207
:100BB000013003178800831203131F179F17831632
:100BC0009F1783121F140030F8001F08C3397804E0
:100BD0009F0083160108C039073881008312810104
:100BE0008B16C0308B04B208031DFA2D31083B026E
:100BF0000318FE2D0130BD00D824072EB208031DB6
:100C0000072E3C0831020318072EBD01D824F32D0E
:020C100063007F
:04400E00E22CFF3F62
:00000001FF
;PIC16F887
;CRC=6547  CREATED="11-abr-25 16:07"
