:1000000006308A00D52E0000FF00030E8301A100F8
:100010000A08A0008A010408A2007708A300780853
:10002000A4007908A5007A08A60003170D08031399
:10003000A70003170F080313A80003170C080313E6
:10004000A90003170E080313AA00831383128B1E43
:100050002B280B194C28220884002308F7002408B9
:10006000F8002508F9002608FA00270803178D0074
:100070000313280803178F000313290803178C00A4
:1000800003132A0803178E00031320088A00210E89
:100090008300FF0E7F0E09008A110A12AB2B0A1093
:1000A0008A100A118207313432343334343435340F
:1000B00036343734383439342A34303423344937F9
:1000C0006739E539651D0A00D4326D386539AE26C9
:1000D000693720142010A0140000673084008313B7
:1000E0000008031981280130F800F701F70B762882
:1000F000F80B75284A30F700F70B7C287F28800B17
:10010000732808008E30F7006808F8006708F900C7
:10011000FA01F808031D96287908F800F90108305B
:10012000F702F808031D9628F7019E280310F81B14
:100130009D28F90DF80DF7039628F81308006708B5
:1001400003196429F3006B0803196429F302031CE3
:10015000AE287F30F30703186429B4288130F302F6
:10016000031C6429031964297308F700F801F901D5
:10017000FA01F2016808F100F1176908F0006A0855
:10018000EF001930F3006E08EF020318D728013092
:10019000F0020318D728F1020318D728F202031837
:1001A000D728F20AF10AF00A6E08EF0709296D084C
:1001B000F0020318F2280130F1020318F228F202CB
:1001C0000318F228F20AF10A6D08F0076E08EF072B
:1001D000031C0929F00A031D0929F10A031D092935
:1001E000F20A09296C088038F10203180829013045
:1001F000F20203180829F20A6C088038F1076D082A
:10020000F007031CE628F10A031DE628F20AE62897
:100210007A14F30B0C2917290310EF0DF00DF10DD3
:10022000F20D0310FA0DF90DF80DF40DC328741C2E
:100230001F290310F80CF90CFA0CF40C2229F7030F
:1002400003196429F41B4B290310EF0DF00DF10D78
:10025000F20D6E08EF02031837290130F00203187F
:100260003729F10203183729F202031C5A296D08B5
:10027000F002031842290130F10203184229F20268
:10028000031C5A296C088038F10203184B290130ED
:10029000F202031C5A29FA0A031D5A29F90A031DFE
:1002A0005A29F80A031D5A29F70A03196429F80C78
:1002B000F90CFA0C6808F3006C08F306F31F6229C6
:1002C000F8176829F8136829F701F801F901FA010C
:1002D00008006D0EF039F7000F3006057704860030
:1002E00000000614732906100800831606108610F5
:1002F0000611831286100F3083160605F03886002B
:10030000831206150000061400000608F700060E0A
:100310000F39F8007808ED00061000000614000000
:100320000608F700060E0F39F8007808EC000610F2
:100330000F3083160605860083126D0EF700F0302D
:10034000F70577086C04F8007808EC00EC1B7B29B3
:100350006A1C86106A188614000006110000061038
:100360006B0EEC000F30EC056C08ED0069216B089A
:100370000F39EC00ED00692108006508073A031900
:10038000CB290B3A0319E029063A0319E829023A66
:100390000319FE29032A0130E600E700670BD12983
:1003A000D4294030E800D529E80101306602E80789
:1003B00068088038E900EA016908EB007521082A1D
:1003C000EA010130EB0075210230E7006D20082AB8
:1003D0000130E6000230E700670BEF29F2294030D8
:1003E000E800F329E80101306602E8076808803870
:1003F000E900EA016908EB007521082AEA011030DA
:10040000EB007521082A0130EA006508EB00752130
:10041000080083180E2A6D3084008313F701F80159
:10042000F901FA01ED01EE01EF01F0016C086B0436
:100430006A04690403194C2A2030F1000310E50D09
:10044000E60DE70DE80DED0DEE0DEF0DF00D6C086E
:100450007002031D352A6B086F02031D352A6A08D6
:100460006E02031D352A69086D02031C462A6908BD
:10047000ED026A08031C6A0FEE026B08031C6B0F87
:10048000EF026C08031C6C0FF0020314F70DF80D5B
:10049000F90DFA0DF10B1E2A6D088000840A6E0812
:1004A0008000840A6F088000840A700880000800B9
:1004B0000408DD005C08DF000319EA2A5B08E80095
:1004C0005A08E7005908E6005808E500EC01EB017E
:1004D0002030EA008230E90065080319DC2AED00CB
:1004E00069080319DC2AED0703187D2A7F30ED0225
:1004F000031CDC2A0319DC2A812A8130ED0703184A
:10050000DC2A6D08F700F801F901FA016608F1002C
:10051000F1176708F0006808EF001830ED00EE01F1
:100520006F1CAA2A6C08FA07031C9C2AF90A031DEF
:100530009C2AF80A0319EE176B08F907031CA32A73
:10054000F80A0319EE176A08E700E7176708F807C3
:100550000318EE17EE0DF80CF90CFA0CF10CF00C78
:10056000EF0C0310ED0B8F2A0130F7070318DC2A7C
:10057000F81BC12AF10DFA0DF90DF80DF703031957
:10058000DC2AF11FD22AFA0A031DD22AF90A031D16
:10059000D22AF80A031DD22AF80CF90CFA0CF70A31
:1005A0000319DC2A6608EE006A08EE06EE1FDA2A56
:1005B000F817E02AF813E02AF701F801F901FA0127
:1005C0007A08DB007908DA007808D9007708D800C3
:1005D000DF0B5E2A5B08E8005A08E7005908E600CE
:1005E0005808E5006508B63CE500FA016608E90030
:1005F000E6170310E60CE70CE80CFA0CF90CF80C03
:10060000F70CE50BF92AE91F102BF709F809F9098E
:10061000FA09F70A0319F80A0319F90A0319FA0A79
:100620007A08DB007908DA007808D9007708D80062
:10063000DB1F272BDD03DD16D809D909DA09DB0911
:10064000D80A0319D90A0319DA0A0319DB0A3B305D
:10065000E4009A30E300CA30E200E1010A30DF0032
:100660005C080319DD0A83145830840083135B0887
:10067000E8005A08E7005908E6005808E500640851
:10068000EC006308EB006208EA006108E900092257
:100690007808F708031D5F2B5C0A5F0203195F2BC4
:1006A0005D080319612B0F395F020319592B0318D9
:1006B000912BDD1B912B5D1B612B20308D2B20306E
:1006C000DD05DD1E6F2BDD125C08031DDD037708E1
:1006D000DD002D30E500BD215D08F700DD015C087F
:1006E0005F02031D7D2B7708DD002E30E500BD2164
:1006F0005D08F7002030DD0500303030DD1E8D2B29
:10070000DD125C08031DDD037708DD002D30E500F8
:10071000BD215D08F700DD013030F7077708E500FF
:10072000BD2183106408E8006308E7006208E60062
:100730006108E500EC01EB01EA010A30E900092259
:100740007A08E4007908E3007808E2007708E1001D
:10075000DF0B332B08000130C902C908031DC82D67
:10076000831605110511831205150630F700F70BE6
:10077000B72B000083160511831205111230E70014
:100780006D2083160511831205150930F700F70B4C
:10079000C72BCA2B83160511831205118316051565
:1007A0000C30F700F70BD22BD52B00000515831268
:1007B000D8010519D80AD8080319E12B0130C50062
:1007C000A92CC5011A30F700F70BE42B00008316A3
:1007D00005158312D8010519D80AD808031DF32B73
:1007E0000130C600A92CC6010B30F700F70BF62B21
:1007F0000000D9015908043C031C3E2C3030590735
:10080000F800FA010318FA0A7808E7007A08E80005
:10081000E901EA01E9016908073C031C332C83164E
:1008200005158312051D0F2C0930F700F70B162C48
:10083000192C831605158312051D2C2C6908073CFD
:10084000F8000130F700F80803192A2C0310F70DFF
:10085000F80B262C7708EA04831605158312051970
:100860002C2CE90A0B2C6A08F80067088400831313
:100870006818831778088000D90AFA2B83160511A7
:100880000230F700F70B422C452C000005118312B3
:1008900005153108300732073307DA005A083402E9
:1008A0000319542C0130C700C7013008DE0031089D
:1008B000DD003208DC003308DB00DC1F612CAD14E6
:1008C000DC135E08E8005D08E70082207A08E60095
:1008D0007908E5007808E4007708E3005C08E800A0
:1008E0005B08E70082207A08E2007908E1007808D6
:1008F000E0007708DF006608EA006508E9006408A0
:10090000E8006308E700EE01ED012030EC008230E2
:10091000EB009F207A08B8007908B7007808B60085
:100920007708B5006208EA006108E9006008E8009D
:100930005F08E700EE01ED012030EC008230EB00B3
:100940009F207A08BC007908BB007808BA007708B5
:10095000B900450BAC2CAE2C0030AF2C0130D800C8
:10096000460BB32CB52C0030B62C0130D804470B05
:10097000BA2CBC2C0030BD2C0130580403191A2DA0
:10098000CF3003178D0005308F0003130B08D800FC
:100990008B13831603178C170C14000000008312AE
:1009A0000313D81B8B1703170C087F390319182D55
:1009B0000313D80003170D080313D90003170F08FA
:1009C0000313DA005808E500BD21590803178D000C
:1009D00003135A0803178F0003130B08DB008B1354
:1009E000831603178C170C140000000083120313E6
:1009F000DB1B8B1703170C0D0E0D7F390319182DF8
:100A00000313D80003170D080313D90003170F08A9
:100A10000313DA005808E500BD21590803178D00BB
:100A200003135A0803178F008D0A03198F0AC52C68
:100A3000CA2D03130C30E500BD214830E500BD216F
:100A40003D30E500BD21013084003808DB00370867
:100A5000DA003608D9003508D8000130DC00582209
:100A60002530E500BD21AD1CA72DD83003178D0022
:100A700005308F00031004300313D8000B08D90091
:100A80008B13831603178C170C14000000008312BD
:100A90000313D91B8B170318752D03170C087F3907
:100AA0000313D90003170D080313DA0003170F0807
:100AB0000313DB005908E500BD215A0803178D0018
:100AC00003135B0803178F0003130B08DC008B1361
:100AD000831603178C170C140000000083120313F5
:100AE000DC1B8B17D80B752D942D03170C0D0E0DD9
:100AF0007F390313D90003170D080313DA00031716
:100B00000F080313DB005908E500BD215A0803173D
:100B10008D0003135B0803178F008D0A03198F0ADA
:100B200003100313D80B3E2D013084003C08DB007A
:100B30003B08DA003A08D9003908D8000130DC0057
:100B400058229E30E500BD214330E500BD21AD189F
:100B5000C52D2030E500BD215430E500BD213D30DC
:100B6000E500BD21013084003C08DB003B08DA00D1
:100B70003A08D9003908D8000130DC0058229E30EC
:100B8000E500BD214330E500BD21AD101E30C90098
:100B90008101031703130B118A110A122B288C22CF
:100BA00052294F2920224510CC22432A55294100A1
:100BB000202ABD162519AE18E612E32100008C2963
:100BC0006537F33772104424541932002830CC00B2
:100BD0000C30CD000130CE000630CF00061086105C
:100BE00006110F30831606058600061086100611C2
:100BF0008312AB018B1BAB178B130F30E7006D20FB
:100C0000AB1B8B170130CB004B08033C031C1C2E85
:100C1000AB018B1BAB178B130330ED006921AB1BB2
:100C20008B17AB018B1BAB178B130530E7006D20C7
:100C3000AB1B8B17CB0A042EAB018B1BAB178B1393
:100C40000230ED006921AB1B8B17AB018B1BAB177F
:100C50008B130530E7006D20AB1B8B17CB014B08C6
:100C6000033C031C452E4C304B07840083130008C3
:100C7000D000AB018B1BAB178B13EA015008EB00C4
:100C80007521AB1B8B17CB0A2F2E8A110A12F02E5F
:100C90008A110A12F12ECB01AC0A2C08213C031850
:100CA000CC2E2F0803195B2E013A0319612E033A4B
:100CB0000319672E6C2EDE308316860083128600A1
:100CC0006C2EBE3083168600831286006C2E7E301A
:100CD00083168600831286002D1C782E06081E3986
:100CE0001E3C031D772E2D102E08CB00AE01CB2EFF
:100CF00006081E391E3C0319C62E06080239031DBC
:100D0000832ECC01972E06080439031D8A2E01304C
:100D1000CC00972E06080839031D912E0230CC0016
:100D2000972E06081039031D972E0330CC004C086F
:100D3000CD000330CE00F701F8014D0803104E1826
:100D4000F707F70CF80CCE18F707F70CF80C4E194C
:100D5000F707F70CF80CCE19F707F70CF80C4E1A3A
:100D6000F707F70CF80CCE1AF707F70CF80C4E1B28
:100D7000F707F70CF80CCE1BF707F70CF80C2F0849
:100D800078074F20F800AE002D14CB2EAF0A2F08A5
:100D9000033C0319AF01AC01FE30831686008312B9
:100DA0004B08F8008A110A12662F03081F398300C6
:100DB000193083169900A63098009030831298005D
:100DC000FF30CA0083161F149F141F159F11073090
:100DD0009C0083138312AC012D10AE01AF01E62DF0
:100DE000482E83168113DF30831203178D000530E0
:100DF0008F0003130B08D8008B13831603178C176F
:100E00000C140000000083120313D81B8B17031768
:100E10000C087F3903194C2F0313D80003170D0852
:100E20000313D90003170F080313DA005808E5006D
:100E3000BD21590803178D0003135A0803178F00AB
:100E400003130B08DB008B13831603178C170C148A
:100E50000000000083120313DB1B8B1703170C0D1C
:100E60000E0D7F3903194C2F0313D80003170D08FB
:100E70000313D90003170F080313DA005808E5001D
:100E8000BD21590803178D0003135A0803178F005B
:100E90008D0A03198F0AF92E02300313CB00AB0120
:100EA0008B1BAB178B13FA30E7006D20AB1B8B1736
:100EB000CB0B4F2F83160108C039073881001E3035
:100EC0008312C9008B16C0308B044B2E7808C800E3
:100ED0004808233C031D732F4A104A0883168700D5
:0A0EE000013083128706652F6300BE
:02400E00713F00
:00000001FF
;PIC16F876A
;CRC=F82A  CREATED="04-sept-25 14:42"
