:1000000006308A00C72E0000FF00030E8301A10006
:100010000A08A0008A010408A2007708A300780853
:10002000A4007908A5007A08A60003170D08031399
:10003000A70003170F080313A80003170C080313E6
:10004000A90003170E080313AA00831383128B1E43
:100050002B280B194C28220884002308F7002408B9
:10006000F8002508F9002608FA00270803178D0074
:100070000313280803178F000313290803178C00A4
:1000800003132A0803178E00031320088A00210E89
:100090008300FF0E7F0E09008A110A129D2B0A10A1
:1000A0008A100A118207313432343334343435340F
:1000B00036343734383439342A34303423346730E2
:1000C000840083130008031973280130F800F70136
:1000D000F70B6828F80B67284A30F700F70B6E28F3
:1000E0007128800B652808008E30F7006808F8003A
:1000F0006708F900FA01F808031D88287908F80054
:10010000F9010830F702F808031D8828F701902844
:100110000310F81B8F28F90DF80DF7038828F81342
:100120000800670803195629F3006B0803195629BC
:10013000F302031CA0287F30F30703185629A628D2
:100140008130F302031C5629031956297308F7005E
:10015000F801F901FA01F2016808F100F1176908E4
:10016000F0006A08EF001930F3006E08EF02031880
:10017000C9280130F0020318C928F1020318C92860
:10018000F2020318C928F20AF10AF00A6E08EF0712
:10019000FB286D08F0020318E4280130F10203186F
:1001A000E428F2020318E428F20AF10A6D08F007C5
:1001B0006E08EF07031CFB28F00A031DFB28F10A59
:1001C000031DFB28F20AFB286C088038F102031893
:1001D000FA280130F2020318FA28F20A6C08803873
:1001E000F1076D08F007031CD828F10A031DD82871
:1001F000F20AD8287A14F30BFE2809290310EF0D10
:10020000F00DF10DF20D0310FA0DF90DF80DF40DCE
:10021000B528741C11290310F80CF90CFA0CF40C15
:100220001429F70303195629F41B3D290310EF0D78
:10023000F00DF10DF20D6E08EF02031829290130BF
:10024000F00203182929F10203182929F202031CDC
:100250004C296D08F002031834290130F10203180B
:100260003429F202031C4C296C088038F10203186F
:100270003D290130F202031C4C29FA0A031D4C29C6
:10028000F90A031D4C29F80A031D4C29F70A031922
:100290005629F80CF90CFA0C6808F3006C08F30600
:1002A000F31F5429F8175A29F8135A29F701F801AE
:1002B000F901FA0108006D0EF039F7000F3006055C
:1002C00077048600000006146529061008008316CE
:1002D000061086100611831286100F30831606054D
:1002E000F038860083120615000006140000060888
:1002F000F700060E0F39F8007808ED000610000030
:10030000061400000608F700060E0F39F8007808FA
:10031000EC0006100F3083160605860083126D0E62
:10032000F700F030F70577086C04F8007808EC0067
:10033000EC1B6D296A1C86106A18861400000611D1
:10034000000006106B0EEC000F30EC056C08ED00A1
:100350005B216B080F39EC00ED005B21080065089C
:10036000073A0319BD290B3A0319D229063A031992
:10037000DA29023A0319F029F5290130E600E700ED
:10038000670BC329C6294030E800C729E8010130BE
:100390006602E80768088038E900EA016908EB00AE
:1003A0006721FA29EA010130EB0067210230E700FA
:1003B0005F20FA290130E6000230E700670BE129EF
:1003C000E4294030E800E529E80101306602E80749
:1003D00068088038E900EA016908EB006721FA291A
:1003E000EA011030EB006721FA290130EA006508C4
:1003F000EB00672108008318002A6D308400831306
:10040000F701F801F901FA01ED01EE01EF01F00148
:100410006C086B046A04690403193E2A2030F10059
:100420000310E50DE60DE70DE80DED0DEE0DEF0DFA
:10043000F00D6C087002031D272A6B086F02031D64
:10044000272A6A086E02031D272A69086D02031C09
:10045000382A6908ED026A08031C6A0FEE026B086D
:10046000031C6B0FEF026C08031C6C0FF0020314EB
:10047000F70DF80DF90DFA0DF10B102A6D0880003B
:10048000840A6E088000840A6F088000840A70085D
:10049000800008000408DD005C08DF000319DC2A86
:1004A0005B08E8005A08E7005908E6005808E5002C
:1004B000EC01EB012030EA008230E9006508031905
:1004C000CE2AED0069080319CE2AED0703186F2A1A
:1004D0007F30ED02031CCE2A0319CE2A732A813005
:1004E000ED070318CE2A6D08F700F801F901FA01AB
:1004F0006608F100F1176708F0006808EF0018308F
:10050000ED00EE016F1C9C2A6C08FA07031C8E2A72
:10051000F90A031D8E2AF80A0319EE176B08F9076A
:10052000031C952AF80A0319EE176A08E700E71773
:100530006708F8070318EE17EE0DF80CF90CFA0C23
:10054000F10CF00CEF0C0310ED0B812A0130F707D2
:100550000318CE2AF81BB32AF10DFA0DF90DF80D88
:10056000F7030319CE2AF11FC42AFA0A031DC42A6D
:10057000F90A031DC42AF80A031DC42AF80CF90C51
:10058000FA0CF70A0319CE2A6608EE006A08EE068E
:10059000EE1FCC2AF817D22AF813D22AF701F80155
:1005A000F901FA017A08DB007908DA007808D90045
:1005B0007708D800DF0B502A5B08E8005A08E700EC
:1005C0005908E6005808E5006508B63CE500FA0160
:1005D0006608E900E6170310E60CE70CE80CFA0CD5
:1005E000F90CF80CF70CE50BEB2AE91F022BF709C5
:1005F000F809F909FA09F70A0319F80A0319F90AB7
:100600000319FA0A7A08DB007908DA007808D900B9
:100610007708D800DB1F192BDD03DD16D809D909AF
:10062000DA09DB09D80A0319D90A0319DA0A031906
:10063000DB0A3B30E4009A30E300CA30E200E1011B
:100640000A30DF005C080319DD0A83145830840087
:1006500083135B08E8005A08E7005908E6005808C9
:10066000E5006408EC006308EB006208EA0061083A
:10067000E900FB217808F708031D512B5C0A5F0293
:100680000319512B5D080319532B0F395F0203190E
:100690004B2B0318832BDD1B832B5D1B532B20302F
:1006A0007F2B2030DD05DD1E612BDD125C08031D74
:1006B000DD037708DD002D30E500AF215D08F70090
:1006C000DD015C085F02031D6F2B7708DD002E3013
:1006D000E500AF215D08F7002030DD050030303047
:1006E000DD1E7F2BDD125C08031DDD037708DD00B6
:1006F0002D30E500AF215D08F700DD013030F70750
:100700007708E500AF2183106408E8006308E7007C
:100710006208E6006108E500EC01EB01EA010A303D
:10072000E900FB217A08E4007908E3007808E20098
:100730007708E100DF0B252B08000130C902C9084A
:10074000031DBA2D831605110511831205150630F8
:10075000F700F70BA92B0000831605118312051172
:100760001230E7005F20831605118312051509304A
:10077000F700F70BB92BBC2B83160511831205115B
:10078000831605150C30F700F70BC42BC72B0000A0
:1007900005158312D8010519D80AD8080319D32BD7
:1007A0000130C5009B2CC5011A30F700F70BD62B82
:1007B0000000831605158312D8010519D80AD80838
:1007C000031DE52B0130C6009B2CC6010B30F70042
:1007D000F70BE82B0000D9015908043C031C302C0E
:1007E00030305907F800FA010318FA0A7808E700D0
:1007F0007A08E800E901EA01E9016908073C031CFD
:10080000252C831605158312051D012C0930F700D0
:10081000F70B082C0B2C831605158312051D1E2CB7
:100820006908073CF8000130F700F80803191C2C90
:100830000310F70DF80B182C7708EA04831605153A
:10084000831205191E2CE90AFD2B6A08F8006708B7
:10085000840083136818831778088000D90AEC2B6A
:10086000831605110230F700F70B342C372C0000EB
:100870000511831205153108300732073307DA00F6
:100880005A0834020319462C0130C700C70130084A
:10089000DE003108DD003208DC003308DB00DC1F3D
:1008A000532CAD14DC135E08E8005D08E7007420EB
:1008B0007A08E6007908E5007808E4007708E300A4
:1008C0005C08E8005B08E70074207A08E200790819
:1008D000E1007808E0007708DF006608EA006508B4
:1008E000E9006408E8006308E700EE01ED0120304C
:1008F000EC008230EB0091207A08B8007908B7004C
:100900007808B6007708B5006208EA006108E900D7
:100910006008E8005F08E700EE01ED012030EC0020
:100920008230EB0091207A08BC007908BB0078087F
:10093000BA007708B900450B9E2CA02C0030A12CE2
:100940000130D800460BA52CA72C0030A82C013074
:10095000D804470BAC2CAE2C0030AF2C013058041F
:1009600003190C2DC13003178D0005308F000313C0
:100970000B08D8008B13831603178C170C14000078
:10098000000083120313D81B8B1703170C087F3941
:1009900003190A2D0313D80003170D080313D900F8
:1009A00003170F080313DA005808E500AF215908B0
:1009B00003178D0003135A0803178F0003130B0846
:1009C000DB008B13831603178C170C140000000038
:1009D00083120313DB1B8B1703170C0D0E0D7F39CE
:1009E00003190A2D0313D80003170D080313D900A8
:1009F00003170F080313DA005808E500AF21590860
:100A000003178D0003135A0803178F008D0A03196B
:100A10008F0AB72CBC2D03130C30E500AF214830F2
:100A2000E500AF213D30E500AF21013084003808FA
:100A3000DB003708DA003608D9003508D800013065
:100A4000DC004A222530E500AF21AD1C992DCA30CB
:100A500003178D0005308F00031004300313D800F6
:100A60000B08D9008B13831603178C170C14000086
:100A7000000083120313D91B8B170318672D03176C
:100A80000C087F390313D90003170D080313DA008C
:100A900003170F080313DB005908E500AF215A08BC
:100AA00003178D0003135B0803178F0003130B0854
:100AB000DC008B13831603178C170C140000000046
:100AC00083120313DC1B8B17D80B672D862D03179E
:100AD0000C0D0E0D7F390313D90003170D080313F6
:100AE000DA0003170F080313DB005908E500AF21F4
:100AF0005A0803178D0003135B0803178F008D0A34
:100B000003198F0A03100313D80B302D0130840012
:100B10003C08DB003B08DA003A08D9003908D80065
:100B20000130DC004A229E30E500AF214330E50071
:100B3000AF21AD18B72D2030E500AF215430E500CE
:100B4000AF213D30E500AF21013084003C08DB00DF
:100B50003B08DA003A08D9003908D8000130DC0037
:100B60004A229E30E500AF214330E500AF21AD10B1
:100B70001E30C9008101031703130B118A110A12D9
:100B80002B288C2252294F2920224510CC22432A7F
:100B900055294100202ABD162519AE18E612E32179
:100BA00000008C296537F337721044245419320041
:100BB0002830CC000C30CD000130CE000630CF0004
:100BC0000610861006110F308316060586000610E3
:100BD000861006118312AB018B1BAB178B130F30E2
:100BE000E7005F20AB1B8B170130CB004B08033CA9
:100BF000031C0E2EAB018B1BAB178B130330ED00C8
:100C00005B21AB1B8B17AB018B1BAB178B13053019
:100C1000E7005F20AB1B8B17CB0AF62DAB018B1BBC
:100C2000AB178B130230ED005B21AB1B8B17AB01B5
:100C30008B1BAB178B130530E7005F20AB1B8B17AB
:100C4000CB014B08033C031C372E4C304B07840070
:100C500083130008D000AB018B1BAB178B13EA0189
:100C60005008EB006721AB1B8B17CB0A212E8A1192
:100C70000A12E22E8A110A12E32ECB01AC0A2C08CA
:100C8000213C0318BE2E2F0803194D2E013A0319DB
:100C9000532E033A0319592E5E2EDE30831686003A
:100CA000831286005E2EBE30831686008312860075
:100CB0005E2E7E3083168600831286002D1C6A2EDF
:100CC00006081E391E3C031D692E2D102E08CB0070
:100CD000AE01BD2E06081E391E3C0319B82E0608AB
:100CE0000239031D752ECC01892E06080439031D17
:100CF0007C2E0130CC00892E06080839031D832E76
:100D00000230CC00892E06081039031D892E0330CD
:100D1000CC004C08CD000330CE00F701F8014D089F
:100D200003104E18F707F70CF80CCE18F707F70C5E
:100D3000F80C4E19F707F70CF80CCE19F707F70C5B
:100D4000F80C4E1AF707F70CF80CCE1AF707F70C49
:100D5000F80C4E1BF707F70CF80CCE1BF707F70C37
:100D6000F80C2F0878074F20F800AE002D14BD2E88
:100D7000AF0A2F08033C0319AF01AC01FE30831604
:100D8000860083124B08F8008A110A12582F0308B4
:100D90001F398300193083169900A63098009030CF
:100DA00083129800FF30CA0083161F149F141F156A
:100DB0009F1107309C0083138312AC012D10AE01EC
:100DC000AF01D82D3A2E83168113D1308312031729
:100DD0008D0005308F0003130B08D8008B1383168A
:100DE00003178C170C140000000083120313D81B88
:100DF0008B1703170C087F3903193E2F0313D800F4
:100E000003170D080313D90003170F080313DA00A3
:100E10005808E500AF21590803178D0003135A083D
:100E200003178F0003130B08DB008B1383160317C4
:100E30008C170C140000000083120313DB1B8B17AC
:100E400003170C0D0E0D7F3903193E2F0313D80025
:100E500003170D080313D90003170F080313DA0053
:100E60005808E500AF21590803178D0003135A08ED
:100E700003178F008D0A03198F0AEB2E023003131C
:100E8000CB00AB018B1BAB178B13FA30E7005F2055
:100E9000AB1B8B17CB0B412F83160108C0390738CA
:100EA00081001E308312C9008B16C0308B043D2E8A
:100EB0007808C8004808233C031D652F4A104A08DB
:0E0EC00083168700013083128706572F6300C8
:02400E00713F00
:00000001FF
;PIC16F876A
;CRC=D2B5  CREATED="04-sept-25 14:12"
