:1000000005308A00452D0000FF00030E8301A1008A
:100010000A08A0008A010408A2007708A300780853
:10002000A4007908A5007A08A60003170D08031399
:10003000A70003170F080313A80003170C080313E6
:10004000A90003170E080313AA00831383128C3030
:100050008400001C2D280C1852288B1E31280B19E7
:100060005528220884002308F7002408F8002508F2
:10007000F9002608FA00270803178D000313280843
:1000800003178F000313290803178C0003132A0892
:1000900003178E00031320088A00210E8300FF0E31
:1000A0007F0E09008A110A123D298A110A12422A7A
:1000B0000A108A100A11820731343234333434344E
:1000C000353436343734383439342A343034233400
:1000D0008C24EE33F232F3320A29D0262810201075
:1000E000290000340034520803193829DE0056086C
:1000F00003193829DE02031C82287F30DE0703182B
:10010000382988288130DE02031C38290319382950
:100110005E08F700F801F901FA01DD015308DC007F
:10012000DC175408DB005508DA001930DE005908E6
:10013000DA020318AB280130DB020318AB28DC021B
:100140000318AB28DD020318AB28DD0ADC0ADB0A42
:100150005908DA07DD285808DB020318C6280130E1
:10016000DC020318C628DD020318C628DD0ADC0AF3
:100170005808DB075908DA07031CDD28DB0A031DD2
:10018000DD28DC0A031DDD28DD0ADD28570880385C
:10019000DC020318DC280130DD020318DC28DD0A4C
:1001A00057088038DC075808DB07031CBA28DC0A2C
:1001B000031DBA28DD0ABA287A14DE0BE028EB28E2
:1001C0000310DA0DDB0DDC0DDD0D0310FA0DF90D5A
:1001D000F80DDF0D97285F1CF3280310F80CF90CBD
:1001E000FA0CDF0CF628F70303193829DF1B1F2947
:1001F0000310DA0DDB0DDC0DDD0D5908DA020318F2
:100200000B290130DB0203180B29DC0203180B2930
:10021000DD02031C2E295808DB02031816290130C1
:10022000DC0203181629DD02031C2E29570880382A
:10023000DC0203181F290130DD02031C2E29FA0AF3
:10024000031D2E29F90A031D2E29F80A031D2E2944
:10025000F70A03193829F80CF90CFA0C5308DE00D8
:100260005708DE06DE1F3629F8173C29F8133C290B
:10027000F701F801F901FA0108003708CF00360844
:10028000CE008E30F7004F08F8004E08F900FA0152
:10029000F808031D55297908F800F9010830F7021C
:1002A000F808031D5529F7015D290310F81B5C2987
:1002B000F90DF80DF7035529F8137A08D1007908DC
:1002C000D0007808CF007708CE00D501D4011630D1
:1002D000D3008830D2004E080319DB29D60052081B
:1002E0000319DB29D60703187C297F30D602031CAB
:1002F000DB290319DB2980298130D6070318DB2984
:100300005608F700F801F901FA014F08DA00DA1788
:100310005008D9005108D8001830D600D701581C11
:10032000A9295508FA07031C9B29F90A031D9B29D3
:10033000F80A0319D7175408F907031CA229F80A69
:100340000319D7175308D000D0175008F80703181F
:10035000D717D70DF80CF90CFA0CDA0CD90CD80C0D
:100360000310D60B8E290130F7070318DB29F81B81
:10037000C029DA0DFA0DF90DF80DF7030319DB2981
:10038000DA1FD129FA0A031DD129F90A031DD1293F
:10039000F80A031DD129F80CF90CFA0CF70A031915
:1003A000DB294F08D7005308D706D71FD929F817DC
:1003B000DF29F813DF29F701F801F901FA017A08BA
:1003C000D1007908D0007808CF007708CE00510816
:1003D000D5005008D4004F08D3004E08D200D901F0
:1003E000D8013430D7008630D60073207A08D10087
:1003F0007908D0007808CF007708CE005108D500E2
:100400005008D4004F08D3004E08D200D901D801BB
:10041000D7018030D60073207A08D1007908D00047
:100420007808CF007708CE008E30F7004E08F7022C
:100430004F08F9005008F800F917F70803192B2A9C
:100440000310F908031D272AF80803192B2AF90CB1
:10045000F80CF70B202ACF1F322AF809F909F80AFD
:100460000319F90A7908B1007808B000B701B6019C
:10047000AD148E013C308F00AF308E000C108A110D
:100480000A123128B60A0319B70AFF3081000B118E
:100490008A110A1231280C29653B731DA012EC3A0F
:1004A0000A22E539E530E4303A102536751D200082
:1004B00000340034233400348A110A127E2D453072
:1004C0008400831300080319732A0130F800F70130
:1004D000F70B682AF80B672A4A30F700F70B6E2AE9
:1004E000712A800B652A08004C0EF039F7000F3096
:1004F000060577048600000006147E2A0610080010
:100500000608F700060E0F39F800080083160610DB
:1005100086100611831286100F3083160605F038F8
:100520008600831206150000061400008022780859
:10053000CC00061000000614000080227808CB00D2
:1005400006100F3083160605860083124C0EF70046
:10055000F030F70577084B04F8007808CB00CB1B88
:100560008C2A491C861049188614000006110000C8
:1005700006104A0ECB000F30CB054B08CC0074227E
:100580004A080F39CB00CC00742208002830BC0088
:100590000C30BD000130BE000630BF0006108610D2
:1005A00006110F3083160605860006108610061108
:1005B0000F308312C5005F220130BB003B08033CB3
:1005C000031CEA2A0330CC0074220530C5005F22E8
:1005D000BB0ADE2A0230CC0074220530C5005F223F
:1005E000BB013B08033C031C012B3C303B07840050
:1005F00083130008C000C9014008CA008622BB0A54
:10060000F12A8A110A127F2D460B072B0A2B403044
:10061000C7000B2BC70101304502C70747088038C8
:10062000C800C9014808CA00862208004408073AE1
:100630000319242B0B3A0319292B063A0319312BE2
:10064000023A0319372B3C2B0130C500C6000423A6
:10065000412BC9010130CA0086220230C5005F2249
:10066000412B0130C5000230C6000423412BC901D3
:100670001030CA008622412B0130C9004408CA004C
:10068000862208000B08BC008B13831603178C17F7
:100690000C140000000083120313BC1B8B170318FB
:1006A000792B03170C087F390313BC0003170D08BF
:1006B0000313BD0003170F080313BE003C08C4005A
:1006C00016233D0803178D0003133E0803178F0000
:1006D00003130B08BF008B13831603178C170C141E
:1006E0000000000083120313BF1B8B17BB0B792B79
:1006F000982B03170C0D0E0D7F390313BC00031745
:100700000D080313BD0003170F080313BE003C08B8
:10071000C40016233D0803178D0003133E0803177A
:100720008F008D0A03198F0A03100313BB0B422B92
:100730000800C3010408C2004310831B43143C0E8D
:10074000F038BE00BE07E23EBF00323EC1003C08AA
:100750000F39BF07BF07C107E93EC000C007C00788
:100760003B0E0F39C007C107C00DC10DC109C10D36
:100770003B080F39C107BE0D0730BD000A30C10765
:10078000C003031CBF2BC007BF03031CC32BBF0741
:10079000BE03031CC72BBE07BD03031CCB2B3D3080
:1007A000840083130730420542138407413004025A
:1007B000031942170008F700031DE62B421BE62B26
:1007C000421AF82BC219E62B2030E92BC21542122F
:1007D0003030F707BC010408BB003C10831B3C14FD
:1007E0007708C40016233B08840083133C18831742
:1007F000840A421FD62B0800BB01AC0A2C08213CFE
:1008000003187D2C2F0803190C2C013A0319122C04
:10081000033A0319182C1D2CDE3083168600831230
:1008200086001D2CBE3083168600831286001D2C88
:100830007E3083168600831286002D1C292C060824
:100840001E391E3C031D282C2D102E08BB00AE01A6
:100850007C2C06081E391E3C0319772C0608023929
:10086000031D342CBC01482C06080439031D3B2C05
:100870000130BC00482C06080839031D422C023008
:10088000BC00482C06081039031D482C0330BC005E
:100890003C08BD000330BE00F701F8013D0803101D
:1008A0003E18F707F70CF80CBE18F707F70CF80C12
:1008B0003E19F707F70CF80CBE19F707F70CF80C00
:1008C0003E1AF707F70CF80CBE1AF707F70CF80CEE
:1008D0003E1BF707F70CF80CBE1BF707F70CF80CDC
:1008E0002F0878075820F800AE002D147C2CAF0A92
:1008F0002F08033C0319AF01AC01FE3083168600BC
:1009000083123B08F8000800683003178D000030A0
:100910008F0003130B08BB008B13831603178C1770
:100920000C140000000083120313BB1B8B1703176A
:100930000C087F390319DC2C0313BB0003170D08C7
:100940000313BC0003170F080313BD003B08C400CA
:1009500016233C0803178D0003133D0803178F006F
:1009600003130B08BE008B13831603178C170C148C
:100970000000000083120313BE1B8B1703170C0D1E
:100980000E0D7F390319DC2C0313BB0003170D0870
:100990000313BC0003170F080313BD003B08C4007A
:1009A00016233C0803178D0003133D0803178F001F
:1009B0008D0A03198F0A892C05300313C5000230F4
:1009C000C6000423B501B401B508031D2A2D34085F
:1009D000023C031C2A2DFC237808BA000030FA00E0
:1009E00071303A02031DFB2CFA08031DFB2CFC237B
:1009F0007808BA00EE2C3408F7003508FA007A08B7
:100A0000031D052DF7080319142D7A08031D0C2D5D
:100A10000130770203191A2D7A08031D132D0230B5
:100A200077020319212D262D30303A02643EB200A0
:100A3000B301262D30303A020A3EB2070318B30A3A
:100A4000262D30303A02B2070318B30AB40A03194C
:100A5000B50AE42C0B08F7008B1303178D01031361
:100A6000320803178C0083168C130C1555308D003B
:100A7000AA308D008C148C183B2D0C117708831232
:100A800003138B048A110A12252E03081F398300D1
:100A9000FF30AB00B3011E30B200B901B801AD1494
:100AA00083161F149F141F159F1107309C0083137A
:100AB0008312AC012D10AE01AF01831681130030FB
:100AC000F800063883129200FF3083169200A5309A
:100AD0008312900083160108C739283881008312D9
:100AE0008B1683160C14C03083128B048E013C309D
:100AF0008F00AF308E00FF3081005C2AC62A2B1198
:100B00002B0883168700831207110C3097003908D1
:100B1000F9003808F800F90CF80CF90CF80CF90C8D
:100B200078089500F90C790C3039F7001708CF399F
:100B300077049700AD1CC52DAD104B3003178D0009
:100B400002308F00031007300313BB004223103024
:100B500084003108BC003008BB00992350300317D3
:100B60008D0002308F0003100A300313BB004223B4
:100B7000103084003308BC003208BB0099233A309F
:100B8000C40016232030C400162331083302031C8E
:100B9000DD2D031DCF2D320830020318DD2D39085D
:100BA000033C031CDD2D031DD92D3808FE3C031C1E
:100BB000DD2DB80A0319B90AF12D33083102031CDF
:100BC000F12D031DE72D300832020318F12DB8086E
:100BD000031DED2DB9080319F12D38080319B903C8
:100BE000B8033908F9003808F800F90CF80CF90CCA
:100BF000F80CF90C78089500F90C790C3039F700ED
:100C00001708CF3977049700FC237808BA00023020
:100C1000FA0058303A02031D1C2EFA08031D1C2E40
:100C200032083002031D1C2E33083102031D1C2E16
:100C3000FC237808BA00072E0230FA005A303A0234
:100C4000031D252EFA080319842C3230C5005F22BB
:040C50009A2D630076
:02400E00713F00
:00000001FF
;PIC16F876A
;CRC=7636  CREATED="17-jun-25 17:50"
