:1000000003308A00DE2B0000FF00030E8301A100F5
:100010000A08A0008A010408A2007708A300780853
:10002000A4007908A5007A08A60003170D08031399
:10003000A70003170F080313A80003170C080313E6
:10004000A90003170E080313AA00831383128C3030
:100050008400001C2D280C1852288B1E31280B19E7
:100060005528220884002308F7002408F8002508F2
:10007000F9002608FA00270803178D000313280843
:1000800003178F000313290803178C0003132A0892
:1000900003178E00031320088A00210E8300FF0E31
:1000A0007F0E09008A110A1222298A110A12272AB0
:1000B0004B0803191D29D7004F0803191D29D70222
:1000C000031C67287F30D70703181D296D2881304E
:1000D000D702031C1D2903191D295708F700F80131
:1000E000F901FA01D6014C08D500D5174D08D40006
:1000F0004E08D3001930D7005208D30203189028B5
:100100000130D40203189028D50203189028D60293
:1001100003189028D60AD50AD40A5208D307C22851
:100120005108D4020318AB280130D5020318AB28BC
:10013000D6020318AB28D60AD50A5108D4075208AC
:10014000D307031CC228D40A031DC228D50A031DE5
:10015000C228D60AC22850088038D5020318C12800
:100160000130D6020318C128D60A50088038D507B6
:100170005108D407031C9F28D50A031D9F28D60ABF
:100180009F287A14D70BC528D0280310D30DD40D7F
:10019000D50DD60D0310FA0DF90DF80DD80D7C28EC
:1001A000581CD8280310F80CF90CFA0CD80CDB28D2
:1001B000F70303191D29D81B04290310D30DD40DEF
:1001C000D50DD60D5208D3020318F0280130D40201
:1001D0000318F028D5020318F028D602031C1329AF
:1001E0005108D4020318FB280130D5020318FB285C
:1001F000D602031C132950088038D502031804299D
:100200000130D602031C1329FA0A031D1329F90A27
:10021000031D1329F80A031D1329F70A03191D29C1
:10022000F80CF90CFA0C4C08D7005008D706D71F69
:100230001B29F8172129F8132129F701F801F901E1
:10024000FA0108003308C8003208C7008E30F700F2
:100250004808F8004708F900FA01F808031D3A2990
:100260007908F800F9010830F702F808031D3A2967
:10027000F70142290310F81B4129F90DF80DF70386
:100280003A29F8137A08CA007908C9007808C80022
:100290007708C700CE01CD011630CC008830CB00E6
:1002A00047080319C029CF004B080319C029CF07FD
:1002B000031861297F30CF02031CC0290319C0290C
:1002C00065298130CF070318C0294F08F700F801CE
:1002D000F901FA014808D300D3174908D2004A08A7
:1002E000D1001830CF00D001511C8E294E08FA07DA
:1002F000031C8029F90A031D8029F80A0319D01765
:100300004D08F907031C8729F80A0319D0174C0870
:10031000C900C9174908F8070318D017D00DF80C01
:10032000F90CFA0CD30CD20CD10C0310CF0B73299F
:100330000130F7070318C029F81BA529D30DFA0DC2
:10034000F90DF80DF7030319C029D31FB629FA0ACE
:10035000031DB629F90A031DB629F80A031DB6299B
:10036000F80CF90CFA0CF70A0319C0294808D00058
:100370004C08D006D01FBE29F817C429F813C42989
:10038000F701F801F901FA017A08CA007908C900F1
:100390007808C8007708C7004A08CE004908CD0091
:1003A0004808CC004708CB00D201D1013430D0003E
:1003B0008730CF0058207A08CA007908C900780829
:1003C000C8007708C7004A08CE004908CD00480891
:1003D000CC004708CB00D201D101D0018030CF0042
:1003E00058207A08CA007908C9007808C800770838
:1003F000C7008E30F7004708F7024808F90049089F
:10040000F800F917F7080319102A0310F908031D5B
:100410000C2AF8080319102AF90CF80CF70B052A16
:10042000C81F172AF809F909F80A0319F90A7908FF
:10043000B1007808B000B301B201AD148E013C30B8
:100440008F00AF308E000C108A110A123128B20AC8
:100450000319B30AFF3081000B118A110A123128E7
:100460000C29653B6F36F531E937EE32731DA0126A
:10047000EC3A00003E3084008313000803194E2A32
:100480000130F800F701F70B432AF80B422A4A30F3
:10049000F700F70B492A4C2A800B402A0800450E2A
:1004A000F039F7000F3006057704860000000614C7
:1004B000592A061008000608F700060E0F39F80042
:1004C00008008316061086100611831286100F305E
:1004D00083160605F0388600831206150000061400
:1004E00000005B227808C50006100000061400001A
:1004F0005B227808C40006100F30831606058600BC
:100500008312450EF700F030F70577084404F80031
:100510007808C400C41B672A421C8610421886143F
:100520000000061100000610430EC4000F30C40581
:100530004408C5004F2243080F39C400C5004F22AC
:1005400008002830B5000C30B6000130B700063086
:10055000B8000610861006110F30831606058600B7
:100560000610861006110F308312BE003A220130A9
:10057000B4003408033C031CC52A0330C5004F22D5
:100580000530BE003A22B40AB92A0230C5004F2213
:100590000530BE003A22B4013408033C031CDC2AB7
:1005A00035303407840083130008B900C2013908CC
:1005B000C3006122B40ACC2A8A110A12072C8A11BC
:1005C0000A12082C3F0BE52AE82A4030C000E92A2D
:1005D000C00101303E02C00740088038C100C2019E
:1005E0004108C300612208003D08073A0319022BA5
:1005F0000B3A0319072B063A03190F2B023A03197A
:10060000152B1A2B0130BE00BF00E2221F2BC201A6
:100610000130C30061220230BE003A221F2B01309C
:10062000BE000230BF00E2221F2BC2011030C30007
:1006300061221F2B0130C2003D08C3006122080067
:100640000B08B5008B13831603178C170C140000CE
:10065000000083120313B51B8B170318572B0317C6
:100660000C087F390313B50003170D080313B600F8
:1006700003170F080313B7003508BD00F42236082E
:1006800003178D000313370803178F0003130B089C
:10069000B8008B13831603178C170C14000000008E
:1006A00083120313B81B8B17B40B572B762B03172E
:1006B0000C0D0E0D7F390313B50003170D0803133E
:1006C000B60003170F080313B7003508BD00F42266
:1006D000360803178D000313370803178F008D0AA0
:1006E00003198F0A03100313B40B202B8A110A126B
:1006F000152CBC010408BB003C10831B3C14350EB8
:10070000F038B700B707E23EB800323EBA0035080D
:100710000F39B807B807BA07E93EB900B907B907F2
:10072000340E0F39B907BA07B90DBA0DBA09BA0DA7
:1007300034080F39BA07B70D0730B6000A30BA07C8
:10074000B903031C9F2BB907B803031CA32BB807DD
:10075000B703031CA72BB707B603031CAB2B36301C
:100760008400831307303B053B1384073A300402AF
:1007700003193B170008F700031DC62B3B1BC62BB4
:100780003B1AD82BBB19C62B2030C92BBB153B12EB
:100790003030F707B5010408B4003510831B351459
:1007A0007708BD00F42234088400831335188317BA
:1007B000840A3B1FB62B8A110A121C2C03081F390E
:1007C0008300FF30AB00AD1483161F149F141F1558
:1007D0009F1107309C0083138312AC012D10AE01D2
:1007E000AF01A530900083160108C7392838810071
:1007F00083128B1683160C14C03083128B048E0167
:100800003C308F00AF308E00FF308100A12ADF2AFC
:10081000AD1C1C2CAD10303003178D0002308F0042
:1008200003100F300313B400202B10308400310864
:0C083000B5003008B400792B082C6300E0
:02400E00713F00
:00000001FF
;PIC16F876A
;CRC=CC56  CREATED="13-jun-25 14:07"
