:1000000004308A00982C0000FF00030E8301A10039
:100010000A08A0008A010408A2007708A300780853
:10002000A4007908A5007A08A60003170D08031399
:10003000A70003170F080313A80003170C080313E6
:10004000A90003170E080313AA00831383128C3030
:100050008400001C2D280C184E2822088400230838
:10006000F7002408F8002508F9002608FA002708F8
:1000700003178D000313280803178F0003132908A3
:1000800003178C0003132A0803178E00031320089C
:100090008A00210E8300FF0E7F0E09008A110A12CA
:1000A0008A290A108A100A11820731343234333413
:1000B0003434353436343734383439342A343034FF
:1000C00023348C24EE33F232F3320A00D630EC378C
:1000D000721752284D102810201029008316061080
:1000E00086100611831286100F3083160605F0382D
:1000F0008600831206150000061400000608F700AB
:10010000060E0F39F8007808D60006100000061415
:1001100000000608F700060E0F39F8007808D50031
:1001200006100F308316060586008312560EF70060
:10013000F030F70577085504F8007808D500D51B8E
:100140007428531C861053188614000006110000F2
:100150000610540ED5000F30D5055508D600560EA2
:10016000F039F7000F30060577048600000006140A
:10017000B928061054080F39D5005508D600560E78
:10018000F039F7000F3006057704860000000614EA
:10019000C92806100800500BCE28D1284030D100C5
:1001A000D228D10101304F02D10751088038D20046
:1001B000D3015208D4006E2008004F30840083130E
:1001C00000080319F1280130F800F701F70BE628C1
:1001D000F80BE5284A30F700F70BEC28EF28800BE6
:1001E000E32808004E08073A031900290B3A0319BF
:1001F0000529063A03190D29023A0319132918296A
:100200000130CF00D000CB201D29D3010130D40014
:100210006E200230CF00DD201D290130CF000230DA
:10022000D000CB201D29D3011030D4006E201D2911
:100230000130D3004E08D4006E2008000B08C60021
:100240008B13831603178C170C1400000000831205
:100250000313C61B8B170318552903170C087F3986
:100260000313C60003170D080313C70003170F0875
:100270000313C8004608CE00F220470803178D007C
:100280000313480803178F0003130B08C9008B13CF
:10029000831603178C170C1400000000831203133D
:1002A000C91B8B17C50B5529742903170C0D0E0D8F
:1002B0007F390313C60003170D080313C700031784
:1002C0000F080313C8004608CE00F22047080317A2
:1002D0008D000313480803178F008D0A03198F0A36
:1002E00003100313C50B1E2908004808F801470234
:1002F00003187D294708F7008929F7010830C9004C
:10030000C70DF70D480877020318F700F80DC90B61
:10031000802908000108B201B1003208C600310886
:10032000C5000430C800B030C7001030C900F70164
:10033000FA01C60CC50C031CA3294708F7070318CC
:10034000FA0A4808FA07FA0CF70CF90CF80CC90B72
:1003500099297908C6007808C5004608C8004508EC
:10036000C7000130CA006830C900F801F901F7017F
:10037000FA014A08031DBF2949080319D929103079
:10038000CB000310C70DC80DF70DFA0D4A087A020D
:10039000031DCC2949087702031CD5294908F70217
:1003A000031CFA034A08FA020314F80DF90DCB0BEB
:1003B000C1297908B2007808B1000C30CE00F220D3
:1003C000003084003208C6003108C500CD010408A1
:1003D000CC004D10831B4D14460EF038C800C807E2
:1003E000E23EC900323ECB0046080F39C907C907B3
:1003F000CB07E93ECA00CA07CA07450E0F39CA072C
:10040000CB07CA0DCB0DCB09CB0D45080F39CB0758
:10041000C80D0730C7000A30CB07CA03031C0C2ADB
:10042000CA07C903031C102AC907C803031C142ADE
:10043000C807C703031C182A4730840083130730FA
:100440004C054C1384074B30040203194C17000869
:10045000F700031D332A4C1B332A4C1A452ACC19AA
:10046000332A2030362ACC154C123030F707C6011B
:100470000408C5004610831B46147708CE00F220FE
:1004800045088400831346188317840A4C1F232AC7
:10049000A03003178D0002308F00031405300313C2
:1004A000C5001E213608C5001330C6004508C70028
:1004B0006430C80075217708C50078083030031D06
:1004C000682AC61C6F2AC6196F2A461A20306B2A62
:1004D000C61146124614F8077808CE00F2204508E7
:1004E000C7000A30C80075217708C5007808303089
:1004F000031D802AC619842A461C842A461A2030E5
:10050000F8077808CE00F2203030C5074508CE0045
:10051000F220A53003178D0002308F000314043041
:100520000313C5001E21AE1481018E01E7308F0038
:1005300096308E000C108A110A122D288C12353636
:10054000751072386D050000A519751072386D00B0
:100550002830B9000C30BA000130BB000630BC00B6
:100560000610861006110F30831606058600061049
:10057000861006118312AB018B1BAB178B130F3048
:10058000CF00DD20AB1B8B170130B8003808033CCF
:10059000031CE22A0330D600560EF039F7000F3064
:1005A00006057704860000000614D62A0610AB0163
:1005B0008B1BAB178B130530CF00DD20AB1B8B17CC
:1005C000B80AC62A0230D600560EF039F7000F30AE
:1005D00006057704860000000614EE2A0610AB011B
:1005E0008B1BAB178B130530CF00DD20AB1B8B179C
:1005F000B8013808033C031C0F2B3930380784003E
:1006000083130008BD00AB018B1BAB178B13D30109
:100610003D08D4006E20AB1B8B17B80AF92A8A114B
:100620000A12C12C8A110A12C22C0830F8000000EC
:100630008711AC112C088316870000008312C00DAF
:100640000712031C292B2C162C08831687002D2B30
:1006500083122C122C088316870000008312AC151D
:100660002C08831687008312871D342BF80B172B59
:1006700000008711AC112C0883168700000083123C
:100680002C162C0883168700000000008312AC157E
:100690002C08831687008312871D4C2BF80100005D
:1006A000071A78148711AC112C088316870083125F
:1006B00007122C122C0883168700831208002C16B0
:1006C0002C088316870000008312AC152C088316B3
:1006D00087000000831207122C122C088316870053
:1006E000000083128711AC112C088316870080301C
:1006F0008312C00015233808C00015233908C00034
:1007000015232C122C088316870000008312AC15C9
:100710002C08831687008312871D8C2B0000902BDA
:1007200000002C162C088316870000008312080096
:10073000B8013030B9005F23AB018B1BAB178B13B3
:100740000A30CF00DD20AB1B8B17FE30B80017300E
:10075000B9005F23AB018B1BAB178B130A30CF00A3
:10076000DD20AB1B8B17B801A130B9005F238A11C4
:100770000A12D22C380DF700F70DFC30F705770878
:10078000063EBD002C162C0883168700000083123D
:10079000AC152C08831687000000831207122C1258
:1007A0002C0883168700000083128711AC112C08D7
:1007B0008316870080308312C00015233D08C000D7
:1007C00015233908BE00BF013908C00015233A08B7
:1007D000BE00BF013A08C00015233B08BE00BF01A0
:1007E0003B08C00015233C08BE00BF013C08C00008
:1007F00015232C122C088316870000008312AC15D9
:100800002C08831687008312871D042C0000082CF7
:1008100000002C162C0883168700000083120800A5
:10082000B801AD0A2D08213C0318912C300803199A
:10083000202C013A0319262C033A03192C2C312CB5
:10084000DE308316860083128600312CBE3083167C
:10085000860083128600312C7E3083168600831238
:1008600086002E1C3D2C06081E391E3C031D3C2C08
:100870002E102F08B800AF01902C06081E391E3C20
:1008800003198B2C06080239031D482CB9015C2C76
:1008900006080439031D4F2C0130B9005C2C0608F2
:1008A0000839031D562C0230B9005C2C060810399B
:1008B000031D5C2C0330B9003908BA000330BB00BB
:1008C000F701F8013A0803103B18F707F70CF80C8A
:1008D000BB18F707F70CF80C3B19F707F70CF80CE7
:1008E000BB19F707F70CF80C3B1AF707F70CF80CD5
:1008F000BB1AF707F70CF80C3B1BF707F70CF80CC3
:10090000BB1BF707F70CF80C300878075120F800EC
:10091000AF002E14902CB00A3008033C0319B0012C
:10092000AD01FE308316860083123808F8000800F7
:1009300003081F398300193083169900A6309800E8
:10094000903083129800FF30AC00B201B101B401C5
:10095000B301AE1083161F149F141F159F1107308B
:100960009C0083138312AD012E10AF01B001AB01C7
:100970008B1BAB178B136430CF00DD20AB1B8B17A9
:10098000A82A122B831681130108C7392838810041
:10099000B5308312900081018E01E7308F009630D0
:1009A0008E00982BB801BA01B9013408BC00330895
:1009B000BB00BA2383160C14C03083128B040317B8
:1009C0008D0183168C130C1483120C080313B500CD
:1009D0003508033C03191D2D0B08F7008B13031773
:1009E0008D0103308C0083168C130C1555308D004F
:1009F000AA308D008C148C18FB2C0C1177088312F4
:100A000003138B04B430B6000B08F7008B130130CE
:100A100003178D000313360803178C0083168C13FD
:100A20000C1555308D00AA308D008C148C18162DA5
:100A30000C117708831203138B0437082A3C031D1B
:100A40005F2F83160C1083129501613003178D0000
:100A500000308F0003130B08B8008B1383160317A5
:100A60008C170C140000000083120313B81B8B17A3
:100A700003170C087F390319892D0313B8000317D6
:100A80000D080313B90003170F080313BA00AB01D5
:100A90008B1BAB178B133808CE00F220AB1B8B17C8
:100AA000390803178D0003133A0803178F00031347
:100AB0000B08BB008B13831603178C170C14000054
:100AC000000083120313BB1B8B1703170C0D0E0DB5
:100AD0007F390319892D0313B80003170D08031379
:100AE000B90003170F080313BA00AB018B1BAB1738
:100AF0008B133808CE00F220AB1B8B173908031775
:100B00008D0003133A0803178F008D0A03198F0A0B
:100B10002A2D66308D0000308F0003130B08B800BB
:100B20008B13831603178C170C140000000083121C
:100B30000313B81B8B1703170C087F390319EC2D0F
:100B40000313B80003170D080313B90003170F08A8
:100B50000313BA00AB018B1BAB178B133808CE0005
:100B6000F220AB1B8B17390803178D0003133A08CB
:100B700003178F0003130B08BB008B138316031797
:100B80008C170C140000000083120313BB1B8B177F
:100B900003170C0D0E0D7F390319EC2D0313B8004C
:100BA00003170D080313B90003170F080313BA0046
:100BB000AB018B1BAB178B133808CE00F220AB1B9D
:100BC0008B17390803178D0003133A0803178F009A
:100BD0008D0A03198F0A8D2D031310247808B7008E
:100BE0003708313C031DF62D0030F72D0130B800D9
:100BF0003708303C031DFE2D0030FF2D0130380535
:100C00000319062E10247808B700F02DAB018B1BBA
:100C1000AB178B130C30CF000230D000CB20AB1BB6
:100C20008B17AB018B1BAB178B133708CE00F22051
:100C3000AB1B8B1730303702B9003908BA0064306B
:100C4000BB00F701F8013A0803103B18F707F70C4F
:100C5000F80CBB18F707F70CF80C3B19F707F70C63
:100C6000F80CBB19F707F70CF80C3B1AF707F70C51
:100C7000F80CBB1AF707F70CF80C3B1BF707F70C3F
:100C8000F80CBB1BF707F70CF80C7808B60002301D
:100C9000B800AB018B1BAB178B13C830CF00DD2026
:100CA000AB1B8B17B80B492E10247808B7003608F9
:100CB000633C031C782EB7080319602E0030612EA8
:100CC0000130B80037082A3C0319682E0030692E1D
:100CD0000130B8043708233C0319702E0030712E00
:100CE000013038040319782E10247808B7005B2EE1
:100CF0003608643C031DA12E3708383C031C822EA5
:100D00000030832E0130B800B7080319892E003057
:100D10008A2E0130B80437082A3C0319912E00307E
:100D2000922E0130B8043708233C0319992E003065
:100D30009A2E013038040319A12E10247808B70028
:100D40007C2EAB018B1BAB178B130D30CF00023009
:100D5000D000CB20AB1B8B17AB018B1BAB178B13BE
:100D60003708CE00F220AB1B8B1730303702B900AA
:100D70003908BA000A30BB00F701F8013A0803103D
:100D80003B18F707F70CF80CBB18F707F70CF80C33
:100D90003B19F707F70CF80CBB19F707F70CF80C21
:100DA0003B1AF707F70CF80CBB1AF707F70CF80C0F
:100DB0003B1BF707F70CF80CBB1BF707F70CF80CFD
:100DC0007808B6070230B800AB018B1BAB178B134A
:100DD000C830CF00DD20AB1B8B17B80BE42E1024DE
:100DE0007808B7003608B43C031DFE2E3708303CA7
:100DF0000319FE2E10247808B700F62E3608B33CEF
:100E0000031C1F2FB7080319072F0030082F0130CC
:100E1000B80037082A3C03190F2F0030102F01307B
:100E2000B8043708233C0319172F0030182F01305E
:100E3000380403191F2F10247808B700022FAB01C4
:100E40008B1BAB178B130E30CF000230D000CB20A2
:100E5000AB1B8B17AB018B1BAB178B133708CE006B
:100E6000F220AB1B8B1730303702B6070B08F700A8
:100E70008B13013003178D000313360803178C0002
:100E800083168C130C1555308D00AA308D008C14F0
:100E90008C18482F0C117708831203138B0402302F
:100EA000B800AB018B1BAB178B13FA30CF00DD20E2
:100EB000AB1B8B17B80B512F83160C148312AE1C6F
:100EC000A42FAE10013003178D0083168C130C1461
:100ED00083120C080313B600B208031D892F3608CD
:100EE00031020318892F34080F3C031C892F031D7E
:100EF0007D2F3308FE3C031C892F0130B3070318F4
:100F0000B40AB801BA01B9013408BC003308BB0007
:100F1000BA23B208031D902F310836020318A42FFC
:100F2000B308031D962FB4080319A42F0130B30290
:100F30000030031C0130B402B801BA01B901340811
:100F4000BC003308BB00BA2310247808B7001D2D5D
:020F500063003C
:02400E00713F00
:00000001FF
;PIC16F876A
;CRC=457B  CREATED="19-jun.-25 13:19"
