:1000000002308A007C2A00000C22E939F430EE31FB
:10001000E9303A10253675002F308400831300082C
:10002000031920280130F800F701F70B1528F80B09
:1000300014284A30F700F70B1B281E28800B1228C3
:1000400008003618252806122628061683160612DA
:100050008312B6182D2886122E288616831686122D
:100060008312361935280613362806178316061309
:100070008312B6193D2886133E28861783168613E9
:100080000000831286158316861146288312861176
:100090008316861183120800B701831606160030F6
:1000A0008312061A0130B7048316861600308312B5
:1000B000861A0130F7000310F70D7708B70483168E
:1000C000061700308312061B0130F700F70DF70DFD
:1000D000FC30F7057708B7048316861700308312C3
:1000E000861B0130F700F70DF70DF70DF830F70517
:1000F0007708B7043708F8000800831686118610C1
:1001000006118312861083168610061686160617A9
:1001100086178312061583160611000083128615B2
:1001200083168611000083124C207808B6008611D1
:10013000831686110000831286158316861100002F
:1001400083124C207808B50086118316861106129A
:100150008612061386138312360EF700F030F70569
:1001600077083504F8007808B500B51FB92883165C
:100170008528B308031DBE288610BF288614831661
:1001800086100000831206118316061100008312E8
:100190008611831686118312340EB5000F30B50513
:1001A0003508B600212034080F39B500B6002120EB
:1001B00008002830A6000C30A7000130A800063047
:1001C000A900861183168611831286108316861065
:1001D0008312061183160611061286120613861361
:1001E0008611861006110F308312AF000C200130EB
:1001F000A5002508033C031C05290330B600212077
:100200000530AF000C20A50AF9280230B6002120E5
:100210000530AF000C20A5012508033C031C1C2958
:1002200026302507840083130008AA00B3012A089A
:10023000B4007D20A50A0C298A110A128F2A2010E9
:10024000200883168700831207140230F700F70B8B
:1002500027292A29000020102008831687008312EE
:100260000710A0142008831687008312871C3129E9
:100270008E018F018E01A01420088316870083123F
:1002800087183B290F08FA000E08F7000F087A02BA
:10029000031D42297708A1007A08A2002208A600BF
:1002A0002108A500A8013A30A700F801F901F701DB
:1002B000FA012808031D5F2927080319792910303E
:1002C000A9000310A50DA60DF70DFA0D28087A0256
:1002D000031D6C2927087702031C75292708F702DC
:1002E000031CFA032808FA020314F80DF90DA90BF0
:1002F00061297908A4007808A3008A110A12902ABB
:10030000300B832986294030B1008729B1010130A3
:100310002F02B10731088038B200B3013208B400AF
:100320007D2008002E08073A0319A0290B3A03196B
:10033000A529063A0319AD29023A0319B329B829A8
:100340000130AF00B0008021BD29B3010130B400FD
:100350007D200230AF000C20BD290130AF000230FB
:10036000B0008021BD29B3011030B4007D20BD292B
:100370000130B3002E08B4007D2008000B08A60051
:100380008B13831603178C170C14000000008312C4
:100390000313A61B8B170318F52903170C087F39C5
:1003A0000313A60003170D080313A70003170F0874
:1003B0000313A8002608AE009221270803178D001A
:1003C0000313280803178F0003130B08A9008B13CE
:1003D000831603178C170C140000000083120313FC
:1003E000A91B8B17A50BF529142A03170C0D0E0D4D
:1003F0007F390313A60003170D080313A700031783
:100400000F080313A8002608AE009221270803173F
:100410008D000313280803178F008D0A03198F0A14
:1004200003100313A50BBE298A110A129A2AAD01E3
:100430000408AC002D10831B2D14260EF038A800E4
:10044000A807E23EA900323EAB0026080F39A907F3
:10045000A907AB07E93EAA00AA07AA07250E0F398C
:10046000AA07AB07AA0DAB0DAB09AB0D25080F39D9
:10047000AB07A80D0730A7000A30AB07AA03031C7F
:100480003D2AAA07A903031C412AA907A803031CA4
:10049000452AA807A703031C492A27308400831391
:1004A00007302C052C1384072B30040203192C175A
:1004B0000008F700031D642A2C1B642A2C1A762AD4
:1004C000AC19642A2030672AAC152C123030F7079B
:1004D000A6010408A5002610831B26147708AE0089
:1004E000922125088400831326188317840A2C1F61
:1004F000542A8A110A12A12A03081F398300FF30E7
:10050000A00083161F149F141F159F1183130C1432
:100510008530831290008E018F018E01D9281F290A
:10052000043003178D0000308F0003100C300313CC
:10053000A500BE29103084002408A6002308A500C9
:0C054000172A6430AF000C208F2A6300E3
:02400E00713F00
:00000001FF
;PIC16F876
;CRC=A57F  CREATED="26-jun-25 15:13"
