:1000000002308A00CC2A0000FF00030E8301A10009
:100010000A08A0008A010408A2007708A300780853
:10002000A4007908A5007A08A60003170D08031399
:10003000A70003170F080313A80003170C080313E6
:10004000A90003170E080313AA00831383120B1EC3
:100050002B288B184C28220884002308F70024083A
:10006000F8002508F9002608FA00270803178D0074
:100070000313280803178F000313290803178C00A4
:1000800003132A0803178E00031320088A00210E89
:100090008300FF0E7F0E09008A110A124F280F08F5
:1000A000FA000E08F7000F087A02031D4F287708A0
:1000B000AC007A08AD002C082E02031D63282D0821
:1000C0002F0203196828B2142D08AF002C08AE00C7
:1000D0002D08C8002C08C700CA013A30C900F80131
:1000E000F901F701FA014A08031D792849080319A3
:1000F00093281030CB000310C70DC80DF70DFA0D73
:100100004A087A02031D862849087702031C8F28B3
:100110004908F702031CFA034A08FA020314F80D0F
:10012000F90DCB0B7B2805307802B0007908B100BF
:100130000030031C0130B10232148B108A110A12F4
:100140002B280C22E939F430EE31E9303A1025360B
:1001500075003D308400831300080319BD28013069
:10016000F800F701F70BB228F80BB1284A30F70076
:10017000F70BB828BB28800BAF2808004418C2280A
:100180000612C3280616831606128312C418CA283C
:100190008612CB2886168316861283124419D2281B
:1001A0000613D3280617831606138312C419DA28F8
:1001B0008613DB28861783168613000083128615A4
:1001C00083168611E3288312861183168611831203
:1001D0000800C5018316061600308312061A013086
:1001E000C5048316861600308312861A0130F70084
:1001F0000310F70D7708C504831606170030831225
:10020000061B0130F700F70DF70DFC30F7057708F6
:10021000C5048316861700308312861B0130F70051
:10022000F70DF70DF70DF830F7057708C504450809
:10023000F8000800831686118610061183128610B6
:10024000831686100616861606178617831206155D
:10025000831606110000831286158316861100008E
:100260008312E9207808C4008611831686110000E5
:10027000831286158316861100008312E920780800
:10028000C300861183168611061286120613861382
:100290008312440EF700F030F70577084304F800A6
:1002A0007808C300C31F562983162229C108031DDD
:1002B0005B2986105C298614831686100000831241
:1002C000061183160611000083128611831686110B
:1002D0008312420EC3000F30C3054308C400BE2082
:1002E00042080F39C300C400BE2008002830B40003
:1002F0000C30B5000130B6000630B7008611831609
:1003000086118312861083168610831206118316B7
:100310000611061286120613861386118610061120
:100320000F308312BD00A9200130B3003308033C15
:10033000031CA2290330C400BE200530BD00A92043
:10034000B30A96290230C400BE200530BD00A920A2
:10035000B3013308033C031CB9293430330784004C
:1003600083130008B800C1013808C2001A21B30A7B
:10037000A9298A110A12E32A83160510831205148B
:100380000230F700F70BC229C529000083160510BB
:10039000831205108E018F018E018A110A12FE2A26
:1003A0003E0BD329D6294030BF00D729BF010130E9
:1003B0003D02BF073F088038C000C1014008C200AD
:1003C0001A2108003C08073A0319F0290B3A0319CF
:1003D000F529063A0319FD29023A0319032A082AC6
:1003E0000130BD00BE00D0210D2AC1010130C20084
:1003F0001A210230BD00A9200D2A0130BD000230B3
:10040000BE00D0210D2AC1011030C2001A210D2AD0
:100410000130C1003C08C2001A2108000B08B400DA
:100420008B13831603178C170C1400000000831223
:100430000313B41B8B170318452A03170C087F39C5
:100440000313B40003170D080313B50003170F08B7
:100450000313B6003408BC00E221350803178D00F1
:100460000313360803178F0003130B08B7008B1311
:10047000831603178C170C1400000000831203135B
:10048000B71B8B17B30B452A642A03170C0D0E0DEF
:100490007F390313B40003170D080313B5000317C6
:1004A0000F080313B6003408BC00E2213508031717
:1004B0008D000313360803178F008D0A03198F0A66
:1004C00003100313B30B0E2A8A110A120B2BBB0164
:1004D0000408BA003B10831B3B14340EF038B600FE
:1004E000B607E23EB700323EB90034080F39B7070D
:1004F000B707B907E93EB800B807B807330E0F3998
:10050000B807B907B80DB90DB909B90D33080F39D6
:10051000B907B60D0730B5000A30B907B803031C98
:100520008D2AB807B703031C912AB707B603031C2B
:10053000952AB607B503031C992A35308400831326
:1005400007303A053A1384073930040203193A1781
:100550000008F700031DB42A3A1BB42A3A1AC62A27
:10056000BA19B42A2030B72ABA153A123030F70730
:10057000B4010408B3003410831B34147708BC00A2
:10058000E22133088400831334188317840A3A1F46
:10059000A42A8A110A12122B03081F398300FF3084
:1005A000AB003214B21483161F149F141F159F1131
:1005B0008313C03083128B040B168316011385300E
:1005C0008312900076293218FC2A0F08FA000E08D0
:1005D000F7000F087A02031DE52A7708B4007A08AD
:1005E000B5003508613C0318FE2AFF3A031DFC2ABA
:1005F0003408C93C0318FE2A3210BC29B21C122B45
:10060000B210A13003178D0000308F0003100C30A2
:100610000313B3000E2A103084003108B4003008F0
:08062000B300672AE32A63001E
:02400E00713F00
:00000001FF
;PIC16F876
;CRC=E3FC  CREATED="27-jun-25 14:29"
