:1000000000308A00182800002A30840000080319F4
:1000100017280130A100A001A00B0C28A10B0B2870
:100020004A30A000A00B12281528800B09280800D0
:1000300003081F398300FF30A40083161F149F1488
:100040001F159F1107309C001F109F101F119F113B
:100050001F1383121F179F1783169F1783121F14D6
:10006000A901A9012908033C031C8A2A290DA00023
:10007000A00DA00DF830A0051F08C73920049F006F
:100080000130AA0004201F151F19442883161E08DA
:100090008312A5001E08A600A508031D5228A60865
:1000A00003195428003055280130AA002608013CC5
:1000B000031C6028031D62282508273C03186228BA
:1000C0000030632801302A05031970288316860141
:1000D000831286010030A4008316870183128701F2
:1000E0002608003C03187B28FF3A031D7D282508BD
:1000F000273C031C7D2800307E280130AA002608FA
:10010000013C031C8928031D8B282508A23C0318E9
:100110008B2800308C2801302A0503199A28831671
:1001200086010130831286000030A4008316870107
:10013000831287012608003C0318A528FF3A031DF7
:10014000A7282508A23C031CA7280030A8280130B6
:10015000AA002608023C031CB328031DB528250865
:10016000003C0318B5280030B62801302A050319D1
:10017000C428831686010330831286000030A40051
:1001800083168701831287012608013C0318CF28B4
:10019000FF3A031DD1282508003C031CD12800305C
:1001A000D2280130AA002608023C031CDD28031DCA
:1001B000DF2825084F3C0318DF280030E0280130F5
:1001C0002A050319EE28831686010730831286005C
:1001D0000030A40083168701831287012608013CA2
:1001E0000318F928FF3A031DFB2825084F3C031C80
:1001F000FB280030FC280130AA002608023C031C22
:100200000729031D09292508953C031809290030F1
:100210000A2901302A0503191829831686010F308F
:10022000831286000030A4008316870183128701A1
:100230002608013C03182329FF3A031D2529250818
:10024000953C031C2529003026290130AA002608E8
:10025000023C031C3129031D33292508D33C031814
:1002600033290030342901302A0503194229831625
:1002700086011F30831286000030A4008316870198
:10028000831287012608013C03184D29FF3A031DFC
:100290004F292508D33C031C4F2900305029013039
:1002A000AA002608033C031C5B29031D5D292508C1
:1002B0000D3C03185D2900305E2901302A05031921
:1002C0006C29831686013F30831286000030A4001B
:1002D00083168701831287012608023C03187729B9
:1002E000FF3A031D792925080D3C031C79290030AC
:1002F0007A290130AA002608033C031C8529031D26
:1003000087292508433C03188729003088290130B4
:100310002A0503199629831686017F3083128600E9
:100320000030A40083168701831287012608023C4F
:100330000318A129FF3A031DA3292508433C031CE8
:10034000A3290030A4290130AA002608033C031C7D
:10035000AF29031DB1292508763C0318B1290030C7
:10036000B22901302A050319C02983168601FF30FE
:10037000831286000030A400831687018312870150
:100380002608023C0318CB29FF3A031DCD29250876
:10039000763C031CCD290030CE290130AA00260866
:1003A000033C031CD929031DDB292508A63C03189F
:1003B000DB290030DC2901302A050319EB298316DB
:1003C0008601FF30831286000030A4008316870167
:1003D0000130831287002608023C0318F629FF3AF1
:1003E000031DF8292508A63C031CF8290030F9292B
:1003F0000130AA002608033C031C042A031D062A18
:100400002508D43C0318062A0030072A01302A05A3
:100410000319162A83168601FF30831286000030E6
:10042000A400831687010330831287002608023C4C
:1004300003182D2AFF3A031D212A2508D43C03184E
:100440002D2A83168601FF30831286000030A40017
:1004500083168701073083128700250F3F2A26085D
:10046000033C031D3F2A83168601FF30831286005A
:100470000030A400831687010F3083128700A9087B
:10048000031D512A2412240883168700831207169D
:100490006430AA00042024122408831687008312E3
:1004A0000712290B622AA4122408831687008312DC
:1004B00087166430AA000420A4122408831687003B
:1004C000831287122908023C031D752A241324086D
:1004D00083168700831207176430AA0004202413B0
:1004E000240883168700831207132908033C031D81
:1004F000882AA41324088316870083128717643080
:10050000AA000420A41324088316870083128713EB
:08051000A90A3228312863001A
:02400E00713F00
:00000001FF
;PIC16F873A
;CRC=F951  CREATED="01-abr-25 16:00"
