:1000000004308A00EC2C0000FF00030E8301A100E5
:100010000A08A0008A010408A2007708A300780853
:10002000A4007908A5007A08A60003170D08031399
:10003000A70003170F080313A80003170C080313E6
:10004000A90003170E080313AA00831383128C3030
:100050008400001C2D280C184E2822088400230838
:10006000F7002408F8002508F9002608FA002708F8
:1000700003178D000313280803178F0003132908A3
:1000800003178C0003132A0803178E00031320089C
:100090008A00210E8300FF0E7F0E09008A110A12CA
:1000A00061280A108A100A1182073134323433343D
:1000B0003434353436343734383439342A343034FF
:1000C00023340108B200AD148E015B308F00CC30B8
:1000D0008E0081010C108A110A122D288C24EE3317
:1000E000F232F3320A0052284D1028102010290055
:1000F00052284D10D2224126A01EA012EC3A0A2905
:10010000D026A01EA012EC3A0000453084008313D4
:100110000008031999280130F800F701F70B8E2821
:10012000F80B8D284A30F700F70B94289728800B9E
:100130008B2808004C0EF039F7000F3006057704C5
:10014000860000000614A428061008000608F70020
:10015000060E0F39F80008008316061086100611E7
:10016000831286100F3083160605F038860083123E
:100170000615000006140000A6207808CC00061022
:10018000000006140000A6207808CB0006100F30EF
:1001900083160605860083124C0EF700F030F70533
:1001A00077084B04F8007808CB00CB1BB228491C19
:1001B00086104918861400000611000006104A0E29
:1001C000CB000F30CB054B08CC009A204A080F39E2
:1001D000CB00CC009A2008002830BC000C30BD00B9
:1001E0000130BE000630BF000610861006110F3029
:1001F0008316060586000610861006110F3083123E
:10020000C50085200130BB003B08033C031C1029BE
:100210000330CC009A200530C5008520BB0A042994
:100220000230CC009A200530C5008520BB013B0878
:10023000033C031C27293C303B0784008313000840
:10024000C000C9014008CA00AC20BB0A17298A11A6
:100250000A12172D8A110A12182D460B302933293C
:100260004030C7003429C70101304502C70747089D
:100270008038C800C9014808CA00AC2008004408FA
:10028000073A03194D290B3A03195229063A031963
:100290005A29023A0319602965290130C500C600B0
:1002A0002D216A29C9010130CA00AC200230C500E5
:1002B00085206A290130C5000230C6002D216A2937
:1002C000C9011030CA00AC206A290130C9004408B5
:1002D000CA00AC2008000B08BB008B138316031761
:1002E0008C170C140000000083120313BB1B8B1728
:1002F00003170C087F390319BF290313BB00031729
:100300000D080313BC0003170F080313BD003B08BF
:10031000C4003F213C0803178D0003133D08031759
:100320008F0003130B08BE008B13831603178C1763
:100330000C140000000083120313BE1B8B1703175D
:100340000C0D0E0D7F390319BF290313BB000317D2
:100350000D080313BC0003170F080313BD003B086F
:10036000C4003F213C0803178D0003133D08031709
:100370008F008D0A03198F0A03136B2903170313C8
:100380000800F701F8013D0803103E18F707F70CC5
:10039000F80CBE18F707F70CF80C3E19F707F70C26
:1003A000F80CBE19F707F70CF80C3E1AF707F70C14
:1003B000F80CBE1AF707F70CF80C3E1BF707F70C02
:1003C000F80CBE1BF707F70CF80C0800BB01AC0AD1
:1003D0002C08213C0318442A2F080319F629013A56
:1003E0000319FC29033A0319022A072ADE3083166F
:1003F000860083128600072ABE3083168600831289
:100400008600072A7E3083168600831286002D1C04
:10041000132A06081E391E3C031D122A2D102E0811
:10042000BB00AE01432A06081E391E3C03193E2AB2
:1004300006080239031D1E2ABC01322A06080439A7
:10044000031D252A0130BC00322A06080839031D85
:100450002C2A0230BC00322A06081039031D322A29
:100460000330BC003C08BD000330BE00C1212F0892
:1004700078075120F800AE002D14432AAF0A2F0848
:10048000033C0319AF01AC01FE30831686008312D2
:100490003B08F800080083160C106E308312031717
:1004A0008D0000308F0003136B21733003178D0014
:1004B00000308F0003136B21E6217808B00030086C
:1004C000313C03196B2A3008303C03196B2AE621B2
:1004D0007808B0005F2A0630C5000230C6002D2122
:1004E0003008C4003F2130303002BC00BD00643011
:1004F000BE00C1217808B1000230BB00C830C50081
:100500008520BB0B7E2AE6217808B0003108633CC9
:10051000031C992AB0080319952A30082A3C0319AC
:10052000952A3008233C031D992AE6217808B0005B
:100530008A2A3108643C031DB02A3008383C031C69
:10054000AC2AB0080319AC2A30082A3C0319AC2A9B
:100550003008233C031DB02AE6217808B0009D2A0C
:100560000730C5000230C6002D213008C4003F21ED
:1005700030303002BC00BD000A30BE00C121780816
:10058000B1070230BB00C830C5008520BB0BC32AB1
:10059000E6217808B0003108B43C031DD72A3008A2
:1005A000303C0319D72AE6217808B000CF2A310859
:1005B000B33C031CEA2AB0080319E62A30082A3C97
:1005C0000319E62A3008233C031DEA2AE6217808AD
:1005D000B000DB2A0830C5000230C6002D213008EB
:1005E000C4003F2130303002B107B4013108B300FC
:1005F0000B08F7008B1303178D0103133308031740
:100600008C0083168C130C1555308D00AA308D008C
:100610008C148C18092B0C117708831203138B048C
:1006200003178D0183168C130C1483120C0803130B
:10063000B601B5000430BB00C830C5008520BB0B37
:100640001C2B0C30C4003F2183160C1483120800AD
:100650000B08BC008B13831603178C170C140000B7
:10066000000083120313BC1B8B1703185F2B0317A7
:100670000C087F390313BC0003170D080313BD00DA
:1006800003170F080313BE003C08C4003F213D08B8
:1006900003178D0003133E0803178F0003130B0885
:1006A000BF008B13831603178C170C140000000077
:1006B00083120313BF1B8B17BB0B5F2B7E2B031700
:1006C0000C0D0E0D7F390313BC0003170D08031327
:1006D000BD0003170F080313BE003C08C4003F21F0
:1006E0003D0803178D0003133E0803178F008D0A82
:1006F00003198F0A03100313BB0B282B0800C30137
:100700000408C2004310831B43143C0EF038BE00A3
:10071000BE07E23EBF00323EC1003C080F39BF07B2
:10072000BF07C107E93EC000C007C0073B0E0F3935
:10073000C007C107C00DC10DC109C10D3B080F396C
:10074000C107BE0D0730BD000A30C107C003031C3E
:10075000A52BC007BF03031CA92BBF07BE03031CA7
:10076000AD2BBE07BD03031CB12B3D3084008313AA
:10077000073042054213840741300402031942172F
:100780000008F700031DCC2B421BCC2B421ADE2B9A
:10079000C219CC2B2030CF2BC21542123030F707B4
:1007A000BC010408BB003C10831B3C147708C40048
:1007B0003F213B08840083133C188317840A421F9F
:1007C000BC2B08000830F80000008711AB112B0883
:1007D0008316870000008312C40D0712031CF62B3A
:1007E0002B162B0883168700FA2B83122B122B084B
:1007F0008316870000008312AB152B088316870031
:100800008312871D012CF80BE42B00008711AB111C
:100810002B0883168700000083122B162B088316E3
:100820008700000000008312AB152B088316870099
:100830008312871D192CF8010000071A78148711FC
:10084000AB112B0883168700831207122B122B087B
:1008500083168700831208003B0DF700F70DFC306C
:10086000F7057708063EBE00BF013D08C101C00084
:100870003C08C301C2002B162B088316870000001A
:100880008312AB152B088316870000008312071212
:100890002B122B0883168700000083128711AB11DF
:1008A0002B088316870080308312C400E223C40122
:1008B000E2233030C400E2232B122B08831687007A
:1008C00000008312AB152B08831687008312871D47
:1008D000672C00006B2C00002B162B08831687005A
:1008E000000083122B162B0883168700000083124A
:1008F000AB152B08831687000000831207122B12FA
:100900002B0883168700000083128711AB112B0878
:100910008316870080308312C400E223FE30C400B7
:10092000E2231730C400E2232B122B088316870022
:1009300000008312AB152B08831687008312871DD6
:100940009F2C0000A32C00002B162B088316870079
:10095000000083122B162B088316870000008312D9
:10096000AB152B08831687000000831207122B1289
:100970002B0883168700000083128711AB112B0808
:100980008316870080308312C400E2233E08C4002F
:10099000E223C401E223C401E2234208C400E223AB
:1009A0004008C400E2232B122B08831687000000A6
:1009B0008312AB152B08831687008312871DDE2C4C
:1009C0000000E22C00002B162B0883168700000085
:1009D00083128A110A12F52D03081F398300FF3094
:1009E000AB00B201AD10BA010430B90083161F1478
:1009F0009F141F159F1107309C0083138312AC01B5
:100A00002D10AE01AF01A530900083160108C73943
:100A100028388100831281018E015B308F00CC3039
:100A20008E0083160C14C03083128B04EC282A2904
:100A300083168113831203178D0183168C130C14F4
:100A400083120C080313B601B500350F2A2DB60822
:100A500003194B22AD1C552DB8013208B7000C30DC
:100A6000C4003F21783003178D0000308F00031041
:100A70000B300313BB002823103084003808BC005F
:100A80003708BB007F237F3003178D0000308F00B5
:100A9000031007300313BB002823103084003608EE
:100AA000BC003508BB007F23AD1038083602031C9C
:100AB000A52D031D5F2D350837020318A52D3A0813
:100AC0000F3C031CA52D37083502BB003608BC00BF
:100AD0003808031C380FBC02BC08031D732D3B08EB
:100AE000143C0318822D3A080C3C031C822D031D74
:100AF0007D2D3908173C031C822D0A30B9070318D5
:100B0000BA0AA42D37083502BB003608BC003808E5
:100B1000031C380FBC02BC08031D922D3B08053C8A
:100B20000318A12D3A080F3C031CA12D031D9C2D79
:100B30003908F53C031CA12D0A30B9070318BA0A7D
:100B4000A42DB90A0319BA0AEF2D36083802031C7E
:100B5000EF2D031DAF2D370835020318EF2D350893
:100B60003702BB003808BC003608031C360FBC0235
:100B7000BC08031DBF2D3B08143C0318CD2DBA083B
:100B8000031DC62D3908643C0318CD2D6430B9020D
:100B90000030031C0130BA02EF2D35083702BB00CC
:100BA0003808BC003608031C360FBC02BC08031D05
:100BB000DD2D3B08053C0318EB2DBA08031DE42D81
:100BC00039080A3C0318EB2D0A30B9020030031C27
:100BD0000130BA02EF2D39080319BA03B903BB017A
:100BE0003A08BD003908BC002C2CE6217808B0007A
:0C0BF0003008233C03194B222A2D63001F
:02400E00313F40
:00000001FF
;PIC16F876A
;CRC=3443  CREATED="04-jul-25 15:01"
