:10000000B0EF09F0C9EF09F0046ED8CF05F0E0CFEA
:1000100006F00001E9CF0CF0EACF07F0E1CF08F0DD
:10002000E2CF09F0D9CF0AF0DACF0BF0F3CF12F01C
:10003000F4CF13F0FACF14F000C00EF001C00FF0AF
:1000400002C010F003C011F0F2AA2AEF00F0F2B4DF
:1000500019EF05F00EC000F00FC001F010C002F063
:1000600011C003F00CC0E9FF07C0EAFF078E08C00B
:10007000E1FF09C0E2FF0AC0D9FF0BC0DAFF12C0DE
:10008000F3FF13C0F4FF14C0FAFF045006C0E0FFF2
:1000900005C0D8FF1000F2CF0DF0F29EF76AB00F46
:1000A000F66E000EF7220900F5500DBEF28E12001A
:1000B0003132333435363738392A30230C496E67BC
:1000C000726573650A0054656D7065722E4D696EB8
:1000D00020000C496E67726573650A0054656D7087
:1000E00065722E4D617820000C496E6772657365EC
:1000F0000A0048756D2E4D696E2000000C496E6730
:10010000726573650A0048756D2E4D617820000098
:100110000C4275727269746F00000A544C3A2532B1
:10012000750054483A2532750000EA6A590EE96EA6
:10013000EF500EE0010E016E006A002EFED7012E78
:10014000FBD74A0E006E002EFED700D0EF2EF2D75E
:1001500012005B6A5C6A5B6A5B5007081EE392846C
:1001600080A4FDD7090E006E002EFED700D0928429
:1001700080A40ED0070ED8805B54016E010E006E75
:10018000015204E0D8900036012EFCD700505C12DA
:10019000928480B4FDD75B2ADFD75CC001F0E3EF27
:1001A00001F08E0E006E5AC001F059C002F0036AD1
:1001B000015209E102C001F0026A080E005E01521C
:1001C00002E1006A08D0D89001BE04D002360136A0
:1001D0000006F9D7019E12005950D8B4A5D0656F1A
:1001E0005D50D8B4A1D0655F05E37F0E6527D8B018
:1001F0009BD006D0810E655FD8A096D0D8B494D09D
:1002000065C000F0016A026A036A646B5AC063F059
:10021000638F5BC062F05CC061F0190E656F605166
:10022000615F0DE2010E625F0AE2635F08E2645FF4
:1002300006E2642B632B622B6051612728D05F504C
:10024000625F12E2010E635F0FE2645F0DE2642BF6
:10025000632B5F5062276051612719E3622B17E11E
:10026000632B15E1642B13D05E508009635F0EE2AF
:10027000010E645F0BE2642B5E50800963275F50C0
:100280006227E9E3632BE7E1642BE5D70380652F61
:1002900001D00BD0D8906137623763376437D8907C
:1002A0000336023601366637BAD766A106D0D89033
:1002B000013202320332663302D0000635E066BFF7
:1002C0001ED0D89061376237633764376051615F01
:1002D00007E2010E625F04E2635F02E2645F1AE319
:1002E0005F50625F05E2010E635F02E2645F12E34A
:1002F0005E508009635F03E2010E645F0BE3032A33
:1003000009E1022A07E1012A05E1002A0DE0013294
:10031000023203325AC065F05E50651B65AF02D0F1
:10032000018E06D0019E04D0006A016A026A036A47
:100330001200929592948984060E006E002EFED7CC
:10034000000092948994120E596EEFDE9294898483
:10035000090E006E002EFED700D0929489949285EB
:100360000C0E006E002EFED700D0000092844A6A68
:1003700080B44A2A4A5203E0010E326E94D0326AA7
:100380001A0E006E002EFED7000092844A6A80B4D6
:100390004A2A4A5203E1010E336E85D0336A0B0EAE
:1003A000006E002EFED700004B6A4B50040813E38A
:1003B000036A4B501B0F016E000E032201C059F05F
:1003C00003C05AF0C6D65AC0EAFF59C0E9FF01C0BF
:1003D000EFFF4B2AEAD79295020E006E002EFED751
:1003E00000D00000929489841C501B241D241E24DC
:1003F0004C6E4C501F5C02E0010E346E346A1BC020
:1004000050F01CC04FF01DC04EF01EC04DF04EAE5F
:1004100002D018824E9E50C05AF04FC059F0C1DE33
:1004200003C058F002C057F001C056F000C055F0AC
:100430004EC05AF04DC059F0B4DE03C054F002C0B3
:1004400053F001C052F000C051F058C05CF057C0EA
:100450005BF056C05AF055C059F0606B5F6A200ED1
:100460005E6E820E5D6EB8DE03C025F002C024F021
:1004700001C023F000C022F054C05CF053C05BF018
:1004800052C05AF051C059F0606B5F6A200E5E6E28
:10049000820E5D6EA1DE03C029F002C028F001C00B
:1004A00027F000C026F01FEF05F08150006E0038E5
:1004B0000F0B016E12000F0E9314F009936E8A84D5
:1004C00000008A800000F1DF01C05FF08A90000028
:1004D0008A800000EADF01C05EF08A900F0E93145C
:1004E000936E5F38006EF00E001600505E10016EC5
:1004F00012005F38F00B006E0F0E8A1400108A6E27
:1005000000008A8000D08A90120093909392939476
:100510008A92D1DF01C05EF001BEFBD78A925CB047
:100520008A8200008A9400008A905D385E6E0F0E09
:100530005E165EC05FF0DDDF5D500F0B5E6E5F6EBE
:10054000D8DF1200592C01D003D0400E5A6E01D0D2
:100550005A6A010E585C5A265A5080095B6E5C6AD2
:100560005D6ED3DF12005750070A07E00B0A0AE05E
:10057000060A10E0020A14E018D0010E586E596EF7
:10058000E1DF18D05C6A010E5D6EBFDF020E596EAE
:10059000CCDD10D0010E586E020E596ED3DF0AD09A
:1005A0005C6A100E5D6EB1DF05D0010E5C6E57C047
:1005B0005DF0ABDF12000900F5520CE0F6CF4AF017
:1005C000F7CF4BF0F5CF57F0CEDF4AC0F6FF4BC068
:1005D000F7FFF1D712000900F6CF4BF0F7CF4CF040
:1005E000F5CF57F0C0DF4BC0F6FF4CC0F7FF4A2EE7
:1005F000F2D712005750D8B471D0006E5B50D8B407
:100600006DD0002604E3810E002668E204D07F0E40
:10061000005E64E363E058C05FF05C505F1A588E80
:100620005C8E5A505E02F4CF61F059505D02F4CFF7
:1006300003F0F3CF60F05E02F3506127F4506023C3
:10064000000E03225A505D02F3506127F4506023DC
:10065000000E026A0322022258505E02F350602705
:10066000F4500322000E022258505D02F35003267C
:10067000F4500222000E016A01225A505C02F3502B
:100680006027F4500322000E0222012259505C021E
:10069000F3500326F4500222000E012258505C024F
:1006A000F3500226F4500122002A01BE05D0603723
:1006B0000336023601360006000E60AF0AD0032A68
:1006C00002220122015005E1025003E1035001E141
:1006D000002A5FBE018E5FAE019E04D0006A016AEF
:1006E000026A036AEFEF03F05750B608576E036AC9
:1006F00058C05BF0588ED890583259325A32033273
:10070000023201320032572EF6D75BAE0BD0001EFC
:10071000011E021E031E002AD8B4012AD8B4022AE0
:10072000D8B4032A02EF04F0D8B203D0EA6A5F0E0D
:10073000E96E006A016A026A036A5F6A606B616B54
:10074000626B5E505D105C105B102CE0200E636FDE
:10075000D8905736583659365A365F366037613733
:1007600062375E50625D08E15D50615D05E15C509D
:10077000605D02E15B505F5C0FE35B505F5E5C506D
:10078000D8A05C3C605F5D50D8A05D3C615F5E506E
:10079000D8A05E3C625FD880003601360236033650
:1007A000632FD6D75FC0EFFF60C0ECFF61C0ECFFE6
:1007B00062C0ECFF1200E9504F6E4E50516E19E0CE
:1007C0004DC05AF04CC059F04BC058F04AC057F0D9
:1007D0005E6A5D6A200E5C6E820E5B6E0BD703C094
:1007E0004DF002C04CF001C04BF000C04AF0512E59
:1007F000E7D74DC05AF04CC059F04BC058F04AC032
:1008000057F072D703C04DF002C04CF001C04BF05E
:1008100000C04AF04DAE0DD04F064F8A4A1E4B1E07
:100820004C1E4D1E4A2AD8B44B2AD8B44C2AD8B4F0
:100830004D2A3B0E566E9A0E556ECA0E546E536A72
:100840000A0E516E4E50D8B44F2AD882EA6A4A0E28
:10085000E96E4DC05AF04CC059F04BC058F04AC038
:1008600057F056C05EF055C05DF054C05CF053C008
:100870005BF05ADF015000520FE14E28515C0CE052
:100880004F500CE00F0B515C01E037E24FBE35D00A
:100890004FBC04D0200E2DD0200E4F164FAA0CD0E6
:1008A0004F9A4E50D8A44F0600504F6E2D0E576EE3
:1008B0005ADE4F50006E4F6A4E50515C0AE10050B4
:1008C0004F6E2E0E576E4FDE4F50006E200E4F169D
:1008D000000E300E4FAA0DD04F9A4E50D8A44F069E
:1008E00000504F6E2D0E576E3EDE4F50006E4F6A19
:1008F000300E002600C057F036DED89256C05AF0AF
:1009000055C059F054C058F053C057F05E6A5D6A44
:100910005C6A0A0E5B6E08DF03C056F002C055F039
:1009200001C054F000C053F0512E8FD712004D502B
:10093000016A4C5C03E24CC000F00CD0006A080E67
:100940004E6E4C3600364D50005CD8B0006E01360D
:100950004E2EF7D7120001504AC04CF0640E4D6E77
:10096000E6DF00C04AF00150300E07E14BA20CD088
:100970004BB60AD04BB8200E03D04B964B984B8009
:10098000012601C057F0EFDD4AC04CF00A0E4D6E53
:10099000CEDF00C04AF00150300E06E14BB608D061
:1009A0004BA006D04BB8200E012601C057F0DBDD6E
:1009B000300E4A264AC057F0D6DD12004CC053F024
:1009C0005050531A53AE05D0D894D8904CBED8800E
:1009D0002FD04CC053F04FC054F04B50545E06E043
:1009E00053AE26D0D850010AD86E22D050C054F051
:1009F0004C50545E06E053AE1BD0D850010AD86E5E
:100A000017D051C054F04D50545E06E053AE10D094
:100A1000D850010AD86E0CD052C054F04E50545EDB
:100A200006E053AE05D0D850010AD86E01D0D89058
:100A30001200010E3C5E3C52D8A48CD17AD4322CE8
:100A400001D002D0000E01D0010E4A6E332C01D02D
:100A500002D0000E01D0010E4A12342C01D002D077
:100A6000000E01D0010E4A100AE05E0EF66E0D0E69
:100A7000F76EA1DDD76AD66A0A0E3C6E6DD1700E94
:100A8000F66E0D0EF76E030E4A6EA5DD010EE96ED1
:100A900025C04DF024C04CF023C04BF022C04AF0DA
:100AA0004E6E89DE250E576E5EDD18A219D07C0EC3
:100AB000F66E0D0EF76E040E4A6E8DDD010EE96EB8
:100AC00029C04DF028C04CF027C04BF026C04AF09A
:100AD0004E6E71DE9E0E576E46DD430E576E43DD41
:100AE00018B219D08A0EF66E0D0EF76E030E4A6E0E
:100AF00072DD010EE96E29C04DF028C04CF027C010
:100B00004BF026C04AF04E6E56DE9E0E576E2BDD21
:100B1000430E576E28DD38521BE1960EF66E0D0E11
:100B2000F76E060E4A6E57DD36C04AF0110E4B6E58
:100B300012DFA00EF66E0D0EF76E060E4A6E4BDD3E
:100B400037C04AF0110E4B6E06DF010E386E19D019
:100B5000AA0EF66E0D0EF76E060E4A6E3CDD39C01B
:100B60004AF0110E4B6EF7DEB40EF66E0D0EF76EF8
:100B7000060E4A6E30DD3AC04AF0110E4B6EEBDEC7
:100B8000386A5A6A36C059F0D1EC00F029C04EF0EC
:100B900028C04DF027C04CF026C04BF003C052F0E7
:100BA00002C051F001C050F000C04FF007DF04E375
:100BB00094928B8294948B945A6A36C059F0D1ECFB
:100BC00000F003C04EF002C04DF001C04CF000C078
:100BD0004BF029C052F028C051F027C050F026C079
:100BE0004FF0ECDE03E202E0000E01D0010E4A6E8F
:100BF0005A6A37C059F0D1EC00F029C04EF028C035
:100C00004DF027C04CF026C04BF003C052F002C09C
:100C100051F001C050F000C04FF0D0DE03E202E01E
:100C2000000E01D0010E4A1404E094928B92949429
:100C30008B945A6A37C059F0D1EC00F003C04EF0E3
:100C400002C04DF001C04CF000C04BF029C052F082
:100C500028C051F027C050F026C04FF0AFDE04E3AB
:100C600094948B8494928B925A6A39C059F0D1EC47
:100C700000F025C04EF024C04DF023C04CF022C03F
:100C80004BF003C052F002C051F001C050F000C060
:100C90004FF094DE04E3949A8B8A94988B985A6A66
:100CA00039C059F0D1EC00F003C04EF002C04DF055
:100CB00001C04CF000C04BF025C052F024C051F0F0
:100CC00023C050F022C04FF079DE03E202E0000EB4
:100CD00001D0010E4A6E5A6A3AC059F0D1EC00F0C8
:100CE00025C04EF024C04DF023C04CF022C04BF084
:100CF00003C052F002C051F001C050F000C04FF0EC
:100D00005DDE03E202E0000E01D0010E4A1404E0B1
:100D100094988B98949A8B9A5A6A3AC059F0D1EC6D
:100D200000F003C04EF002C04DF001C04CF000C016
:100D30004BF025C052F024C051F023C050F022C027
:100D40004FF03CDE04E394988B88949A8B9A189227
:100D50001E0E3C6ED76AD66AF2942AEF00F00C455C
:100D600052524F52204445204C4543545552410065
:100D70000C483D25322E31662525000020543D2D9E
:100D800025322E3166256343000020543D25322E46
:100D90003166256343000A544D494E3A25327500A9
:100DA00020544D41583A253275000A484D494E3A73
:100DB0002532750020484D41583A253275000C53B4
:100DC000656E736F7220444854323200280E3E6EB6
:100DD0000C0E3F6E010E406E060E416E8A908A9296
:100DE0008A940F0E9314936E939093929394166A31
:100DF000F2BE168EF29E0F0E596E95EC00F016BEE6
:100E0000F28E010E3D6E3D50030816E3166AF2BEE7
:100E1000168EF29E030E5F6E79EC02F016BEF28E15
:100E2000166AF2BE168EF29E050E596E95EC00F013
:100E300016BEF28E3D2AE7D7166AF2BE168EF29ED5
:100E4000020E5F6E79EC02F016BEF28E166AF2BEEA
:100E5000168EF29E050E596E95EC00F016BEF28EBF
:100E60003D6A3D50030816E3036A3D503E0FE96EAC
:100E7000000E0320EA6EEFCF42F0166AF2BE168E25
:100E8000F29E5C6A42C05DF085EC02F016BEF28E06
:100E90003D2AE7D7C7EF09F03D6A172A1750210806
:100EA00053E21A5005E0010A07E0030A09E00BD0FB
:100EB000DE0E936E816E07D0BE0E936E816E03D0F0
:100EC0007E0E936E816E18A009D081501E0B1E08F5
:100ED00004E1189019C03DF0196A35D081501E0BFD
:100EE0001E082CE08150020B02E13E6A11D08150B5
:100EF000040B03E1010E3E6E0BD08150080B03E1A1
:100F0000020E3E6E05D08150100B02E1030E3E6EC4
:100F10003E50030DF350406A3F6E036A1A503F245F
:100F2000016E405003220150F2CF3FF0F29E4BEC95
:100F300000F03FBEF28E196E188005D01A2A1A50A2
:100F4000030801E11A6A176AFE0E936E3DC001F0B4
:100F50001200F29A206A20500308D8A035D12052FE
:100F600019E1BC0EF66E000EF76E166AF2BE168E12
:100F7000F29EDBEC02F016BEF28EC60EF66E000E8E
:100F8000F76E166AF2BE168EF29EDBEC02F016BE0B
:100F9000F28E5ED0202C1ED0D20EF66E000EF76EB2
:100FA000166AF2BE168EF29EDBEC02F016BEF28ED0
:100FB000DC0EF66E000EF76E166AF2BE168EF29E0C
:100FC000DBEC02F016BEF28E300E3B5C352635C0EF
:100FD00036F03ED0205002081EE1E80EF66E000EFC
:100FE000F76E166AF2BE168EF29EDBEC02F016BEAB
:100FF000F28EF20EF66E000EF76E166AF2BE168EC6
:10100000F29EDBEC02F016BEF28E300E3B5C352613
:1010100035C037F01DD0FC0EF66E000EF76E166A66
:10102000F2BE168EF29EDBEC02F016BEF28E060EBB
:10103000F66E010EF76E166AF2BE168EF29EDBECAD
:1010400002F016BEF28E300E3B5C352635C039F00C
:1010500023DF01C03BF03B50310802E1000E01D01C
:10106000010E3D6E3B50300802E1000E01D0010E32
:101070003D1404E011DF01C03BF0EDD7166AF2BE6B
:10108000168EF29E3BC057F0B3EC02F016BEF28E05
:10109000300E3B5C640DF3CF35F0020E3D6E166AE8
:1010A000F2BE168EF29EC80E596E95EC00F016BE7A
:1010B000F28E3D2EF4D7F0DE01C03BF035506308D0
:1010C00019E33B5202E0000E01D0010E3D6E3B5091
:1010D0002A0802E0000E01D0010E3D123B50230809
:1010E00002E0000E01D0010E3D1004E0D5DE01C08B
:1010F0003BF0E7D73550640807E13B50300804E087
:10110000CBDE01C03BF0F9D7166AF2BE168EF29E16
:101110003BC057F0B3EC02F016BEF28E300E3B5CD3
:101120000A0DF3503526020E3D6E166AF2BE168E7B
:10113000F29EC80E596E95EC00F016BEF28E3D2E52
:10114000F4D7AADE01C03BF03550640807E13B50FC
:10115000300804E0A1DE01C03BF0F9D73550630848
:1011600019E33B5202E0000E01D0010E3D6E3B50F0
:101170002A0802E0000E01D0010E3D123B50230868
:1011800002E0000E01D0010E3D1004E085DE01C03A
:101190003BF0E7D7166AF2BE168EF29E3BC057F0C0
:1011A000B3EC02F016BEF28E020E3D6E166AF2BE6F
:1011B000168EF29EFA0E596E95EC00F016BEF28E67
:1011C0003D2EF4D7202AC7D6300E3B5C352635C0DD
:1011D0003AF03750365C03E23A50395C1AE3100EAD
:1011E000F66E010EF76E166AF2BE168EF29EDBECFC
:1011F00002F016BEF28E080E3D6E166AF2BE168E14
:10120000F29EFA0E596E95EC00F016BEF28E3D2E4F
:10121000F4D73750365CD8B09DD63A50395CD8B048
:1012200099D6F250006EF29E010EA96E36C0A8FF4C
:10123000A69CA69EA6840F01550EA76EAA0EA76EA9
:10124000A682A6B2FED7A6940050F212F2CF00F00A
:10125000F29E020EA96E37C0A8FFA69CA69EA68489
:10126000550EA76EAA0EA76EA682A6B2FED7A694AA
:101270000050F212F2CF00F0F29E030EA96E39C0B8
:10128000A8FFA69CA69EA684550EA76EAA0EA76EC2
:10129000A682A6B2FED7A6940050F212F2CF00F0BA
:1012A000F29E040EA96E3AC0A8FFA69CA69EA68434
:1012B000550EA76EAA0EA76EA682A6B2FED7A6945A
:1012C0000050F2121A0EF66E010EF76E166AF2BE9A
:1012D000168EF29E040E4A6E0001EBEC02F016BE72
:1012E000F28E166AF2BE168EF29E36C04AF0110ECB
:1012F0004B6EABEC04F016BEF28E220EF66E010EB3
:10130000F76E166AF2BE168EF29E030E4A6EEBEC74
:1013100002F016BEF28E166AF2BE168EF29E35C02E
:101320004AF0110E4B6EABEC04F016BEF28EF2508A
:10133000006EF29EA96A010EA86EA69CA69EA684C7
:101340000F01550EA76EAA0EA76EA682A6B2FED7F3
:10135000A6940050F212F28AC00EF212000112009E
:10136000F86AD09E078EB896190EAF6EA60EAC6EB8
:10137000900EAB6E206AC150C00B0F09C16E070EF4
:10138000B46E1890176A1890196A1A6A1FD502EF7E
:1013900000F0BE0EF66E0D0EF76E166AF2BE168ED9
:1013A000F29EDBEC02F016BEF28E020E3D6E166A65
:1013B000F2BE168EF29EFA0E596E95EC00F016BE35
:1013C000F28E3D2EF4D7880ED56E1E0E3C6EF28A3C
:1013D000C00EF212D76AD66AF2CF3DF0F29EA96A29
:1013E000A69CA69EA680A8503DBEF28E216E212C02
:1013F00001D002D0AEDD38D0F2CF3DF0F29E010E2A
:10140000A96EA69CA69EA680A8503DBEF28E356E03
:1014100035C036F0F2CF3DF0F29E020EA96EA69CCA
:10142000A69EA680A8503DBEF28E356E35C037F020
:10143000F2CF3DF0F29E030EA96EA69CA69EA6805A
:10144000A8503DBEF28E356E35C039F0F2CF3DF07A
:10145000F29E040EA96EA69CA69EA680A8503DBE34
:10146000F28E356E35C03AF017DD01C03BF03B50CF
:0A147000230801E16EDDF8D7030048
:020000040030CA
:0E00000027C03E1E008781000FC00FE00F409A
:00000001FF
;PIC18F2550
;CRC=1542  CREATED="09-sept-25 15:27"
