:1000000007308A00702F0000FB0000307A078A005A
:100010007B080D3E03188A0A82000034003406343F
:10002000B734FE34FF34FF34FF34B63400340034C8
:100030000034003400340034003400340034093417
:100040006F34FF347F34FF34DF34E934003400345C
:1000500000340034003400340034003400340634FA
:10006000BF34FD34BF34FF34FA34F5348034003407
:1000700000340034003400340034003400341934C7
:10008000FF34FF347F34FF34EF34FA34C0340034AB
:1000900000340034003400340034003400341734A9
:1000A0005734FF34BF34FF347534BD34303400343A
:1000B000003400340034003400340034003415348B
:1000C000DF34FF34EF34FF34FE34EE34D034003408
:1000D00000340034003400340034003400342B3455
:1000E0007F34FE34BF34FF34DB347F34AC3400342F
:1000F000003400340034003400340034003436342A
:10010000FF34FF34FF34FD347F34D734D43400342B
:1001100000340034003400340034003400342D3412
:100120007F34FF34FB34FF34ED34BD34EB34003422
:1001300000340034003400340034003400345B34C4
:10014000EF34FF345734FF345B34F734F534003484
:1001500000340034003400340034003400342D34D2
:10016000BF34FF34D534FF34FE34DF345E34C03462
:1001700000340034003400340034003400345B3484
:100180007F34FC340234BF34BD34F734F53450349A
:1001900000340034003400340034003400345F3460
:1001A000D734FE3480344F34EF347D34BF34A83438
:1001B0000034003400340034003400340034763429
:1001C000BF34703400341534FF34FB34EA34D43493
:1001D00000340034003400340034003400343F3440
:1001E000EF34FA3400340A34BB34DD347F346A34FB
:1001F0000034003400340034003400340034FD3462
:10020000BB34E03400340334FF34FF34F534D534E8
:1002100080340034003400340034003400342E3490
:10022000FD346834003400346D34EE34BF347A3435
:1002300060340034003400340034003400347F343F
:10024000F7344034003401345F34FF34FB34D534A8
:1002500090340034003400340034003400347A34F4
:10026000FA34C034003400342E34F7345D34FF34B3
:1002700066340034003400340034003400347F34F9
:10028000EE348034003400345B34FF34FF34D63431
:1002900099344034003400340034003400347F3466
:1002A000FA34C034003400340D34FF34EF34FB34FE
:1002B000E634A834003400340034003400347B3495
:1002C000ED3480340034003417347B34FF34BE34D2
:1002D000F9345734D03400340034003400343F341F
:1002E000F7340034003400340134FF34FB34FF347D
:1002F000FE34B934343400340034003400347F34F4
:10030000D5340034003408340A34FF34FF34FF3469
:10031000FF34D734ED3400340034003400343B343F
:10032000F63480340034103402347F34FD34FF342A
:10033000BF34FD345A3440340034003400347F3448
:10034000ED340034003462348A34FF34FF34FF3437
:10035000FF34FF34F734E0340034003400343F34E9
:10036000F63480340034CB34F5343F34FE34FF347B
:10037000FF34FF34FF34A0340034003400343F3401
:10038000ED3400340334963439343F34FF34FF34D1
:10039000FF34FF34FD3460340034003400343F3423
:1003A000F534003400342B3404349F34FF34FF34EC
:1003B000FF34FF34FF34E0340034003400343F3481
:1003C000EC3400340234C23440341F34FF34FF3480
:1003D000FF34FE34843400340034003400341F34DD
:1003E000F53480340034203440344F34FF34FF344B
:1003F000FF34F934203400340034003400343F3406
:10040000FF34A0340034813480341F34FF34FF348F
:10041000FF34D634003400340034003400341F3448
:10042000F8345A340034043400344F34FF34FF3489
:10043000FF34FD34C03400340034003400341F3441
:10044000ED34FC348034003400348F34FF34FF3416
:10045000FF34FF34B03400340034003400341F342F
:10046000FF34EA340034003400342734FF34FF34DE
:10047000BF34FF34FE3400340034003400341F3401
:10048000FF3418340034003400344F34FF34FF3468
:10049000FF34EF34ED34C0340034003400340F3412
:1004A000FB3481340034003400342334FF34FF340F
:1004B000DF34F534BA3400340034003400340F34FF
:1004C000FC34CA340034003400348F34FF34FF3439
:1004D000BC34A0344434A0340034003400340F342D
:1004E000FA3430340034003404342134FF34FF341F
:1004F000FF345C34123400340034003400340F34E0
:10050000FC3400340034003400348B34FF34FF34C6
:10051000FA348034003400340034003400340734BA
:10052000FD3400340034003410342134FF34FF34FF
:10053000FF34013400340034003400340034073414
:10054000FE3400340034013402348B34FF34FF3481
:100550007C34A034003400340034003400340734D8
:10056000FF3400340034043400342134FF34FF34C9
:10057000FF34903400340034003400340034073445
:10058000FF3400340034013420348B34FF34FE3423
:100590006E34443400340034003400340034033406
:1005A000FF3480340034003400342334FF34FF340B
:1005B000BB34903400340034003400340034073449
:1005C000FF3480340034053400340F34FF34FC34FD
:1005D000ED3440340034003400340034003401344D
:1005E000FF34E0340034003401342334FF34FE346B
:1005F000D13428340034003400340034003403345F
:10060000FF34E0340034403400344F34FF34FD34E0
:10061000A434403400340034003400340034033453
:10062000FF34F0340034103404342734FF34FE3403
:10063000AA3400340034003400340034003401346F
:10064000FF34F8340034403429340F34FF34FF349D
:1006500040340034003400340034003400340134B9
:10066000FF34FC3400340234A0345F34FF34F634F9
:1006700094348034003400340034003400340034C6
:10068000FF34FE3400341F348A34AF34FF34FF3477
:10069000203400340034003400340034003400349A
:1006A000FF34FF340034573420341334FF34E9343A
:1006B0008234003400340034003400340034003418
:1006C000FF34FF348334F8344A34FD34FF34FA34D1
:1006D000C8340034003400340034003400340034B2
:1006E000FF34FF34E0340334A03462347F34E83420
:1006F00060340034003400340034003400340034FA
:10070000FF34FF34F034AD344234D534AF34F234F6
:10071000B034003400340034003400340034003489
:100720007F34FF34FC3412342034EA342B34E83480
:100730000A3400340034003400340034003400340F
:100740007F34FF34FE3404348534D534D734E43474
:100750008434003400340034003400340034003475
:100760003F34FF34FF3480340334AA342F34F2345E
:1007700020340034003400340034003400340034B9
:100780003F34FF34FF34E1345E34D534DB34F434A9
:1007900000340034003400340034003400340034B9
:1007A0003F34FF34FF34F43425342A345734F034E2
:1007B0008834003400340034003400340034003411
:1007C0003F34FF34FF34FF34FE34FD34AF34E434BF
:1007D0000034003400340034003400340034003479
:1007E0001F34FF34FF34FF34CB348A34DF34F13428
:1007F0000034003400340034003400340034003459
:100800001F34FF34FF34FF341F347D346F34E4343D
:100810001034003400342034003400308316880053
:10082000061283120612E20803191B2C8316861087
:10083000831286141F2C8316061083120614202C94
:10084000212C000083168801831263088800282C5D
:10085000292C000083168612831286162F2C302C2A
:1008600000008316861283128612831606108312E6
:10087000061083168610831286100800F701F8010F
:10088000400803104118F707F70CF80CC118F707D8
:10089000F70CF80C4119F707F70CF80CC119F7071A
:1008A000F70CF80C411AF707F70CF80CC11AF70708
:1008B000F70CF80C411BF707F70CF80CC11BF707F6
:1008C000F70CF80C0800201020088316870083120C
:1008D000071483168612831286128316061083125B
:1008E0000610831686108312861083160611831253
:1008F0000611E201C030E3000D240130E200C030F7
:10090000E3000D24E2014030E3000D240130E20059
:100910004030E3000D24E201B830E3000D24013043
:10092000E200B830E3000D243C0BA02CE2013F3084
:10093000E3000D240130E2003F30E3000D24A92C38
:10094000E2013E30E3000D240130E2003E30E300DE
:100950000D24BD01BE013E08073C031CEF2C83168D
:10096000061183120611E2014030E3000D2401302C
:10097000E2004030E3000D243E08B838C000E20138
:100980004008E3000D243E08B838C0000130E20002
:100990004008E3000D248316061183120615BF01DB
:1009A0003F083F3C031CED2CFF30C0003D08C10058
:1009B0003E247808C000E2017808E3000D24FF30EF
:1009C000C0003D08C1003E247808C0000130E200AC
:1009D0007808E3000D24BF0AD02CBE0AAB2C8A1184
:1009E0000A12B02FFF3083168800061283120616F3
:1009F000E1080319002D8316861083128614042D36
:100A00008316061083120614052D062D000083168A
:100A10008612831286160C2D0D2D0000FF308316D2
:100A2000880083120808E200831686128312861259
:100A30008316061083120610831686108312861002
:100A40006208F80008005F105B083F3C03182B2D7C
:100A50004030DB025F148316061183120611DB138C
:100A60005B1700305F180130E000E2005B08E30034
:100A70000D2400305F180130E0005C0CF700F70C2B
:100A8000F70C1F30F7057708BF39B838E100600868
:100A9000E2006108E3000D24831606118312061597
:100AA00000305F180130E000E100F22400305F18F0
:100AB0000130E000E100F2247808DE005D0B702DCB
:100AC0005C080739E0000130F7006008F8000319FE
:100AD0006D2D0310F70DF80B692D7708DE04802DBE
:100AE0005C080739E0000130F7006008F8000319DE
:100AF0007D2D0310F70DF80B792D7708FF3ADE05F1
:100B0000831606118312061100305F180130E000D1
:100B1000E2005B08E3000D2483160611831206151C
:100B200000305F180130E000E2005E08E3000D24B1
:100B300008000130D400D500DA014B084D02DB007B
:100B40005B08DB1FA52D5B08003CFA01D2007A0888
:100B5000D3004C084E02DB005B08DB1FB12D5B08A5
:100B6000003CFA01D0007A08D1004B084D0203186E
:100B7000BB2DFF30D4004C084E020318C12DFF30AE
:100B8000D50051085302031C0D2E031DCB2D500818
:100B90005202031C0D2E0310D00DD10D520850022D
:100BA000F7005108FA005308031C530FFA027708A4
:100BB000D6007A08D70052085602D8005708D90044
:100BC0005308031C530FD902D308031DEB2D5A08F9
:100BD0005202031C0C2E4B08DB004C08DC004F08B3
:100BE000DD002325D71FFE2D5008D6075108031816
:100BF000510FD70754084B07CB000A2E5808D607C9
:100C000059080318590FD70754084B07CB0055084C
:100C10004C07CC00DA0AE42D4E2E0310D20DD30D72
:100C200050085202F7005308FA005108031C510FF4
:100C3000FA027708D6007A08D70050085602D80082
:100C40005708D9005108031C510FD902D108031DC0
:100C50002D2E5A085002031C4E2E4B08DB004C0868
:100C6000DC004F08DD002325D71F402E5208D60791
:100C700053080318530FD70755084C07CC004C2EC8
:100C80005808D60759080318590FD70754084B07B7
:100C9000CB0055084C07CC00DA0A262E0800C0010C
:100CA000C1018030C2004030C3000130C400C50122
:100CB000C40803198B2E420840020318642E400812
:100CC000C7004208C800682E4208C7004008C80094
:100CD000430841020318712E4108C9004308CA00A5
:100CE000752E4308C9004108CA0047084802031C82
:100CF0008A2E4908C60046084A02031C882E470867
:100D0000DB004608DC004508DD002325C60A7B2EF3
:100D1000C70A752EB72E4008CB004108CC00420808
:100D2000CD004108CE004508CF0099254008CB00F2
:100D30004308CC004208CD004308CE004508CF0050
:100D400099254008CB004108CC004008CD0043085D
:100D5000CE004508CF0099254208CB004108CC00C1
:100D60004208CD004308CE004508CF0099253C0B32
:100D7000072FBD013D083F3C031C072FBE013E0865
:100D80000F3C031C052F0730BF003F08803A7F3C13
:100D90000318032FFA013D08F900790DC0007A0D00
:100DA000C100C00DC10DC00DC10DC00DC10DF03091
:100DB000C0053E084007F8004108FA000318FA0A87
:100DC00078080420C0003F08073CC1004008F70035
:100DD0004108F8000319F02E0310F70CF80BEC2E65
:100DE000771C012F3E0DF700F70DF70DF830F705D2
:100DF00077083F07C000DB003D08DC000130DD0064
:100E00002325BF03C52EBE0ABF2EBD0ABA2E3C083D
:100E1000023C031D5B2FBD013D083F3C031C5B2FC3
:100E2000BE013E080F3C031C592F0730BF003F088E
:100E3000803A7F3C0318572FFA013D08F900790DDD
:100E4000C0007A0DC100C00DC10DC00DC10DC00D97
:100E5000C10DF030C0053E084007F8004108FA0017
:100E60000318FA0A78088A1500208A11C0003F0882
:100E7000073CC1004008F7004108F8000319442F5F
:100E80000310F70CF80B402F771C552F3E0DF70081
:100E9000F70DF70DF830F70577083F07C000DB00C6
:100EA0003D08DC000130DD002325BF03172FBE0AFB
:100EB000112FBD0A0C2F08003D3084008313000859
:100EC00003196F2F0630F800F701F70B652FF80BA9
:100ED000642F7B30F700F70B6B2F800B622F08001D
:100EE00003081F398300FF30A00083161F149F14CE
:100EF0001F159F1107309C00831341308312A100FE
:100F00003530A200A3014130A4003430A500A60171
:100F10004130A7003330A800A9014130AA00323087
:100F2000AB00AC014130AD003130AE00AF0141301B
:100F3000B0003030B100B2015030B3005530B400D1
:100F40004530B5005230B6005430B7004F30B800CD
:100F50002030B9004130BA00BB010130BC00632C25
:100F60000130BC004F260830BC00FA30BD005C27C1
:100F7000BC0BB52F0230BC004F260830BC00FA3045
:0C0F8000BD005C27BC0BBF2FB02F63002E
:10100000FB0008307A078A007B08093E03188A0A29
:1010100082000034003400340034003400340034E2
:10102000003400340034003400340134FF34FF3421
:10103000FF34003400340034003400340034003411
:10104000003400341F34003400340134C034003420
:1010500000343F343E347334FF340C347E34003477
:10106000003400343F34FC340034003400340034A5
:1010700000343F34FF347B34FF349C34FE3400347E
:1010800000340034003400340134FF3400340034C0
:1010900000343334FF34FB34BF34BE34FE34003408
:1010A00000340034003400340F34FF34F0340034A2
:1010B00000343F34F134FF349934F734E0340334EE
:1010C000FF34FF34FF34E0343F34FF34FC34003469
:1010D00000343F34FF34F7349934FF34FC340F3498
:1010E000FF34FF34FF34F8347334FF34FE340034FB
:1010F00000343F343F34F7349934FF34FE341F3426
:10110000FF34FE343334F834C134FF34FF34003458
:10111000003410341F3433348834E034FE347E34E9
:101120007F34FF34F334F134D134FF34FF3480346E
:101130007C34003400340034003400340134FC3496
:101140007F34C734F734E334FF34FF34FF34803462
:101150004634003400340034003400340334F034B6
:101160007F348334FF34C334FF34FF34FF34C0345E
:10117000D734003400340034003400340F34C03429
:101180007F348334FF34C734FF34FF34FF34E0341A
:101190001E34003400340034003400341F348134F1
:1011A0003F349F34FF348F34FF34FF34FF34E03456
:1011B0001E34003400340034003400343E34013432
:1011C0003F34FF34FF340F34FF34FF34FF348034B6
:1011D0001E3400340034003440340034FC34033412
:1011E000FC34FF34FF341F34FF34FF34F834003450
:1011F0000E3400340F34EC34C0340134F934CF34BD
:10120000FD34FF34FE341F34FF34FF34C034003467
:101210000E343F34FF34FF34F0340734FF34FF34EE
:10122000FD34FF34FC341E347F347E34003400340B
:101230000E34FF34FF34FF34F6340734FF34FF3408
:10124000FD34FF34FC34383403347034003400345B
:101250000F34FF34FF34FF34F63400340F34FF34DE
:10126000FF34FF34F83438340334003400340034AD
:101270000E34FF34FF34FF34F034003400340134D2
:10128000FF34FF34E03438340034003400340034A8
:101290000E34FF34FF34FF34C034003400340034E3
:1012A000003400340034303404340034003400346A
:1012B0000E34FF34FF34FE34003400340034003484
:1012C00000340034003438346034003400340034E6
:1012D0000F34FF34FF34F034003400340034003471
:1012E000003400340034203400340034003400343E
:1012F0000134FF34FF34C03400340034003400348F
:10130000003400340034003400340034003403343A
:101310008034FF34FF3400340034003400340034AF
:101320000034003400340034003400340034073416
:10133000C034FF34FC340034003400340034003452
:1013400000340034003400340034003400340F34EE
:10135000C034FF34F034003400340034003400343E
:1013600000340034003400340034003400340F34CE
:10137000C034FF34E034003400340034003400342E
:1013800000340034003400340034003400341D34A0
:10139000C034FF34C034003400340034003400342E
:1013A00000340034003400340034003400341D3480
:1013B0009034FF34C034003400340034003400343E
:1013C00000340034003400340034003400341D3460
:1013D0009034FF34C034003400340034003400341E
:1013E00000340034003400340034003400343F341E
:1013F000B034FF34E03400340034003400340034BE
:1014000000340034003400340034003400343F34FD
:10141000E034FF34E034003400340034003400346D
:1014200000340034003400340034003400343F34DD
:10143000E034FF34F034003400340034003400343D
:1014400000340034023400340034003400343F34BB
:10145000E034FF34FE34003400340034003400340F
:1014600000340034003400340034003400347F345D
:10147000C034FF34FE340034003400343F34803450
:1014800000341F34803400340034003400347B34A2
:101490008034FE34FE343F34F8343D34FF340034BD
:1014A00000347F34C03400340034003400347B34E2
:1014B0008034FC347F347F34F8347E34F8340034A4
:1014C0000034FF34E0340034003400340034F334AA
:1014D0008034FC347E347F34F034FC34E034003427
:1014E0000134FF34F0340034003400340134F73474
:1014F0000034FC347C347F34E134F434F034003490
:1015000003347F34F0340034003400340734FF34C3
:101510000034FE347C34FF34C134FF34F8340034FA
:101520000734FF34F0340034003400343F34FE34E8
:101530000034FF347834FF34C334FF348034003453
:101540000734FF34F034003400340034F834F83415
:101550000034FF341834FF34803400340034003455
:101560000734FC34F834003400340734E0340034F9
:101570000034FF348134FF3400340034003400344C
:101580000734F934F834003400341F348034003424
:101590000034FF348034003400340034003400342C
:1015A0000F34F134F834003400347E340034003425
:1015B0000034FF34F034003400340034003400349C
:1015C0000F34F334303400340134F8340034003450
:1015D0000034FF34DF34003400340034003400348D
:1015E0000E347334703400340734C03400340034A3
:1015F0000034FE34C134E0340034003400340034AC
:101600001E346734F03400343F3400340034003486
:101610000034FE34C034603400340034003400340C
:101620001F343F3430340034FC3400340034003490
:101630000034FE34C03460340034003400340034EC
:101640003F34F93430340334E034003400340034AF
:101650000034C634E03460340034003400340034E4
:101660003D34F03430341F348034003400340034DE
:101670000034063470343F34C0340F340034003446
:101680007D34F334E0347E340034003400340034EC
:10169000003407343E343F34F0341F34E034003437
:1016A0007F34F334E334F83400341F34FC341F3413
:1016B000FC340F348F34FF34F8341F34E0340034FA
:1016C0007F34BE347F34C03400343F34FE343F3482
:1016D000FE34FF34C334FF34F8341E346034003435
:1016E000FF343C347F3400340034783400347834B0
:1016F0001E34FF34E0343F34F8340F34E034003427
:10170000FF347C34F03400340034F0340034783466
:101710001E34FF34F8340034F8340F34C03400344D
:10172000FF34FC34E03400340134E03400343F341E
:10173000F834FF34FF348034003400340034003493
:10174000FF34FF34C03400340134E134FE347F34DC
:10175000F834FF34FF34FC340034003400340034F7
:10176000FF34F334C03400340134E134FC34FF344A
:10177000FE34FF34FF34FF34F834003400340134D5
:10178000FF34DF34803400340134E0343D34E0345D
:101790003E34FF34FF34FF34FE34003400347F34F1
:1017A000FF34FF34003400340134F0343D34E0348D
:1017B0003E34FF34FF34FF34FF34FF34FF34FF3452
:1017C000FF34FC34003400340034FF34FC34FF3484
:1017D000FC34FF34FF34FF34FF34FF34FF34FF3474
:1017E000FF34F0340034003400343F34F8347F34B4
:1017F000E034FF34FF34F8341F34FF34FF34E03476
:101800000F34C03400340034003400340034003469
:021810000034A2
:02400E00723FFF
:00000001FF
;PIC16F877A
;CRC=C01A  CREATED="25-sept-25 14:05"
