:1000000005308A00332D0000FF00030E8301A50098
:100010007F08A4000A08AF008A01A40E0408A60005
:100020002008A7002108A8002208A9002308AA0088
:1000300003170D080313AB0003170F080313AC00DD
:1000400003170C080313AD0003170E080313AE00CB
:10005000831383128C308400001C30280C18552820
:100060008B1E34280B195728260884002708A00067
:100070002808A1002908A2002A08A3002B080317BA
:100080008D0003132C0803178F0003132D0803178B
:100090008C0003132E0803178E0003132F088A0009
:1000A000250E8300FF0E7F0E09008A11AB288A11EE
:1000B000BD280A108A100A118207313432343334D1
:1000C0003434353436343734383439342A343034EF
:1000D00023348C24EE33F232F3320A00D4326D38FA
:1000E0006539AE26693720142010A01400018C2435
:1000F000EE33F232F3320A00D4326D386539AE266F
:10010000613C20142010A01400010C2AE536F032C6
:10011000F230F43AF230BA12333675000C2B6136F5
:100120006F39E5398A3272396F37E53773000A2A39
:10013000ED346E1D25197500D436613CBA12B23A01
:1001400000010A2AED346E1D25197500D436613C74
:10015000BA12B23A00004510450883168700831290
:100160000714B1148E01B1308F00DF308E00EB30F8
:1001700081008B160C108A113428B11CCD28013057
:10018000B802B808031DCD2845104508831687001E
:1001900083120710B1103908B800B11C8B12EB3074
:1001A00081000B118A1134280C2AE536F032F23026
:1001B000F43AF230BA123336F51263000A2AED34FB
:1001C0006E1DA5197500D436613CBA12B33A000110
:1001D0004F30840000080319FA280630A100A0015E
:1001E000A00BF028A10BEF287B30A000A00BF62875
:1001F000800BED280800560EF039A0000F300605E0
:1002000020048600000006140230A000A00B06297E
:1002100009290000061008000608A000060E0F3984
:10022000A10008008316061086100611831286109E
:100230000F3083160605F03886008312061500007D
:10024000061400000C212108D60006100000061438
:1002500029292A2900000C212108D50006100F3079
:100260008316060586008312560EA000F030A00506
:1002700020085504A1002108D500D51B1829531CBE
:100280008610531886140000061100000610540E44
:10029000D5000F30D5055508D600FB2054080F397E
:1002A000D500D600FB2008002830C7000C30C8005D
:1002B0000130C9000630CA000610861006110F3042
:1002C0008316060586000610861006110F3083126D
:1002D000CF00E8200130C6004608033C031C782903
:1002E0000330D600FB200530CF00E820C60A6C2979
:1002F0000230D600FB200530CF00E820C6014608BA
:10030000033C031C8E294730460784000008CB00BD
:10031000D3014B08D4001221C60A7F298A11552D1A
:100320008A11562D500B952998294030D1009929D2
:10033000D10101304F02D10751088038D200D301DA
:100340005208D400122108004E08073A0319B229B6
:100350000B3A0319B729063A0319BF29023A0319C0
:10036000C529CA290130CF00D0009221CF29D3015D
:100370000130D40012210230CF00E820CF29013013
:10038000CF000230D0009221CF29D3011030D40009
:100390001221CF290130D3004E08D40012210800C9
:1003A0000B08C6008B13831603178C170C14000060
:1003B000000083120313C61B8B1703170C087F3929
:1003C0000319242A0313C60003170D080313C700DB
:1003D00003170F080313C8004608CE00A4214708DE
:1003E00003178D000313480803178F0003130B082E
:1003F000C9008B13831603178C170C140000000020
:1004000083120313C91B8B1703170C0D0E0D7F39B5
:100410000319242A0313C60003170D080313C7008A
:1004200003170F080313C8004608CE00A42147088D
:1004300003178D000313480803178F008D0A031953
:100440008F0A0313D029031703130800A001A10189
:10045000480803104918A007A00CA10CC918A00750
:10046000A00CA10C4919A007A00CA10CC919A00748
:10047000A00CA10C491AA007A00CA10CC91AA00736
:10048000A00CA10C491BA007A00CA10CC91BA00724
:10049000A00CA10C0800C601B00A3008213C0318CA
:1004A000A92A330803195B2A013A0319612A033A7E
:1004B0000319672A6C2ADE308316860083128600B1
:1004C0006C2ABE3083168600831286006C2A7E302A
:1004D0008316860083128600311C782A06081E398E
:1004E0001E3C031D772A31103208C600B201A82A2B
:1004F00006081E391E3C0319A32A06080239031DEB
:10050000832AC701972A06080439031D8A2A013065
:10051000C700972A06080839031D912A0230C70030
:10052000972A06081039031D972A0330C700470889
:10053000C8000330C9002622330821075920A10032
:10054000B2003114A82AB30A3308033C0319B301DB
:10055000B001FE308316860083124608A100080011
:100560008E30A0004708A1004608A200A301A10800
:10057000031DC42A2208A100A2010830A002A1087C
:10058000031DC42AA001CC2A0310A11BCB2AA20D53
:10059000A10DA003C42AA1130800460803193D2B8E
:1005A000CE004A0803193D2BCE070318DE2A7F3000
:1005B000CE02031C3D2B03193D2BE22A8130CE07CE
:1005C00003183D2B4E08A000A101A201A30147087A
:1005D000D200D2174808D1004908D0001830CE0008
:1005E000CF01501C0B2B4D08A307031CFD2AA20AA8
:1005F000031DFD2AA10A0319CF174C08A207031CEB
:10060000042BA10A0319CF174B08C800C8174808C4
:10061000A1070318CF17CF0DA10CA20CA30CD20C6D
:10062000D10CD00C0310CE0BF02A0130A007031818
:100630003D2BA11B222BD20DA30DA20DA10DA003BA
:1006400003193D2BD21F332BA30A031D332BA20A00
:10065000031D332BA10A031D332BA10CA20CA30CE9
:10066000A00A03193D2B4708CF004B08CF06CF1F28
:100670003B2BA117412BA113412BA001A101A201EA
:10068000A30108004A080319072CD6004E080319D5
:10069000072CD602031C512B7F30D6070318072CDA
:1006A000572B8130D602031C072C0319072C560840
:1006B000A000A101A201A301D5014B08D400D417C9
:1006C0004C08D3004D08D2001930D6005108D20290
:1006D00003187A2B0130D30203187A2BD4020318A3
:1006E0007A2BD50203187A2BD50AD40AD30A5108DB
:1006F000D207AC2B5008D3020318952B0130D4023B
:100700000318952BD5020318952BD50AD40A500847
:10071000D3075108D207031CAC2BD30A031DAC2B03
:10072000D40A031DAC2BD50AAC2B4F088038D40259
:100730000318AB2B0130D5020318AB2BD50A4F0899
:100740008038D4075008D307031C892BD40A031D13
:10075000892BD50A892B2314D60BAF2BBA2B031068
:10076000D20DD30DD40DD50D0310A30DA20DA10DE7
:10077000D70D662B571CC22B0310A10CA20CA30C87
:10078000D70CC52BA0030319072CD71BEE2B031086
:10079000D20DD30DD40DD50D5108D2020318DA2B8A
:1007A0000130D3020318DA2BD4020318DA2BD50256
:1007B000031CFD2B5008D3020318E52B0130D40293
:1007C0000318E52BD502031CFD2B4F088038D402FB
:1007D0000318EE2B0130D502031CFD2BA30A031DC9
:1007E000FD2BA20A031DFD2BA10A031DFD2BA00A50
:1007F0000319072CA10CA20CA30C4B08D6004F0820
:10080000D606D61F052CA1170B2CA1130B2CA0016B
:10081000A101A201A30108008E30A0004608A00299
:100820004708A2004808A100A217A0080319232C1A
:100830000310A208031D1F2CA1080319232CA20CCE
:10084000A10CA00B182CC71F2A2CA109A209A10AD0
:100850000319A20A08000B08C7008B13831603179D
:100860008C170C140000000083120313C71B8B1796
:100870000318622C03170C087F390313C7000317F2
:100880000D080313C80003170F080313C900470816
:10089000CE00A421480803178D000313490803174D
:1008A0008F0003130B08CA008B13831603178C17D2
:1008B0000C140000000083120313CA1B8B17C60B15
:1008C000622C812C03170C0D0E0D7F390313C7000A
:1008D00003170D080313C80003170F080313C900FB
:1008E0004708CE00A421480803178D0003134908C8
:1008F00003178F008D0A03198F0A03100313C60B09
:100900002B2C08000408CD00470EF038C900C90799
:10091000E23ECA00323ECC0047080F39CA07CA0778
:10092000CC07E93ECB00CB07CB07460E0F39CB07F0
:10093000CC07CB0DCC0DCC09CC0D46080F39CC071C
:10094000C90D0730C8000A30CC07CB03031CA42C08
:10095000CB07CA03031CA82CCA07C903031CAC2C71
:10096000C907C803031CB02C4830840007304D056C
:100970004D1384074C30040203194D170008A000E2
:10098000031DCA2C4D1BCA2C4D1AD62CCD19CA2CAE
:100990002030CD2CCD154D123030A007C7010408F2
:1009A000C6002008CE00A42146088400840A4D1FFA
:1009B000BA2C08004908A10148020318E22C480893
:1009C000A000EE2CA0010830CA00C80DA00D4908F7
:1009D00020020318A000A10DCA0BE52C0800210875
:1009E0004608C8006430C900DA242008C60021087F
:1009F0003030031D022DC71C092DC719092D471AB8
:100A00002030052DC71147124714A1072108CE0039
:100A1000A4214608C8000A30C900DA242008C6000C
:100A200021083030031D1A2DC7191E2D471C1E2DFD
:100A3000471A2030A1072108CE00A4213030C60774
:100A40004608CE00A42108000330C602031C312D45
:100A50004630840000080319312D2F2D2F2D800BD7
:100A60002E2D8A11722D03081F3983001930B8000A
:100A7000B900FF30C50083161F149F141F159F1166
:100A800007309C008312B0013110B201B30183160C
:100A90001F149F141F159F151F1383121F179F17D5
:100AA00083169F1783121F145429902983168113CC
:100AB000831203178D0183168C130C1483120C08F8
:100AC0000313B700370B652D692D8A1500208A1195
:100AD000622D0030A1001F08C73921049F00C830D3
:100AE000C600242D1F151F19732D83161E0883128F
:100AF000BE001E08BF003F08C7003E08C600B02267
:100B00002308C9002208C8002108C7002008C60021
:100B1000CD01CC017A30CB008630CA00CD2223082B
:100B2000C9002208C8002108C7002008C600230801
:100B3000CD002208CC002108CB002008CA00D1013A
:100B4000D001CF018930CE0042232308C300220800
:100B5000C2002108C1002008C0004308C9004208A3
:100B6000C8004108C7004008C6000C24BF01210886
:100B7000BE003F08BD003E08BC00D43003178D0006
:100B800000308F0003100D300313C6002B240230F9
:100B900084003F08C7003E08C6008224DF30CE0034
:100BA000A421013003178D0083168C130C148312BB
:100BB0000C080313B4003408B500DE3003178D00B1
:100BC00000308F00031006300313C6002B243408B6
:100BD000C6001330C700EF24023003178D008316C0
:100BE0008C130C1483120C080313B4003408B600E1
:100BF0000930CF000230D0009221E33003178D007E
:100C000000308F00031005300313C6002B24340876
:100C1000C6001330C700EF24853090008E01B1303C
:100C20008F00DF308E0083160C140108C739083896
:100C30008100EB30831281008B16C0308B0445108D
:100C400045088316870083120714B1144B2221082C
:100C5000C4004408233C031D302E8A1500208A114D
:100C60001F151F19312E83161E088312BE001E0881
:100C7000BF003F08C7003E08C600B0222308C900D5
:100C80002208C8002108C7002008C600CD01CC01F9
:100C9000CB018730CA00CD222308C9002208C80032
:100CA0002108C7002008C6002308CD002208CC0078
:100CB0002108CB002008CA00D101D001CF01893022
:100CC000CE0042232308C3002208C2002108C1002D
:100CD0002008C0004308C9004208C8004108C700F6
:100CE0004008C6000C24BF012108BE003E083C029B
:100CF000031D7E2E3F083D0203198E2E3F08BD00C6
:100D00003E08BC000D30CF000130D00092210230EF
:100D100084003F08C7003E08C6008224BF08031DA8
:100D2000952E3E0835020318982E1930B9009A2ED8
:0E0D30000530B9000A30CF00E820262E6300FF
:101000008B12693003178D0000308F008A11031393
:10101000D0218A156E3003178D0000308F008A11A1
:101020000313D0218A158A114B228A152108C40086
:101030004408313C031D1E2800301F280130C60023
:101040004408303C031D262800302728013046057F
:10105000031930288A114B228A152108C400182848
:101060000D30CF000230D0008A1192218A15440839
:10107000CE008A11A4218A1530304402C700C8006E
:101080006430C9008A1126228A152108B400023072
:10109000C600C830CF008A11E8208A15C60B49283F
:1010A0008A114B228A152108C4003408633C031CB2
:1010B0007828C40803195E2800305F280130C60074
:1010C00044082A3C03196628003067280130C6040A
:1010D0004408233C03196E2800306F280130460471
:1010E000031978288A114B228A152108C40059282F
:1010F0003408643C031DA3284408353C031C8228A3
:10110000003083280130C600C40803198928003044
:101110008A280130C60444082A3C0319912800306B
:1011200092280130C6044408233C03199928003052
:101130009A28013046040319A3288A114B228A15E4
:101140002108C4007C280E30CF000230D0008A1164
:1011500092218A154408CE008A11A4218A153030C4
:101160004402C700C8000A30C9008A1126228A1525
:101170002108B4070230C600C830CF008A11E82029
:101180008A15C60BBC288A114B228A152108C40077
:101190003408963C031DD6284408303C0319D62851
:1011A0008A114B228A152108C400CC283408953CAA
:1011B000031CF928C4080319DF280030E028013097
:1011C000C60044082A3C0319E7280030E82801300B
:1011D000C6044408233C0319EF280030F0280130EE
:1011E00046040319F9288A114B228A152108C400E4
:1011F000DA280F30CF000230D0008A1192218A15F0
:101200004408CE008A11A4218A1530304402B40764
:101210003408B5000430C600C830CF008A11E82079
:101220008A15C60B0C29773003178D0000308F000C
:101230008A110313D0218A157C3003178D000030EA
:101240008F008A110313D0218A158A114B228A1527
:101250002108C4004408313C031D302900303129E5
:101260000130C6004408303C031D382900303929BC
:1012700001304605031942298A114B228A1521089B
:10128000C4002A290D30CF000230D0008A119221EB
:101290008A154408CE008A11A4218A1530304402F0
:1012A000C700C8006430C9008A1126228A152108A7
:1012B000B4000230C600C830CF008A11E8208A1579
:1012C000C60B5B298A114B228A152108C4003408F9
:1012D000633C031C8A29C408031970290030712952
:1012E0000130C60044082A3C0319782900307929C6
:1012F0000130C6044408233C0319802900308129A9
:101300000130460403198A298A114B228A152108C3
:10131000C4006B293408643C031DB5294408353CDE
:10132000031C9429003095290130C600C408031914
:101330009B2900309C290130C60444082A3C03192B
:10134000A3290030A4290130C6044408233C031912
:10135000AB290030AC29013046040319B5298A11A4
:101360004B228A152108C4008E290E30CF0002308E
:10137000D0008A1192218A154408CE008A11A42136
:101380008A1530304402C700C8000A30C9008A11EB
:1013900026228A152108B4070230C600C830CF00C3
:1013A0008A11E8208A15C60BCE298A114B228A158C
:1013B0002108C4003408963C031DE8294408303C49
:1013C0000319E8298A114B228A152108C400DE2955
:1013D0003408953C031C0B2AC4080319F12900307A
:1013E000F2290130C60044082A3C0319F9290030CB
:1013F000FA290130C6044408233C0319012A0030AD
:10140000022A0130460403190B2A8A114B228A153D
:101410002108C400EC290F30CF000230D0008A111F
:1014200092218A154408CE008A11A4218A153030F1
:101430004402B4073408B6000430C600C830CF00F8
:101440008A11E8208A15C60B1E2A0030A1001F0849
:10145000C73921049F002030A000A00B2D2A302A7C
:1014600000001F151F19322A83161E088312BE00A2
:101470001E08BF003F08C7003E08C6008A11B02200
:101480008A152308C9002208C8002108C7002008BF
:10149000C600CD01CC017A30CB008630CA008A115B
:1014A000CD228A152308C9002208C8002108C700D8
:1014B0002008C6004908CD004808CC004708CB00EA
:1014C0004608CA00D101D001CF018930CE008A116F
:1014D00042238A152308C3002208C2002108C10044
:1014E0002008C0004308C9004208C8004108C700DE
:1014F0004008C6008A110C248A15BF012108BE00CD
:10150000853003178D0000308F0003100D3003135A
:10151000C6008A112B248A15023084003F08C700B8
:101520003E08C6008A1182248A1503178D0183168E
:101530008C130C1483120C080313B7003608350201
:10154000031CB72A370BA52AB72A8E3003178D0044
:1015500000308F008A110313D0218A150830C6008D
:10156000FA30CF008A11E8208A15C60BB02A360857
:10157000350203182E2B370BBE2AD62A0B08A000E3
:101580008B1303178D0101308C0083168C130C15FF
:1015900055308D00AA308D008C148C18CD2A0C117A
:1015A0008312031320088B040130B7000B08A0003E
:1015B0008B13013003178D000313350803178C00BC
:1015C00083168C130C1555308D00AA308D008C14A9
:1015D0008C18E82A0C118312031320088B040B08C3
:1015E000A0008B13023003178D0003133608031776
:1015F0008C0083168C130C1555308D00AA308D008D
:101600008C148C18012B0C118312031320088B04EB
:10161000973003178D0000308F000310063003133E
:10162000C6008A112B248A153508C6001130C70060
:101630008A11EF248A159C3003178D0000308F002B
:10164000031005300313C6008A112B248A153408B1
:10165000C6001130C7008A11EF248A1536083502FA
:10166000031C722B370B722B013003178D0083166E
:101670008C130C1483120C080313B4003408B50047
:10168000A13003178D0000308F00031006300313C4
:10169000C6008A112B248A153408C6001130C700F1
:1016A0008A11EF248A15023003178D0083168C13DC
:1016B0000C1483120C080313B4003408B600A630CF
:1016C00003178D0000308F00031005300313C60090
:1016D0008A112B248A153408C6001130C7008A11DC
:0C16E000EF248A158B16C0308B04080024
:02400E00723FFF
:00000001FF
;PIC16F873A
;CRC=F8FB  CREATED="11-abr-25 15:20"
