:1000000005308A00E92D00008C296537F33772101E
:10001000442454193200202ABD162519AE18E612C0
:10002000E32100004C308400000803192428063026
:10003000A100A001A00B1A28A10B19287B30A00059
:10004000A00B2028800B17280800500EF039A000C4
:100050000F30060520048600000006140230A000C0
:10006000A00B302833280000061008000608A00066
:10007000060E0F39A100080083160610861006111F
:10008000831286100F3083160605F038860083121F
:10009000061500000614000036202108D0000610C6
:1000A0000000061453285428000036202108CF00F1
:1000B00006100F308316060586008312500EA0002E
:1000C000F030A00520084F04A1002108CF00CF1B6D
:1000D00042284D1C86104D188614000006110000A1
:1000E00006104E0ECF000F30CF054F08D000252050
:1000F0004E080F39CF00D000252008002830BE0060
:100100000C30BF000130C0000630C1000610861060
:1001100006110F308316060586000610861006119C
:100120000F308312CC0012200130BD003D08033C8B
:10013000031CA2280330D00025200530CC0012205B
:10014000BD0A96280230D00025200530CC001220B0
:10015000BD013D08033C031CB8283E303D07840028
:100160000008C200CD014208CE003C20BD0AA928EB
:100170008A11FD2D4A0BBD28C0284030CB00C12874
:10018000CB0101304902CB074B088038CC00CD01B0
:100190004C08CE003C2008004808073A0319DA282A
:1001A0000B3A0319DF28063A0319E728023A031924
:1001B000ED28F2280130C900CA00BA20F728CD0185
:1001C0000130CE003C200230CC001220F728013054
:1001D000C9000230CA00BA20F728CD011030CE0085
:1001E0003C20F7280130CD004808CE003C20080014
:1001F0000B08BD008B13831603178C170C1400001B
:10020000000083120313BD1B8B1703170C087F39E3
:1002100003194C290313BD0003170D080313BE0077
:1002200003170F080313BF003D08C800CC203E0889
:1002300003178D0003133F0803178F0003130B08E8
:10024000C0008B13831603178C170C1400000000DA
:1002500083120313C01B8B1703170C0D0E0D7F3970
:1002600003194C290313BD0003170D080313BE0027
:1002700003170F080313BF003D08C800CC203E0839
:1002800003178D0003133F0803178F008D0A03190E
:100290008F0A0313F828031703138A11042E8E30D4
:1002A000A0004D08A1004C08A200A301A108031D55
:1002B00063292208A100A2010830A002A108031DA1
:1002C0006329A0016B290310A11B6A29A20DA10DAE
:1002D000A0036329A11308004C080319312AD80090
:1002E00050080319312AD802031C7B297F30D80714
:1002F0000318312A81298130D802031C312A0319BD
:10030000312A5808A000A101A201A301D7014D087C
:10031000D600D6174E08D5004F08D4001930D800A3
:100320005308D4020318A4290130D5020318A429C4
:10033000D6020318A429D7020318A429D70AD60A7B
:10034000D50A5308D407D6295208D5020318BF2965
:100350000130D6020318BF29D7020318BF29D70AD4
:10036000D60A5208D5075308D407031CD629D50A44
:10037000031DD629D60A031DD629D70AD629510826
:100380008038D6020318D5290130D7020318D529A1
:10039000D70A51088038D6075208D507031CB3295D
:1003A000D60A031DB329D70AB3292314D80BD92998
:1003B000E4290310D40DD50DD60DD70D0310A30DD0
:1003C000A20DA10DD90D9029591CEC290310A10CE7
:1003D000A20CA30CD90CEF29A0030319312AD91BB5
:1003E000182A0310D40DD50DD60DD70D5308D402FD
:1003F0000318042A0130D5020318042AD602031870
:10040000042AD702031C272A5208D50203180F2AF0
:100410000130D60203180F2AD702031C272A5108DD
:100420008038D6020318182A0130D702031C272A65
:10043000A30A031D272AA20A031D272AA10A031DB6
:10044000272AA00A0319312AA10CA20CA30C4D08DB
:10045000D8005108D806D81F2F2AA117352AA11372
:10046000352AA001A101A201A301080083160511EC
:100470000511831205152030A000A00B3D2A402A4B
:10048000000083160511831205111230CC001220D2
:1004900083160511831205154230A000A00B4E2AC9
:1004A00000008316051542308312A000A00B562AC7
:1004B0000000831605158312BD010519BD0ABD088C
:1004C0000319652A0130BA00262BBA018430A00036
:1004D000A00B682A6B2A0000831605158312BD0144
:1004E0000519BD0ABD08031D782A0130BB00262B63
:1004F000BB018430A000A00B7B2A7E2A0000BE0135
:100500003E08043C031CBA2A24303E07CC00CD012F
:10051000CE01CD014D08073C031CB22A83160515F8
:100520008312051D8E2A3130A000A00B952A982A2F
:10053000831605158312051DAB2A4D08073CA10043
:100540000130A000A1080319A92A0310A00DA10BD6
:10055000A52A2008CE048316051583120519AB2A97
:10056000CD0A8A2A4E08A1004C0884002108800088
:10057000BE0A802A8316051110308312A000A00B3A
:10058000BF2A0000831605118312051525082407CC
:1005900026072707BF003F0828020319D12A013088
:1005A000BC00BC012408C3002508C2002608C10005
:1005B0002708C000C11FDE2A2914C1134308CD003B
:1005C0004208CC004F212308CB002208CA00210892
:1005D000C9002008C8004108CD004008CC004F21C8
:1005E0002308C7002208C6002108C5002008C4004F
:1005F0004B08CF004A08CE004908CD004808CC007F
:10060000D301D2012030D1008230D0006C212308E8
:10061000AD002208AC002108AB002008AA00470862
:10062000CF004608CE004508CD004408CC00D301D9
:10063000D2012030D1008230D0006C212308B100DB
:100640002208B0002108AF002008AE0008004808CA
:100650000319972BD0004C080319972BD0070318C8
:10066000382B7F30D002031C972B0319972B3C2B80
:100670008130D0070318972B5008A000A101A201D8
:10068000A3014908D400D4174A08D3004B08D2006C
:100690001830D000D101521C652B4F08A307031C52
:1006A000572BA20A031D572BA10A0319D1174E0875
:1006B000A207031C5E2BA10A0319D1174D08CA001B
:1006C000CA174A08A1070318D117D10DA10CA20C13
:1006D000A30CD40CD30CD20C0310D00B4A2B01303A
:1006E000A0070318972BA11B7C2BD40DA30DA20DE3
:1006F000A10DA0030319972BD41F8D2BA30A031D53
:100700008D2BA20A031D8D2BA10A031D8D2BA10C7D
:10071000A20CA30CA00A0319972B4908D1004D087D
:10072000D106D11F952BA1179B2BA1139B2BA001A9
:10073000A101A201A30108004808B63CC800A3011A
:100740004908CC00C9170310C90CCA0CCB0CA30C68
:10075000A20CA10CA00CC80BA32BCC1FBA2BA00978
:10076000A109A209A309A00A0319A10A0319A20A4F
:100770000319A30A08008318BF2B50308400A0017E
:10078000A101A201A301D001D101D201D3014F08DF
:100790004E044D044C040319FD2B2030D4000310EB
:1007A000C80DC90DCA0DCB0DD00DD10DD20DD30D75
:1007B0004F085302031DE62B4E085202031DE62B81
:1007C0004D085102031DE62B4C085002031CF72B69
:1007D0004C08D0024D08031C4D0FD1024E08031CDB
:1007E0004E0FD2024F08031C4F0FD3020314A00D6B
:1007F000A10DA20DA30DD40BCF2B50088000840AAD
:1008000051088000840A52088000840A530880003E
:1008100008000408C2004108C3000319282C40083E
:10082000CB003F08CA003E08C9003D08C800CF0100
:10083000CE012030CD008230CC0027232308C00019
:100840002208BF002108BE002008BD00C30B0F2CEA
:100850004008CB003F08CA003E08C9003D08C80058
:100860009C232308C0002208BF002108BE002008E6
:10087000BD00C01F482CC203C216BD09BE09BF0976
:10088000C009BD0A0319BE0A0319BF0A0319C00A29
:100890003B30C7009A30C600CA30C500C4010A30D8
:1008A000C30041080319C20A83143D308400400884
:1008B000CB003F08CA003E08C9003D08C8004708F1
:1008C000CF004608CE004508CD004408CC00BB232D
:1008D0002108A008031D7F2C410A430203197F2C25
:1008E00042080319812C0F3943020319792C03188C
:1008F000B12CC21BB12C421B812C2030AD2C2030DE
:10090000C205C21E8F2CC2124108031DC20320085B
:10091000C2002D30C800CC204208A000C20141080E
:100920004302031D9D2C2008C2002E30C800CC209D
:100930004208A0002030C20500303030C21EAD2C6D
:10094000C2124108031DC2032008C2002D30C80096
:10095000CC204208A000C2013030A0072008C80007
:10096000CC2083104708CB004608CA004508C900C0
:100970004408C800CF01CE01CD010A30CC00BB2312
:100980002308C7002208C6002108C5002008C400AB
:10099000C30B542C08000408C2004108C30003190B
:1009A000EA2C4008CB003F08CA003E08C9003D08B9
:1009B000C800CF01CE012030CD008230CC002723EB
:1009C0002308C0002208BF002108BE002008BD0087
:1009D000C30BD12C4008CB003F08CA003E08C90019
:1009E0003D08C8009C232308C0002208BF0021083E
:1009F000BE002008BD00C01F0A2DC203C216BD09DB
:100A0000BE09BF09C009BD0A0319BE0A0319BF0AFE
:100A10000319C00A3B30C7009A30C600CA30C5006F
:100A2000C4010A30C30041080319C20A83143D30CF
:100A300084004008CB003F08CA003E08C9003D08BA
:100A4000C8004708CF004608CE004508CD0044083E
:100A5000CC00BB232108A008031D412D410A4302FD
:100A60000319412D42080319432D0F39430203197D
:100A70003B2D0318772DC21B772D421B432D2030B1
:100A8000722D2030C205C21E522DC2124108031D14
:100A9000C2032008C2002D300C1E4C2D99004208C4
:100AA000A000C20141084302031D612D2008C200BD
:100AB0002E300C1E592D99004208A0002030C2058E
:100AC00000303030C21E722DC2124108031DC20315
:100AD0002008C2002D300C1E6B2D99004208A0008A
:100AE000C2013030A00720080C1E742D990083101D
:100AF0004708CB004608CA004508C9004408C8009A
:100B0000CF01CE01CD010A30CC00BB232308C700A2
:100B10002208C6002108C5002008C400C30B162DFA
:100B200008000B08BE008B13831603178C170C14D8
:100B30000000000083120313BE1B8B170318C82D7F
:100B400003170C087F390313BE0003170D080313A6
:100B5000BF0003170F080313C0003E08C800CC20D5
:100B60003F0803178D000313400803178F0003137A
:100B70000B08C1008B13831603178C170C1400008D
:100B8000000083120313C11B8B17BD0BC82DE72D6B
:100B900003170C0D0E0D7F390313BE0003170D084C
:100BA0000313BF0003170F080313C0003E08C8005B
:100BB000CC203F0803178D000313400803178F0054
:100BC0008D0A03198F0A03100313BD0B912D8A118F
:100BD000662E03081F398300813083169900A630E2
:100BE000980090308312980083161F149F141F15CD
:100BF0009F1107309C0083127E28043003178D005C
:100C000000308F000313F8280230BD00FA30CC000A
:100C10001220BD0B062E36220A30CC0012203A0BD1
:100C2000122E142E0030152E0130BD003B0B192E54
:100C30001B2E00301C2E0130BD043C0B202E222E1A
:100C40000030232E01303D040319282E36220F2EAA
:100C50000C30C800CC204830C800CC203D30C80043
:100C6000CC20013084002D08C0002C08BF002B08C8
:100C7000BE002A08BD000130C10009242530C8008B
:100C8000CC2048300C1E422E99003D300C1E462EC2
:100C90009900013084002D08C0002C08BF002B08EB
:100CA000BE002A08BD000130C100CB2425300C1E37
:100CB000572E9900291C962E0B3003178D000030FB
:100CC0008F00031004300313BD00912D0130840008
:100CD0003108C0003008BF002F08BE002E08BD003C
:100CE0000130C10009249E30C800CC204330C80028
:100CF000CC2054300C1E7A2E99003D300C1E7E2ED6
:100D000099002D300C1E822E99000130840031088C
:100D1000C0003008BF002F08BE002E08BD00013003
:100D2000C100CB2463300C1E932E99002918CD2EC0
:100D30002030C800CC205430C800CC203D30C80042
:100D4000CC20013084003108C0003008BF002F08DB
:100D5000BE002E08BD000130C10009249E30C8002D
:100D6000CC204330C800CC2054300C1EB52E990046
:100D70003D300C1EB92E9900013084003108C000AE
:100D80003008BF002F08BE002E08BD000130C10092
:100D9000CB2463300C1ECA2E990029100830BD00E8
:0E0DA000FA30CC001220BD0BD02E0B2E6300BB
:02400E00723FFF
:00000001FF
;PIC16F873A
;CRC=485B  CREATED="22-ago-25 13:57"
