:1000000005308A00E32D00008C296537F337721024
:10001000442454193200202ABD162519AE18E612C0
:10002000E32100004C30840000080319252801302A
:10003000A100A001A00B1A28A10B19284A30A0008A
:10004000A00B20282328800B17280800500EF03919
:10005000A0000F300605200486000000061430289A
:10006000061008000608A000060E0F39A1000800BF
:100070008316061086100611831286100F30831621
:100080000605F038860083120615000006140000ED
:1000900032202108D0000610000006140000322093
:1000A0002108CF0006100F30831606058600831244
:1000B000500EA000F030A00520084F04A100210838
:1000C000CF00CF1B3E284D1C86104D188614000013
:1000D0000611000006104E0ECF000F30CF054F085E
:1000E000D00026204E080F39CF00D000262008006F
:1000F0002830BE000C30BF000130C0000630C10007
:100100000610861006110F308316060586000610AD
:10011000861006110F308312CC0012200130BD0072
:100120003D08033C031C9C280330D00026200530EA
:10013000CC001220BD0A90280230D00026200530C5
:10014000CC001220BD013D08033C031CB2283E3008
:100150003D0784000008C200CD014208CE003820CF
:10016000BD0AA3288A11F72D4A0BB728BA284030B8
:10017000CB00BB28CB0101304902CB074B088038AC
:10018000CC00CD014C08CE00382008004808073AC2
:100190000319D4280B3A0319D928063A0319E12880
:1001A000023A0319E728EC280130C900CA00B4203C
:1001B000F128CD010130CE0038200230CC001220D1
:1001C000F1280130C9000230CA00B420F128CD0165
:1001D0001030CE003820F1280130CD004808CE0084
:1001E000382008000B08BD008B13831603178C17EB
:1001F0000C140000000083120313BD1B8B170317A0
:100200000C087F39031946290313BD0003170D0895
:100210000313BE0003170F080313BF003D08C800F7
:10022000C6203E0803178D0003133F0803178F00F5
:1002300003130B08C0008B13831603178C170C14C1
:100240000000000083120313C01B8B1703170C0D53
:100250000E0D7F39031946290313BD0003170D083E
:100260000313BE0003170F080313BF003D08C800A7
:10027000C6203E0803178D0003133F0803178F00A5
:100280008D0A03198F0A0313F228031703138A1127
:10029000FE2D8E30A0004D08A1004C08A200A30145
:1002A000A108031D5D292208A100A2010830A002B7
:1002B000A108031D5D29A00165290310A11B642964
:1002C000A20DA10DA0035D29A11308004C0803197C
:1002D0002B2AD800500803192B2AD802031C752991
:1002E0007F30D80703182B2A7B298130D802031CC2
:1002F0002B2A03192B2A5808A000A101A201A3014F
:10030000D7014D08D600D6174E08D5004F08D400A7
:100310001930D8005308D40203189E290130D502A1
:1003200003189E29D60203189E29D70203189E2976
:10033000D70AD60AD50A5308D407D0295208D502BD
:100340000318B9290130D6020318B929D7020318B6
:10035000B929D70AD60A5208D5075308D407031C6F
:10036000D029D50A031DD029D60A031DD029D70AC2
:10037000D02951088038D6020318CF290130D7027E
:100380000318CF29D70A51088038D6075208D50755
:10039000031CAD29D60A031DAD29D70AAD292314A4
:1003A000D80BD329DE290310D40DD50DD60DD70DCA
:1003B0000310A30DA20DA10DD90D8A29591CE62900
:1003C0000310A10CA20CA30CD90CE929A00303195A
:1003D0002B2AD91B122A0310D40DD50DD60DD70DFB
:1003E0005308D4020318FE290130D5020318FE2950
:1003F000D6020318FE29D702031C212A5208D5026F
:100400000318092A0130D6020318092AD702031C4F
:10041000212A51088038D6020318122A0130D70247
:10042000031C212AA30A031D212AA20A031D212A33
:10043000A10A031D212AA00A03192B2AA10CA20C30
:10044000A30C4D08D8005108D806D81F292AA11797
:100450002F2AA1132F2AA001A101A201A3010800A4
:10046000831605110511831205150630A000A00B97
:10047000372A000083160511831205111230CC00B3
:10048000122083160511831205150C30A000A00B55
:10049000472A4A2A0000831605150C308312A00053
:1004A000A00B502A532A0000831605158312BD01A4
:1004B0000519BD0ABD080319602A0130BA00202BB6
:1004C000BA011330A000A00B632A662A8316051513
:1004D0008312BD010519BD0ABD08031D722A013032
:1004E000BB00202BBB011A30A000A00B752A000016
:1004F000BE013E08043C031CB32A24303E07CC0056
:10050000CD01CE01CD014D08073C031CAB2A83165B
:1005100005158312051D872A0930A000A00B8E2A1D
:10052000912A831605158312051DA42A4D08073C40
:10053000A1000130A000A1080319A22A0310A00DF8
:10054000A10B9E2A2008CE048316051583120519D7
:10055000A42ACD0A832A4E08A1004C088400210851
:100560008000BE0A792A8316051102308312A0008A
:10057000A00BB82ABB2A00008316051183120515AB
:100580002508240726072707BF003F08280203196C
:10059000CB2A0130BC00BC012408C3002508C200DE
:1005A0002608C1002708C000C11FD82A2914C1137A
:1005B0004308CD004208CC0049212308CB00220883
:1005C000CA002108C9002008C8004108CD00400821
:1005D000CC0049212308C7002208C6002108C50015
:1005E0002008C4004B08CF004A08CE004908CD00BF
:1005F0004808CC00D301D2012030D1008230D00095
:1006000066212308AD002208AC002108AB002008B9
:10061000AA004708CF004608CE004508CD00440890
:10062000CC00D301D2012030D1008230D00066212D
:100630002308B1002208B0002108AF002008AE0056
:10064000080048080319912BD0004C080319912B7E
:10065000D0070318322B7F30D002031C912B0319D3
:10066000912B362B8130D0070318912B5008A00016
:10067000A101A201A3014908D400D4174A08D3005C
:100680004B08D2001830D000D101521C5F2B4F080C
:10069000A307031C512BA20A031D512BA10A031906
:1006A000D1174E08A207031C582BA10A0319D11712
:1006B0004D08CA00CA174A08A1070318D117D10D5F
:1006C000A10CA20CA30CD40CD30CD20C0310D00B95
:1006D000442B0130A0070318912BA11B762BD40DBE
:1006E000A30DA20DA10DA0030319912BD41F872BDD
:1006F000A30A031D872BA20A031D872BA10A031D32
:10070000872BA10CA20CA30CA00A0319912B49085A
:10071000D1004D08D106D11F8F2BA117952BA11306
:10072000952BA001A101A201A30108004808B63C35
:10073000C800A3014908CC00C9170310C90CCA0C92
:10074000CB0CA30CA20CA10CA00CC80B9D2BCC1F96
:10075000B42BA009A109A209A309A00A0319A10A9F
:100760000319A20A0319A30A08008318B92B5030F1
:100770008400A001A101A201A301D001D101D201F5
:10078000D3014F084E044D044C040319F72B2030BD
:10079000D4000310C80DC90DCA0DCB0DD00DD10D5D
:1007A000D20DD30D4F085302031DE02B4E08520209
:1007B000031DE02B4D085102031DE02B4C08500295
:1007C000031CF12B4C08D0024D08031C4D0FD10225
:1007D0004E08031C4E0FD2024F08031C4F0FD302CA
:1007E0000314A00DA10DA20DA30DD40BC92B50080D
:1007F0008000840A51088000840A52088000840A1C
:100800005308800008000408C2004108C30003190F
:10081000222C4008CB003F08CA003E08C9003D0812
:10082000C800CF01CE012030CD008230CC00212382
:100830002308C0002208BF002108BE002008BD0018
:10084000C30B092C4008CB003F08CA003E08C90072
:100850003D08C80096232308C0002208BF002108D5
:10086000BE002008BD00C01F422CC203C216BD0935
:10087000BE09BF09C009BD0A0319BE0A0319BF0A90
:100880000319C00A3B30C7009A30C600CA30C50001
:10089000C4010A30C30041080319C20A83143D3061
:1008A00084004008CB003F08CA003E08C9003D084C
:1008B000C8004708CF004608CE004508CD004408D0
:1008C000CC00B5232108A008031D792C410A43025E
:1008D0000319792C420803197B2C0F3943020319A1
:1008E000732C0318AB2CC21BAB2C421B7B2C20306F
:1008F000A72C2030C205C21E892CC2124108031D3C
:10090000C2032008C2002D30C800C6204208A00043
:10091000C20141084302031D972C2008C2002E305B
:10092000C800C6204208A0002030C2050030303088
:10093000C21EA72CC2124108031DC2032008C20018
:100940002D30C800C6204208A000C2013030A007E8
:100950002008C800C62083104708CB004608CA00FC
:100960004508C9004408C800CF01CE01CD010A30B6
:10097000CC00B5232308C7002208C6002108C50003
:100980002008C400C30B4E2C08000408C200410814
:10099000C3000319E42C4008CB003F08CA003E08FE
:1009A000C9003D08C800CF01CE012030CD00823003
:1009B000CC0021232308C0002208BF002108BE006C
:1009C0002008BD00C30BCB2C4008CB003F08CA0059
:1009D0003E08C9003D08C80096232308C00022082D
:1009E000BF002108BE002008BD00C01F042DC203A7
:1009F000C216BD09BE09BF09C009BD0A0319BE0A56
:100A00000319BF0A0319C00A3B30C7009A30C60059
:100A1000CA30C500C4010A30C30041080319C20A24
:100A200083143D3084004008CB003F08CA003E08D4
:100A3000C9003D08C8004708CF004608CE00450859
:100A4000CD004408CC00B5232108A008031D3B2D90
:100A5000410A430203193B2D420803193D2D0F396A
:100A600043020319352D0318712DC21B712D421B32
:100A70003D2D20306C2D2030C205C21E4C2DC212DF
:100A80004108031DC2032008C2002D300C1E462D54
:100A900099004208A000C20141084302031D5B2DDA
:100AA0002008C2002E300C1E532D99004208A000D1
:100AB0002030C20500303030C21E6C2DC2124108F9
:100AC000031DC2032008C2002D300C1E652D9900A5
:100AD0004208A000C2013030A00720080C1E6E2D75
:100AE000990083104708CB004608CA004508C90092
:100AF0004408C800CF01CE01CD010A30CC00B52397
:100B00002308C7002208C6002108C5002008C40029
:100B1000C30B102D08000B08BE008B1383160317A0
:100B20008C170C140000000083120313BE1B8B17DC
:100B30000318C22D03170C087F390313BE000317D7
:100B40000D080313BF0003170F080313C0003E086E
:100B5000C800C6203F0803178D0003134008031781
:100B60008F0003130B08C1008B13831603178C1718
:100B70000C140000000083120313C11B8B17BD0B64
:100B8000C22DE12D03170C0D0E0D7F390313BE008E
:100B900003170D080313BF0003170F080313C0004A
:100BA0003E08C800C6203F0803178D000313400805
:100BB00003178F008D0A03198F0A03100313BD0B4F
:100BC0008B2D8A11602E03081F398300193083167C
:100BD0009900A630980090308312980083161F1455
:100BE0009F141F159F1107309C0083127828043032
:100BF00003178D0000308F000313F2280230BD0070
:100C0000FA30CC001220BD0B002E30220A30CC006E
:100C100012203A0B0C2E0E2E00300F2E0130BD008C
:100C20003B0B132E152E0030162E0130BD043C0B4D
:100C30001A2E1C2E00301D2E01303D040319222EC9
:100C40003022092E0C30C800C6204830C800C6200B
:100C50003D30C800C620013084002D08C0002C089B
:100C6000BF002B08BE002A08BD000130C1000324CC
:100C70002530C800C62048300C1E3C2E99003D305F
:100C80000C1E402E9900013084002D08C0002C0855
:100C9000BF002B08BE002A08BD000130C100C524DA
:100CA00025300C1E512E9900291C902E0B30031755
:100CB0008D0000308F00031004300313BD008B2D16
:100CC000013084003108C0003008BF002F08BE008A
:100CD0002E08BD000130C10003249E30C800C6208C
:100CE0004330C800C62054300C1E742E99003D308D
:100CF0000C1E782E99002D300C1E7C2E9900013090
:100D000084003108C0003008BF002F08BE002E0844
:100D1000BD000130C100C52463300C1E8D2E99002A
:100D20002918C72E2030C800C6205430C800C6205D
:100D30003D30C800C620013084003108C0003008B2
:100D4000BF002F08BE002E08BD000130C1000324E3
:100D50009E30C800C6204330C800C62054300C1E48
:100D6000AF2E99003D300C1EB32E99000130840047
:100D70003108C0003008BF002F08BE002E08BD009B
:100D80000130C100C52463300C1EC42E9900291007
:100D90000830BD00FA30CC001220BD0BCA2E052E43
:020DA0006300EE
:02400E00713F00
:00000001FF
;PIC16F873A
;CRC=859B  CREATED="26-ago-25 16:26"
