:1000000003308A00242B0000FF00030E8301A100AF
:100010000A08A0008A010408A2007708A300780853
:10002000A4007908A5007A08A600831383128B1D0B
:100030001B280B1830280B1E1F288B18332822086A
:1000400084002308F7002408F8002508F900260892
:10005000FA0020088A00210E8300FF0E7F0E09009F
:100060008A110A1236288A110A12C928FF3083160B
:10007000860083120608C100831606168312061E28
:100080004328A81C4A28831606168312061A5E28DF
:10009000A81C5E28A81851288E018F018E01A81473
:1000A0005E280F08FA000E08F7000F087A02031DF9
:1000B00051287708A9007A08AA00A8108316861686
:1000C0008312861E6528281D6C28831686168312C7
:1000D000861A8028281D8028281973288E018F01F0
:1000E0008E01281580280F08FA000E08F7000F0867
:1000F0007A02031D73287708A9007A08AA0028113C
:10010000831606178312061F8728A81D8E288316BC
:1001100006178312061BA228A81DA228A819952835
:100120008E018F018E01A815A2280F08FA000E0873
:10013000F7000F087A02031D95287708A9007A08AE
:10014000AA00A811831686178312861FA928281EC5
:10015000B028831686178312861BC428281EC4283D
:10016000281AB7288E018F018E012816C4280F087F
:10017000FA000E08F7000F087A02031DB728770867
:10018000A9007A08AA0028120B100B108A110A1273
:100190001F282818D4280B168316011383128E01EA
:1001A0008F018E012814E5280B1683160117831280
:1001B0000F08FA000E08F7000F087A02031DD8286E
:1001C0007708A9007A08AA0028108B108A110A1251
:1001D0001F2837308400831300080319FD280130DD
:1001E000F800F701F70BF228F80BF1284A30F70076
:1001F000F70BF828FB28800BEF2808003E1802298F
:10020000071203290716271227088316870083126F
:10021000BE180C2987120D298716A71227088316E6
:10022000870083123E19162907131729071727136A
:100230002708831687008312BE19202987132129D6
:100240008717A713270883168700000083128715D6
:10025000A7112708831687002D2983128711A7115C
:1002600027088316870083120800BF012716270876
:100270008316870000308312071A0130BF04A716C7
:1002800027088316870000308312871A0130F70091
:100290000310F70D7708BF04271727088316870078
:1002A00000308312071B0130F700F70DF70DFC300B
:1002B000F7057708BF04A7172708831687000030C3
:1002C0008312871B0130F700F70DF70DF70DF8309B
:1002D000F7057708BF043F08F8000800A7112708B2
:1002E000831687008312A7102708831687008312BE
:1002F000271127088316870083128710A710270865
:1003000083168700071687160717871783120715A6
:100310002711270883168700000083128715A7116D
:100320002708831687000000831235217808BE0055
:100330008711A711270883168700000083128715ED
:10034000A71127088316870000008312352178083B
:10035000BD008711A7112708831687008312271273
:100360002708831687008312A712270883168700A1
:10037000831227132708831687008312A7132708E1
:100380008316870083123E0EF700F030F7057708DA
:100390003D04F8007808BD00BD1FD02983168229CE
:1003A000BB08031DD5298710D6298714A710270855
:1003B0008316870000008312071127112708831670
:1003C0008700000083128711A71127088316870072
:1003D00083123C0EBD000F30BD053D08BE00FE205F
:1003E0003C080F39BD00BE00FE2008002830AE00DA
:1003F0000C30AF000130B0000630B1008711A711FA
:1004000027088316870083128710A71027088316F2
:10041000870083120711271127088316870083128C
:1004200027122708831687008312A712270883162E
:100430008700831227132708831687008312A713C8
:100440002708831687008312A711270883168700C1
:100450008312A71027088316870083122711270805
:10046000831687000F308312B700E9200130AD00FA
:100470002D08033C031C442A0330BE00FE20053037
:10048000B700E920AD0A382A0230BE00FE20053050
:10049000B700E920AD012D08033C031C5B2A2E3078
:1004A0002D07840083130008B200BB013208BC0092
:1004B0006E21AD0A4B2A8A110A123A2B380B612A97
:1004C000642A4030B900652AB90101303702B90702
:1004D00039088038BA00BB013A08BC006E21080018
:1004E000F801F901F701FA013008031D7A2A2F08F3
:1004F0000319942A1030B1000310AD0DAE0DF70DA5
:10050000FA0D30087A02031D872A2F087702031C90
:10051000902A2F08F702031CFA033008FA0203148A
:10052000F80DF90DB10B7C2A08003608073A0319BB
:10053000A32A0B3A0319A82A063A0319B02A023A49
:100540000319B62ABB2A0130B700B8005E22C02AC0
:10055000BB010130BC006E210230B700E920C02A87
:100560000130B7000230B8005E22C02ABB01103053
:10057000BC006E21C02A0130BB003608BC006E21D1
:100580000800B5010408B4003510831B35142E0E85
:10059000F038B000B007E23EB100323EB3002E08A2
:1005A0000F39B107B107B307E93EB200B207B2078E
:1005B0002D0E0F39B207B307B20DB30DB309B30D4A
:1005C0002D080F39B307B00D0730AF000A30B3075D
:1005D000B203031CE72AB207B103031CEB2AB107DD
:1005E000B003031CEF2AB007AF03031CF32A2F301C
:1005F0008400831307303405341384073330040236
:10060000031934170008F700031D0E2B341B0E2BA3
:10061000341A202BB4190E2B2030112BB4153412A0
:100620003030F707AE010408AD002E10831B2E14E6
:100630007708B60095222D08840083132E1883179F
:10064000840A341FFE2A080003081F398300FF3084
:10065000A7002810A8102811A8112812AC01AB017E
:1006600083161F149F141F159F1107309C008313BE
:100670008312F62985309000C0308B046430B700B7
:10068000E9200B108B150B168316011786108312A9
:1006900086108316061183120611831686118312A3
:1006A0008611831605108312051083168510831298
:1006B000851083168610831286140230F700F70B1C
:1006C0005F2B622B00008316861083128610013088
:1006D000B700B8005E222A08AE002908AD00B001BC
:1006E0003A30AF0070227908AC007808AB00423095
:1006F000B60095223430B60095223A30B6009522E5
:10070000023084002C08AE002B08AD00C1226430FA
:10071000B700E92083160611831206150230F70090
:10072000F70B902B932B00008316061183120611F2
:100730000830B7000130B8005E222A08AE00290850
:10074000AD00B0013A30AF0070227908AC007808F3
:10075000AB004230B60095223530B60095223A30D3
:10076000B6009522023084002C08AE002B08AD00A4
:10077000C1226430B700E9208316861183128615E2
:100780000230F700F70BC22BC52B00008316861131
:10079000831286110130B7000230B8005E222A08A9
:1007A000AE002908AD00B0013A30AF0070227908E0
:1007B000AC007808AB004230B60095223630B60067
:1007C00095223A30B6009522023084002C08AE0003
:1007D0002B08AD00C1226430B700E9208316051054
:1007E000831205140230F700F70BF42BF72B0000EF
:1007F00083160510831205100830B7000230B800C8
:100800005E222A08AE002908AD00B0013A30AF00E0
:1008100070227908AC007808AB004230B60095220F
:100820003730B60095223A30B60095220230840067
:100830002C08AE002B08AD00C1226430B700E920BF
:1008400083168510831285140230F700F70B262CCF
:10085000292C000083168510831285106430B700A0
:10086000E9200130B700B8005E222A08AE0029084E
:10087000AD00B0013A30AF0070227908AC007808C2
:10088000AB004230B60095223030B60095223A30A7
:10089000B6009522023084002C08AE002B08AD0073
:0C08A000C1220A30B700E920592B630088
:02400E00713F00
:00000001FF
;PIC16F876A
;CRC=830F  CREATED="19-ago-25 17:15"
