:1000000000308A00D6280000FF00030E8301A10003
:100010000A08A0008A010408A2007708A300780853
:10002000A4007908A5007A08A600831383128C30F7
:100030008400801E1D288C1A34288C308400001CFB
:1000400023280C183728220884002308F7002408E6
:10005000F8002508F9002608FA0020088A00210E79
:100060008300FF0E7F0E09008A110A1294288A115C
:100070000A123A282708033C031C4828AB0B4728E0
:10008000831606100130831286062708AB00552818
:100090002708043C031D51288316061083120614FA
:1000A000552883160610831206102808033C031CEB
:1000B0006328AC0B622883168610023083128606F2
:1000C0002808AC0070282808043C031D6C288316FF
:1000D0008610831286147028831686108312861069
:1000E0002908033C031C7E28AD0B7D2883160611CE
:1000F0000430831286062908AD008B282908043CA9
:10010000031D872883160611831206158B28831674
:100110000611831206118E010B308F00DC308E0029
:100120000C108A110A1223288C1E94281A08AF007A
:100130002F082A3C031DA0280130AE06AA01D228B0
:100140002E1CD2282A08023C031CCC2827302A0760
:100150008400831330302F0280002A080319B72847
:10016000013A0319BE28033A0319C528CB282730C2
:100170002A07840083130008AB00CB2827302A0706
:10018000840083130008AC00CB2827302A078400A2
:1001900083130008AD00AA0A2A08023C0318D228DB
:1001A0002E10AA018C128A110A12232803081F3963
:1001B0008300193083169900A6309800903083127E
:1001C0009800AA01AB01AC01AD012E1083161F14DB
:1001D0009F141F159F1107309C0083130530831255
:1001E000A700A800A900F83083168600C03083124B
:1001F0008B0483168C160C14B530831290008E017C
:0C0200000B308F00DC308E0004296300FE
:02400E00713F00
:00000001FF
;PIC16F876A
;CRC=ADC8  CREATED="12-may-25 16:36"
