:1000000010308A0000280000FF00030E8301A100C9
:100010000A08A0008A010408A2007708A300780853
:10002000A4007908A5007A08A60003170D08031399
:10003000A70003170F080313A80003170C080313E6
:10004000A90003170E080313AA00831383128B1E43
:100050002B280B194C28220884002308F7002408B9
:10006000F8002508F9002608FA00270803178D0074
:100070000313280803178F000313290803178C00A4
:1000800003132A0803178E00031320088A00210E89
:100090008300FF0E7F0E09008A110A12452C0A10F8
:1000A0008A100A118207313432343334343435340F
:1000B00036343734383439342A34303423348C24C9
:1000C000EE33F232F3320A00D4326D386539AE269F
:1000D000693720142010A01400018C24EE33F23272
:1000E000F3320A00D4326D386539AE26613C2014F3
:1000F0002010A01400010C2AE536F032F230F43A58
:10010000F230BA12333675008C2272396F39A03052
:100110006C1069376739E53961390A3AE536F032EA
:10012000F230F43AF23000010A2AED346E1D25193E
:100130007500D436613CBA12B23A00010A2AED3495
:100140006E1D25197500D436613CBA12B23A000012
:100150008E30F7005208F8005108F900FA01F8084B
:10016000031DBC287908F800F9010830F702F808E7
:10017000031DBC28F701C4280310F81BC328F90D80
:10018000F80DF703BC28F8130800510803193529A6
:10019000D900550803193529D9070318D6287F3007
:1001A000D902031C352903193529DA288130D907EA
:1001B000031835295908F700F801F901FA01520826
:1001C000DD00DD175308DC005408DB001830D900CF
:1001D000DA015B1C03295808FA07031CF528F90A01
:1001E000031DF528F80A0319DA175708F907031C45
:1001F000FC28F80A0319DA175608D300D317530856
:10020000F8070318DA17DA0DF80CF90CFA0CDD0C04
:10021000DC0CDB0C0310D90BE8280130F7070318BE
:100220003529F81B1A29DD0DFA0DF90DF80DF70324
:1002300003193529DD1F2B29FA0A031D2B29F90A79
:10024000031D2B29F80A031D2B29F80CF90CFA0CB5
:10025000F70A031935295208DA005608DA06DA1FB8
:100260003329F8173929F8133929F701F801F90169
:10027000FA01080055080319FF29E100590803197C
:10028000FF29E102031C49297F30E1070318FF29F8
:100290004F298130E102031CFF290319FF2961085E
:1002A000F700F801F901FA01E0015608DF00DF1755
:1002B0005708DE005808DD001930E1005C08DD0257
:1002C000031872290130DE0203187229DF020318B5
:1002D0007229E00203187229E00ADF0ADE0A5C08CC
:1002E000DD07A4295B08DE0203188D290130DF0237
:1002F00003188D29E00203188D29E00ADF0A5B0844
:10030000DE075C08DD07031CA429DE0A031DA429FF
:10031000DF0A031DA429E00AA4295A088038DF0255
:100320000318A3290130E0020318A329E00A5A08A0
:100330008038DF075B08DE07031C8129DF0A031D05
:100340008129E00A81297A14E10BA729B229031037
:10035000DD0DDE0DDF0DE00D0310FA0DF90DF80DCA
:10036000E20D5E29621CBA290310F80CF90CFA0C94
:10037000E20CBD29F7030319FF29E21BE62903104C
:10038000DD0DDE0DDF0DE00D5C08DD020318D22966
:100390000130DE020318D229DF020318D229E0025D
:1003A000031CF5295B08DE020318DD290130DF029A
:1003B0000318DD29E002031CF5295A088038DF0202
:1003C0000318E6290130E002031CF529FA0A031D8F
:1003D000F529F90A031DF529F80A031DF529F70A7D
:1003E0000319FF29F80CF90CFA0C5608E1005A0819
:1003F000E106E11FFD29F817032AF813032AF70184
:10040000F801F901FA0108008E30F7005108F702EF
:100410005208F9005308F800F917F70803191B2AC6
:100420000310F908031D172AF80803191B2AF90CF1
:10043000F80CF70B102AD21F222AF809F909F80A3A
:100440000319F90A08005C0B262A292A4030DD002E
:100450002A2ADD0101305B02DD075D088038DE00FD
:10046000DF015E08E0008316061086100611831275
:1004700086100F3083160605F038860083120615A5
:100480000000061400000608F700060E0F39F800F9
:100490007808E20006100000061400000608F700C5
:1004A000060E0F39F8007808E10006100F308316A9
:1004B000060586008312620EF700F030F705770814
:1004C0006104F8007808E100E11B392A5F1C8610FE
:1004D0005F1886140000061100000610600EE1008F
:1004E0000F30E1056108E200620EF039F7000F30CD
:1004F000060577048600000006147E2A06106008B0
:100500000F39E1006108E200620EF039F7000F30A8
:10051000060577048600000006148E2A06100800DF
:100520005B308400831300080319A42A0130F8000B
:10053000F701F70B992AF80B982A4A30F700F70BC6
:100540009F2AA22A800B962A08005A08073A031904
:10055000B32A0B3A0319B82A063A03191B2B023A9D
:100560000319212B812B0130DB00DC002322E12B3E
:10057000DF010130E0008316061086100611831299
:1005800086100F3083160605F03886008312061594
:100590000000061400000608F700060E0F39F800E8
:1005A0007808E20006100000061400000608F700B4
:1005B000060E0F39F8007808E10006100F30831698
:1005C000060586008312620EF700F030F705770803
:1005D0006104F8007808E100E11BC12A5F1C861065
:1005E0005F1886140000061100000610600EE1007E
:1005F0000F30E1056108E200620EF039F7000F30BC
:1006000006057704860000000614062B0610600815
:100610000F39E1006108E200620EF039F7000F3097
:1006200006057704860000000614162B061002301B
:10063000DB009022E12B0130DB000230DC002322C2
:10064000E12BDF011030E000831606108610061142
:10065000831286100F3083160605F0388600831249
:1006600006150000061400000608F700060E0F39F4
:10067000F8007808E20006100000061400000608E2
:10068000F700060E0F39F8007808E10006100F3069
:100690008316060586008312620EF700F030F70518
:1006A00077086104F8007808E100E11B2A2B5F1C41
:1006B00086105F1886140000061100000610600EF8
:1006C000E1000F30E1056108E200620EF039F70049
:1006D0000F30060577048600000006146F2B061005
:1006E00060080F39E1006108E200620EF039F7009E
:1006F0000F30060577048600000006147F2B0610D5
:10070000E12B0130DF005A08E00083160610861046
:100710000611831286100F3083160605F038860006
:10072000831206150000061400000608F700060EE6
:100730000F39F8007808E2000610000006140000E7
:100740000608F700060E0F39F8007808E1000610D9
:100750000F308316060586008312620EF700F03014
:10076000F70577086104F8007808E100E11B8B2B9E
:100770005F1C86105F18861400000611000006102A
:10078000600EE1000F30E1056108E200620EF03911
:10079000F7000F3006057704860000000614D02B02
:1007A000061060080F39E1006108E200620EF039BE
:1007B000F7000F3006057704860000000614E02BD2
:1007C00006100800D9010408D8005910831B5914D9
:1007D000520EF038D400D407E23ED500323ED700A6
:1007E00052080F39D507D507D707E93ED600D607F7
:1007F000D607510E0F39D607D707D60DD70DD70913
:10080000D70D51080F39D707D40D0730D3000A3060
:10081000D707D603031C082CD607D503031C0C2CC2
:10082000D507D403031C102CD407D303031C142CAA
:10083000533084008313073058055813840757300A
:100840000402031958170008F700031D2F2C581B2A
:100850002F2C581A412CD8192F2C2030322CD81577
:1008600058123030F707D2010408D1005210831B10
:1008700052147708DA00A522510884008313521815
:100880008317840A581F1F2C08000130BD02BD08C1
:10089000031D9F2C1F151F194B2C83161E08831236
:1008A000B5001E08B6003608D2003508D100A820D1
:1008B0007A08D4007908D3007808D2007708D100EC
:1008C000D801D7017A30D6008630D500C5207A0805
:1008D000D4007908D3007808D2007708D1007A08CC
:1008E000D8007908D7007808D6007708D500DC0151
:1008F000DB01DA018930D9003A217A08BC00790895
:10090000BB007808BA007708B9003C08D4003B085F
:10091000D3003A08D2003908D1000422B601780881
:10092000B5000D30DB000130DC00232202308400F2
:100930003608D2003508D100E2230730BD0081011E
:100940000B118A110A122B280C2AE536F032F230EC
:10095000F43AF230BA123336F51263000A2AED3453
:100960006E1DA5197500D436613CBA12B33A000069
:100970002830BF000C30C0000130C1000630C2007A
:100980000610861006110F30831606058600061025
:10099000861006118312AB018B1BAB178B130F3024
:1009A000DB009022AB1B8B170130BE003E08033CDE
:1009B000031CF22C0330E200620EF039F7000F3016
:1009C00006057704860000000614E62C0610AB012D
:1009D0008B1BAB178B130530DB009022AB1B8B17E7
:1009E000BE0AD62C0230E200620EF039F7000F305A
:1009F00006057704860000000614FE2C0610AB01E5
:100A00008B1BAB178B130530DB009022AB1B8B17B6
:100A1000BE013E08033C031C742D3F303E0784009A
:100A200083130008C300DF014308E00083160610AB
:100A300086100611831286100F3083160605F038D3
:100A40008600831206150000061400000608F70051
:100A5000060E0F39F8007808E200061000000614B0
:100A600000000608F700060E0F39F8007808E100CC
:100A700006100F308316060586008312620EF700FB
:100A8000F030F70577086104F8007808E100E11B11
:100A90001C2D5F1C86105F188614000006110000D4
:100AA0000610600EE1000F30E1056108E200620E01
:100AB000F039F7000F3006057704860000000614B1
:100AC000612D061060080F39E1006108E200620E36
:100AD000F039F7000F300605770486000000061491
:100AE000712D0610BE0A092D8A110A1620288A11B6
:100AF0000A162328BE01AC0A2C08213C0318FB2D42
:100B00002F0803198A2D013A0319902D033A03196E
:100B1000962D9B2DDE3083168600831286009B2D3A
:100B2000BE3083168600831286009B2D7E3083168E
:100B30008600831286002D1CA72D06081E391E3C38
:100B4000031DA62D2D102E08BE00AE01FA2D06089D
:100B50001E391E3C0319F52D06080239031DB22D5E
:100B6000BF01C62D06080439031DB92D0130BF0091
:100B7000C62D06080839031DC02D0230BF00C62D42
:100B800006081039031DC62D0330BF003F08C00002
:100B90000330C100F701F801400803104118F707BE
:100BA000F70CF80CC118F707F70CF80C4119F70708
:100BB000F70CF80CC119F707F70CF80C411AF707F6
:100BC000F70CF80CC11AF707F70CF80C411BF707E4
:100BD000F70CF80CC11BF707F70CF80C2F08780777
:100BE0004F20F800AE002D14FA2DAF0A2F08033C59
:100BF0000319AF01AC01FE308316860083123E0854
:100C0000F80008000B08BF008B13831603178C171E
:100C10000C140000000083120313BF1B8B17031872
:100C20003F2E03170C087F390313BF0003170D086D
:100C30000313C00003170F080313C100AB018B1B84
:100C4000AB178B133F08DA00A522AB1B8B174008AC
:100C500003178D000313410803178F0003130B08BC
:100C6000C2008B13831603178C170C1400000000AE
:100C700083120313C21B8B17BE0B3F2E642E031768
:100C80000C0D0E0D7F390313BF0003170D0803135E
:100C9000C00003170F080313C100AB018B1BAB1778
:100CA0008B133F08DA00A522AB1B8B1740080317F4
:100CB0008D000313410803178F008D0A03198F0A53
:100CC00003100313BE0B022E080078083E08C00074
:100CD0006430C1004108F80140020318722E400838
:100CE000F7007E2EF7010830C200C00DF70D410855
:100CF00077020318F700F80DC20B752E7708BE00B7
:100D000078083030031D8B2EBF1C982EBF19982EEB
:100D10003F1A20308E2EBF113F123F14F807AB014F
:100D20008B1BAB178B137808DA00A522AB1B8B1734
:100D30003E08C0000A30C1004108F8014002031813
:100D4000A42E4008F700B02EF7010830C200C00DF5
:100D5000F70D410877020318F700F80DC20BA72E14
:100D60007708BE0078083030031DBC2EBF19C62E90
:100D70003F1CC62E3F1A2030F807AB018B1BAB1768
:100D80008B137808DA00A522AB1B8B173030BE0717
:100D9000AB018B1BAB178B133E08DA00A522AB1BF4
:040DA0008B170800A5
:101000008B120B08F7008B1303178D0101308C0036
:1010100083168C130C1555308D00AA308D008C145E
:101020008C1810280C117708831203138B045F307F
:1010300003178D0000308F0003130B08BE008B13C5
:10104000831603178C170C1400000000831203137F
:10105000BE1B8B1703170C087F3903197F28031356
:10106000BE0003170D080313BF0003170F08031377
:10107000C000AB018B1BAB178B133E08DA008A1143
:10108000A5228A15AB1B8B173F0803178D0003138E
:10109000400803178F0003130B08C1008B1383163E
:1010A00003178C170C140000000083120313C11BDC
:1010B0008B1703170C0D0E0D7F3903197F280313AF
:1010C000BE0003170D080313BF0003170F08031317
:1010D000C000AB018B1BAB178B133E08DA008A11E3
:1010E000A5228A15AB1B8B173F0803178D0003132E
:1010F000400803178F008D0A03198F0A1C286430DB
:101100008D0000308F0003130B08BE008B13831675
:1011100003178C170C140000000083120313BE1B6E
:101120008B1703170C087F390319E6280313BE0039
:1011300003170D080313BF0003170F080313C000A4
:10114000AB018B1BAB178B133E08DA008A11A5226B
:101150008A15AB1B8B173F0803178D00031340083C
:1011600003178F0003130B08C1008B13831603179B
:101170008C170C140000000083120313C11B8B1783
:1011800003170C0D0E0D7F390319E6280313BE005B
:1011900003170D080313BF0003170F080313C00044
:1011A000AB018B1BAB178B133E08DA008A11A5220B
:1011B0008A15AB1B8B173F0803178D0003134008DC
:1011C00003178F008D0A03198F0A83288A110313CE
:1011D0007A258A157808B1003108313C031DF228C0
:1011E0000030F3280130BE003108303C031DFA28DE
:1011F0000030FB2801303E05031904298A117A25A5
:101200008A157808B100EC28AB018B1BAB178B1348
:101210000D30DB000230DC008A1123228A15AB1B63
:101220008B17AB018B1BAB178B133108DA008A11BC
:10123000A5228A15AB1B8B1730303102BF003F0847
:10124000C0006430C100F701F801400803104118E4
:10125000F707F70CF80CC118F707F70CF80C411951
:10126000F707F70CF80CC119F707F70CF80C411A3F
:10127000F707F70CF80CC11AF707F70CF80C411B2D
:10128000F707F70CF80CC11BF707F70CF80C7808F8
:10129000B2000230BE00AB018B1BAB178B13C83002
:1012A000DB008A1190228A15AB1B8B17BE0B4B29D2
:1012B0008A117A258A157808B1003208633C031C2C
:1012C0008029B10803196629003067290130BE0062
:1012D00031082A3C03196E2900306F290130BE0401
:1012E0003108233C031976290030772901303E0468
:1012F000031980298A117A258A157808B100612995
:101300003208643C031DAB293108353C031C8A2993
:1013100000308B290130BE00B1080319912900303B
:1013200092290130BE0431082A3C03199929003062
:101330009A290130BE043108233C0319A129003049
:10134000A22901303E040319AB298A117A258A1596
:101350007808B1008429AB018B1BAB178B130E30BF
:10136000DB000230DC008A1123228A15AB1B8B17AD
:10137000AB018B1BAB178B133108DA008A11A52246
:101380008A15AB1B8B1730303102BF003F08C000FD
:101390000A30C100F701F801400803104118F707AF
:1013A000F70CF80CC118F707F70CF80C4119F70700
:1013B000F70CF80CC119F707F70CF80C411AF707EE
:1013C000F70CF80CC11AF707F70CF80C411BF707DC
:1013D000F70CF80CC11BF707F70CF80C7808B207EC
:1013E0000230BE00AB018B1BAB178B13C830DB0088
:1013F0008A1190228A15AB1B8B17BE0BF2298A111A
:101400007A258A157808B1003208963C031D122A05
:101410003108303C0319122A8A117A258A15780876
:10142000B100082A3208953C031C352AB10803197B
:101430001B2A00301C2A0130BE0031082A3C031947
:10144000232A0030242A0130BE043108233C03192A
:101450002B2A00302C2A01303E040319352A8A1128
:101460007A258A157808B100162AAB018B1BAB17B9
:101470008B130F30DB000230DC008A1123228A1527
:10148000AB1B8B17AB018B1BAB178B133108DA002F
:101490008A11A5228A15AB1B8B1730303102B20797
:1014A0003208B3000430BE00AB018B1BAB178B13AB
:1014B000C830DB008A1190228A15AB1B8B17BE0B3C
:1014C000542A6D3003178D0000308F0003130B0872
:1014D000BE008B13831603178C170C14000000003A
:1014E00083120313BE1B8B1703170C087F390319D4
:1014F000C92A0313BE0003170D080313BF00031707
:101500000F080313C000AB018B1BAB178B133E08F6
:10151000DA008A11A5228A15AB1B8B173F08031727
:101520008D000313400803178F0003130B08C1003D
:101530008B13831603178C170C1400000000831202
:101540000313C11B8B1703170C0D0E0D7F390319E5
:10155000C92A0313BE0003170D080313BF000317A6
:101560000F080313C000AB018B1BAB178B133E0896
:10157000DA008A11A5228A15AB1B8B173F080317C7
:101580008D000313400803178F008D0A03198F0A7B
:10159000662A72308D0000308F0003130B08BE00E6
:1015A0008B13831603178C170C1400000000831292
:1015B0000313BE1B8B1703170C087F390319302B3D
:1015C0000313BE0003170D080313BF0003170F0812
:1015D0000313C000AB018B1BAB178B133E08DA0063
:1015E0008A11A5228A15AB1B8B173F0803178D00A4
:1015F0000313400803178F0003130B08C1008B135C
:10160000831603178C170C140000000083120313B9
:10161000C11B8B1703170C0D0E0D7F390319302BCF
:101620000313BE0003170D080313BF0003170F08B1
:101630000313C000AB018B1BAB178B133E08DA0002
:101640008A11A5228A15AB1B8B173F0803178D0043
:101650000313400803178F008D0A03198F0ACD2A40
:101660008A1103137A258A157808B1003108313CB4
:10167000031D3C2B00303D2B0130BE003108303CB7
:10168000031D442B0030452B01303E0503194E2B22
:101690008A117A258A157808B100362BAB018B1B8D
:1016A000AB178B130D30DB000230DC008A112322D4
:1016B0008A15AB1B8B17AB018B1BAB178B13310838
:1016C000DA008A11A5228A15AB1B8B173030310244
:1016D000BF003F08C0006430C100F701F8014008B6
:1016E00003104118F707F70CF80CC118F707F70CAF
:1016F000F80C4119F707F70CF80CC119F707F70CAC
:10170000F80C411AF707F70CF80CC11AF707F70C99
:10171000F80C411BF707F70CF80CC11BF707F70C87
:10172000F80C7808B2000230BE00AB018B1BAB177F
:101730008B13C830DB008A1190228A15AB1B8B17E4
:10174000BE0B952B8A117A258A157808B1003208CC
:10175000633C031CCA2BB1080319B02B0030B12B1A
:101760000130BE0031082A3C0319B82B0030B92BD8
:101770000130BE043108233C0319C02B0030C12BBB
:1017800001303E040319CA2B8A117A258A1578087C
:10179000B100AB2B3208643C031DF52B3108353CFE
:1017A000031CD42B0030D52B0130BE00B108031927
:1017B000DB2B0030DC2B0130BE0431082A3C03193E
:1017C000E32B0030E42B0130BE043108233C031925
:1017D000EB2B0030EC2B01303E040319F52B8A1162
:1017E0007A258A157808B100CE2BAB018B1BAB177D
:1017F0008B130E30DB000230DC008A1123228A15A5
:10180000AB1B8B17AB018B1BAB178B133108DA00AB
:101810008A11A5228A15AB1B8B1730303102BF000D
:101820003F08C0000A30C100F701F801400803106A
:101830004118F707F70CF80CC118F707F70CF80C6C
:101840004119F707F70CF80CC119F707F70CF80C5A
:10185000411AF707F70CF80CC11AF707F70CF80C48
:10186000411BF707F70CF80CC11BF707F70CF80C36
:101870007808B2070230BE00AB018B1BAB178B138D
:10188000C830DB008A1190228A15AB1B8B17BE0B68
:101890003C2C8A117A258A157808B1003208963CCA
:1018A000031D5C2C3108303C03195C2C8A117A250D
:1018B0008A157808B100522C3208953C031C7F2C05
:1018C000B1080319652C0030662C0130BE003108C8
:1018D0002A3C03196D2C00306E2C0130BE043108F7
:1018E000233C0319752C0030762C01303E0403197B
:1018F0007F2C8A117A258A157808B100602CAB01FB
:101900008B1BAB178B130F30DB000230DC008A110E
:1019100023228A15AB1B8B17AB018B1BAB178B13C9
:101920003108DA008A11A5228A15AB1B8B173030DB
:101930003102B2073208B4000430BE00AB018B1B89
:10194000AB178B13C830DB008A1190228A15AB1BB2
:101950008B17BE0B9E2C0030F8001F08C739780487
:101960009F000630F700F70BB32C00001F151F195E
:10197000B72C83161E088312B5001E08B600AB01F3
:101980008B1BAB178B133608D2003508D1008A1198
:10199000A8208A15AB1B8B17AB018B1BAB178B13C6
:1019A0007A08D4007908D3007808D2007708D100EB
:1019B000D801D7017A30D6008630D5008A11C520EB
:1019C0008A15AB1B8B177A08C1007908C00078080C
:1019D000BF007708BE00AB018B1BAB178B13410810
:1019E000D8004008D7003F08D6003E08D500DC01EB
:1019F000DB01DA018930D9008A113A218A15AB1B43
:101A00008B177A08BC007908BB007808BA00770801
:101A1000B900AB018B1BAB178B133C08D4003B0800
:101A2000D3003A08D2003908D1008A1104228A155D
:101A3000AB1B8B17B6017808B5007B3003178D0000
:101A400000308F0003100D300313BE008A110226F0
:101A50008A1502308400AB018B1BAB178B13360841
:101A6000D2003508D1008A11E2238A15AB1B8B17EF
:101A700034083302031C0C2EAD18CE2D843003170E
:101A80008D0000308F0003130B08BE008B138316EC
:101A900003178C170C140000000083120313BE1BE5
:101AA0008B1703170C087F390319A62D0313BE00EB
:101AB00003170D080313BF0003170F080313C0001B
:101AC000AB018B1BAB178B133E08DA008A11A522E2
:101AD0008A15AB1B8B173F0803178D0003134008B3
:101AE00003178F0003130B08C1008B138316031712
:101AF0008C170C140000000083120313C11B8B17FA
:101B000003170C0D0E0D7F390319A62D0313BE000C
:101B100003170D080313BF0003170F080313C000BA
:101B2000AB018B1BAB178B133E08DA008A11A52281
:101B30008A15AB1B8B173F0803178D000313400852
:101B400003178F008D0A03198F0A432D03130B0807
:101B5000F7008B13053003178D0001308C008316BE
:101B60008C130C1555308D00AA308D008C148C18F8
:101B7000B72D0C117708831203138B040430BE00B9
:101B8000AB018B1BAB178B13FA30DB008A11902251
:101B90008A15AB1B8B17BE0BC02D0C2E0130031703
:101BA0008D0083168C130C1483120C080313B200DF
:101BB0003208B300943003178D0000308F000310FB
:101BC00006300313BE008A1102268A153208BE00B1
:101BD0001130BF008A1165268A15023003178D0067
:101BE00083168C130C1483120C080313B2003208F2
:101BF000B400993003178D0000308F0003100530BA
:101C00000313BE008A1102268A153208BE00113065
:101C1000BF008A1165268A153408330203187F2E07
:101C20000B08F7008B13013003178D0003133308E3
:101C300003178C0083168C130C1555308D00AA30B9
:101C40008D008C148C18222E0C117708831203132C
:101C50008B040B08F7008B13023003178D0003135E
:101C6000340803178C0083168C130C1555308D0027
:101C7000AA308D008C148C183B2E0C11770883121F
:101C800003138B049E3003178D0000308F00031068
:101C900006300313BE008A1102268A153308BE00DF
:101CA0001130BF008A1165268A15A33003178D00F5
:101CB00000308F00031005300313BE008A11022686
:101CC0008A153408BE001130BF008A1165268A15B6
:101CD0000B08F7008B13053003178D008C0183165A
:101CE0008C130C1555308D00AA308D008C148C1877
:101CF000772E0C117708831203138B04AD148B1607
:061D0000C0308B04080056
:1020000003081F398300AD1083161F149F141F157A
:102010009F1107309C0083138312AC012D10AE0179
:10202000AF0183161F149F141F159F151F138312D2
:102030001F179F1783169F1783121F140A12B82C9D
:102040000A160A12772D0A16831681130108C03961
:102050000738810007308312BD000B08F7008B138F
:1020600003178D0102308C0083168C130C1555302C
:102070008D00AA308D008C148C183C280C11770828
:10208000831203138B0403178D0183168C130C1416
:1020900083120C080313B000300B4F2854280A1287
:1020A0008A1500200A168A110030F8001F08C73967
:1020B00078049F004230F700F70B5C2800001F15E2
:1020C0001F19602883161E088312B5001E08B6006B
:1020D000AB018B1BAB178B133608D2003508D10030
:1020E0000A12A8200A16AB1B8B17AB018B1BAB1770
:1020F0008B137A08D4007908D3007808D2007708C7
:10210000D100D801D7017A30D6008630D5000A1226
:10211000C5200A16AB1B8B177A08C1007908C000CE
:102120007808BF007708BE00AB018B1BAB178B1381
:102130004108D8004008D7003F08D6003E08D50027
:10214000DC01DB01DA018930D9000A123A210A16D2
:10215000AB1B8B177A08BC007908BB007808BA0063
:102160007708B900AB018B1BAB178B133C08D4006D
:102170003B08D3003A08D2003908D1000A120422E1
:102180000A16AB1B8B17B6017808B500A4300317ED
:102190008D0004308F0003100D300313BE000A12AF
:1021A00002260A1602308400AB018B1BAB178B137F
:1021B0003608D2003508D1000A12E2230A16AB1BFA
:1021C0008B17AB018B1BAB178B13DF30DA000A12B6
:1021D000A5220A16AB1B8B17013003178D0083163F
:1021E0008C130C1483120C080313B2003208B300D2
:1021F000AE3003178D0004308F0003100630031338
:10220000BE000A1202260A163208BE001330BF00B2
:102210000A1265260A16023003178D0083168C13E6
:102220000C1483120C080313B2003208B400AB0183
:102230008B1BAB178B130930DB000230DC000A125A
:1022400023220A16AB1B8B17B33003178D00043003
:102250008F00031005300313BE000A1202260A166F
:102260003208BE001330BF000A1265260A1681012B
:102270008B16C0308B043108233C031D44290A12FD
:102280008A1500200A168A11B608031D532933083F
:10229000350203185329831685108312851483167B
:1022A000851283128512B608031D5C293308350296
:1022B00003185C2900305D290130BE00B608031DFB
:1022C0006529350834020318672900306829013070
:1022D0003E05031973298316851083128510831612
:1022E000851283128512B608031D7A293508340237
:1022F000031882298316851283128516831685108A
:10230000831285100A127A250A167808B100053062
:1023100003178D0083168C130C1483120C080319F9
:1023200098290A128A15031300200A168A11031726
:0623300003133B296300CA
:02400E00713F00
:00000001FF
;PIC16F876A
;CRC=4581  CREATED="19-mar-25 13:48"
