:1000000002308A00512A00000A108A100A11820761
:10001000313432343334343435343634373438349C
:1000200039342A3430342334E837EC3000002B30B4
:1000300084008313000803192B280130F800F7010E
:10004000F70B2028F80B1F284A30F700F70B26285B
:100050002928800B1D280800311830280610312867
:100060000614831606108312B11838288610392812
:1000700086148316861083123119402806114128F0
:100080000615831606118312B119482886114928CE
:100090008615831686110000831206178316061331
:1000A0005128831206138316061383120800B20127
:1000B000831606140030831206180130B20483162A
:1000C00086140030831286180130F7000310F70DF4
:1000D0007708B20483160615003083120619013022
:1000E000F700F70DF70DFC30F7057708B20483161B
:1000F00086150030831286190130F700F70DF70DD1
:10010000F70DF830F7057708B2043208F800080058
:10011000831606138612061283128612831686121F
:100120000614861406158615831206168316061203
:10013000000083120617831606130000831257204F
:100140007808B10006138316061300008312061701
:10015000831606130000831257207808B000061398
:100160008316061306108610061186118312310EAF
:10017000F700F030F70577083004F8007808B00091
:10018000B01FC42883169028AE08031DC928861204
:10019000CA2886168316861200008312061283165A
:1001A00006120000831206138316061383122F0E05
:1001B000B0000F30B0053008B1002C202F080F39E7
:1001C000B000B1002C2008002830A7000C30A80097
:1001D0000130A9000630AA00061383160613831205
:1001E00086128316861283120612831606120610D2
:1001F0008610061186110613861206120F3083121E
:10020000AB0017200130A6002608033C031C102970
:100210000330B1002C200530AB001720A60A0429BA
:100220000230B1002C200530AB001720A6012608B3
:10023000033C031C2729273026078400831300086A
:10024000AB00AE012B08AF008820A60A17298A113F
:100250000A12652A8A110A12662A2B0B30293329C1
:100260004030AC003429AC0101302A02AC072C0824
:100270008038AD00AE012D08AF00882008002908A5
:10028000073A03194D290B3A03195229063A031963
:100290005A29023A0319602965290130AA00AB00E6
:1002A0002D216A29AE010130AF0088200230AB0059
:1002B00017206A290130AA000230AB002D216A29DB
:1002C000AE011030AF0088206A290130AE00290845
:1002D000AF00882008000B08A6008B1383160317B5
:1002E0008C170C140000000083120313A61B8B173D
:1002F00003170C087F390319BF290313A60003173E
:100300000D080313A70003170F080313A8002608FE
:10031000A9003F21270803178D000313280803179E
:100320008F0003130B08A9008B13831603178C1778
:100330000C140000000083120313A91B8B17031772
:100340000C0D0E0D7F390319BF290313A6000317E7
:100350000D080313A70003170F080313A8002608AE
:10036000A9003F21270803178D000313280803174E
:100370008F008D0A03198F0A03136B2903170313C8
:100380008A110A126D2AA601A00A2008213C03182E
:10039000472A23080319D329013A0319DA29033A12
:1003A0000319E129E729DE30831687008312A400B0
:1003B0008700E729BE30831687008312A4008700D8
:1003C000E7297E30831687008312A4008700211C52
:1003D000F32907081E391E3C031DF22921102208AB
:1003E000A600A201462A07081E391E3C0319412A0D
:1003F00007080239031DFE29A701122A070804393C
:10040000031D052A0130A700122A07080839031D19
:100410000C2A0230A700122A07081039031D122ADD
:100420000330A7002708A8000330A900F701F8014E
:10043000280803102918F707F70CF80CA918F70774
:10044000F70CF80C2919F707F70CF80CA919F7079E
:10045000F70CF80C291AF707F70CF80CA91AF7078C
:10046000F70CF80C291BF707F70CF80CA91BF7077A
:10047000F70CF80C230878070420F800A2002114D8
:10048000462AA30A2308033C0319A301A001FE3056
:10049000831687008312A4002608F8008A110A1226
:1004A0006E2A03081F398300FF30A40083161F142F
:1004B0009F141F159F1183138312A0012110A20105
:1004C000A301831681138312E4282A291430031709
:1004D0008D0000308F0003136B29C3297808A50015
:1004E000A50803197C2A0C30A9003F212508A90082
:0C04F0003F213230AB0017206D2A630062
:02400E00713F00
:00000001FF
;PIC16F876
;CRC=A67A  CREATED="10-mar-25 16:03"
