:1000000003308A001A2B0000FF00030E8301A100B9
:100010000A08A0008A010408A2007708A300780853
:10002000A4007908A5007A08A60003170D08031399
:10003000A70003170F080313A80003170C080313E6
:10004000A90003170E080313AA00831383128B1D44
:100050002B280B184C28220884002308F7002408BA
:10006000F8002508F9002608FA00270803178D0074
:100070000313280803178F000313290803178C00A4
:1000800003132A0803178E00031320088A00210E89
:100090008300FF0E7F0E09008A110A127428F801EE
:1000A000F901F701FA015608031D592855080319EB
:1000B00073281030D7000310D30DD40DF70DFA0DAF
:1000C00056087A02031D662855087702031C6F281C
:1000D0005508F702031CFA035608FA020314F80D38
:1000E000F90DD70B5B2808000F08FA000E08F7007F
:1000F0000F087A02031D74287708AC007A08AD0057
:100100008B11BE143F08FC3E03180329043E072947
:100110002D08D4002C08D300D6013A30D5004F204A
:1001200005307802B6007908B7000030031C0130B2
:10013000B7022E083602031DA1282F083702031923
:10014000A6283E143708AF003608AE0003292D0854
:10015000D4002C08D300D6013A30D5004F2005300A
:100160007802B8007908B9000030031C0130B902E8
:1001700030083802031DC028310839020319C52888
:100180003E143908B1003808B00003292D08D40006
:100190002C08D300D6013A30D5004F200530780224
:1001A000BA007908BB000030031C0130BB023208E2
:1001B0003A02031DDF2833083B020319E4283E14EA
:1001C0003B08B3003A08B20003292D08D4002C08DC
:1001D000D300D6013A30D5004F2005307802BC005C
:1001E0007908BD000030031C0130BD0234083C0218
:1001F000031DFE2835083D02031903293E143D085E
:10020000B5003C08B4000B108A110A122B280A14FE
:100210008A100A1182078828A728C628E5288C2971
:10022000D2183A10253675105329321DA012EC3A17
:100230008A29D2193A10253675105329341DA01277
:10024000EC3A0A004A308400831300080319362967
:100250000130F800F701F70B2B29F80B2A294A3057
:10026000F700F70B31293429800B28290800510E9B
:10027000F039F7000F3007057704870000000714F6
:100280004129071008000708F700070E0F39F8008A
:1002900008008316071087100711831287100F308C
:1002A00083160705F038870083120715000007142E
:1002B000000043217808D100071000000714000057
:1002C00043217808D00007100F30831607058700F8
:1002D0008312510EF700F030F70577085004F8004C
:1002E0007808D000D01B4F294E1C87104E18871459
:1002F00000000711000007104F0ED0000F30D0058E
:100300005008D10037214F080F39D000D1003721D4
:1003100008002830C1000C30C2000130C300063094
:10032000C4000710871007110F30831607058700D8
:100330000710871007110F308312CA0022210130E5
:10034000C0004008033C031CAD290330D100372115
:100350000530CA002221C00AA1290230D10037216C
:100360000530CA002221C0014008033C031CC429F7
:1003700041304007840083130008C500CE014508C2
:10038000CF004921C00AB4298A110A12322B013048
:10039000BF008B1583168610831286140230F70077
:1003A000F70BD029D32900008316861083128610FC
:1003B0008E018F018E018A110A12552B0230BF0067
:1003C0008B1583160611831206150230F700F70B02
:1003D000E729EA29000083160611831206118E010F
:1003E0008F018E018A110A12552B0330BF008B1525
:1003F00083168611831286150230F700F70BFE294B
:10040000012A000083168611831286118E018F0146
:100410008E018A110A12552BBF018B158316061007
:10042000831206140230F700F70B142A172A000073
:1004300083160610831206108E018F018E018A1119
:100440000A12552B4B0B252A282A4030CC00292A8A
:10045000CC0101304A02CC074C088038CD00CE01D7
:100460004D08CF00492108004908073A0319422ADC
:100470000B3A0319472A063A03194F2A023A03197D
:10048000552A5A2A0130CA00CB0022225F2ACE0107
:100490000130CF0049210230CA0022215F2A0130F9
:1004A000CA000230CB0022225F2ACE011030CF00DA
:1004B00049215F2A0130CE004908CF0049210800B8
:1004C0000B08C1008B13831603178C170C14000044
:1004D000000083120313C11B8B170318972A0317FD
:1004E0000C087F390313C10003170D080313C20062
:1004F00003170F080313C3004108C9003422420840
:1005000003178D000313430803178F0003130B0811
:10051000C4008B13831603178C170C140000000003
:1005200083120313C41B8B17C00B972AB62A031719
:100530000C0D0E0D7F390313C10003170D080313B3
:10054000C20003170F080313C3004108C900342277
:10055000420803178D000313430803178F008D0A09
:1005600003198F0A03100313C00B602A0800C80187
:100570000408C7004810831B4814410EF038C3001C
:10058000C307E23EC400323EC60041080F39C4072B
:10059000C407C607E93EC500C507C507400E0F39A9
:1005A000C507C607C50DC60DC609C60D40080F39DB
:1005B000C607C30D0730C2000A30C607C503031CB7
:1005C000DD2AC507C403031CE12AC407C303031CB7
:1005D000E52AC307C203031CE92A423084008313BF
:1005E00007304705471384074630040203194717AD
:1005F0000008F700031D042B471B042B471A162B7A
:10060000C719042B2030072BC71547123030F707C6
:10061000C1010408C0004110831B41147708C900C0
:10062000342240088400831341188317840A471F2B
:10063000F42A080003081F398300FF30AB003E1482
:10064000BE14BF0183161F149F141F159F1107307E
:100650009C008313C03083128B04853090000B10F4
:100660008B1589290A30CA002221BE18422B2D0879
:10067000613C0318552BFF3A031D422B2C08C83C44
:100680000318552BBE10BF0A3F08033C031CBF01D3
:100690003F08FC3E0318552B043EA12BC729552BC0
:1006A000DE29552BF529552B0C2A3E1C9F2B3E107D
:1006B0000F3003178D0001308F0003100630031335
:1006C000C0006022103084003708C1003608C00026
:1006D000B722133003178D0001308F00031406304A
:1006E0000313C0006022103084003908C1003808AC
:1006F000C000B722183003178D0001308F0003109F
:1007000006300313C0006022103084003B08C10093
:100710003A08C000B7221C3003178D0001308F004B
:10072000031406300313C0006022103084003D081B
:10073000C1003C08C000B7220A30C9003422322B65
:1007400063000A148A140A1182074E2B502B522B75
:02075000542B28
:02400E00713F00
:00000001FF
;PIC16F876A
;CRC=921E  CREATED="07-ago-25 14:49"
